:100000007DC10000ACC10000AAC10000A8C1000071
:10001000A6C10000A4C10000A2C10000A0C1000050
:100020009EC100009CC100009AC1000098C1000060
:1000300096C100000C94FD1192C1000090C1000017
:100040008EC100000C945C128AC1000088C10000BF
:1000500086C100000C94C51282C100000C94B3113B
:100060007EC100000C94CC0F0C94A30F78C100004B
:1000700076C1000074C1000072C1000070C10000B0
:100080006EC100006CC100006AC1000068C10000C0
:1000900066C1000064C1000062C100005DC40000D0
:1000A0005EC100005CC100005AC1000058C10000E0
:1000B00056C1000054C1000052C1000050C10000F0
:1000C0004EC100004CC100004AC1000048C1000000
:1000D00046C1000044C1000042C1000040C1000010
:1000E0003EC100005A1D5C1D501D521D541D561D61
:1000F000581DB60DB90DA80DAC0DB20DF00DBD0D0E
:10010000C10DC70DCB0DCF0DD50DD90DDD0DF00DEA
:10011000E30DE70DEB0DBC10C110C610D010DA10C6
:100120005311E410EC10F410FE10081112112111FB
:100130002B11531135113F114911000022002500E8
:1001400028002B002E0031003400020100000501C0
:1001500008010B0102010000002100240027002AF1
:10016000002D003000330001010000040107010AE6
:1001700001010210202008081020401020408002B9
:1001800001020108040201010204081020408080DD
:100190004020100804020180040201804020100861
:1001A0000402010804020101020408102040800139
:1001B0000204081020408005050505070508080809
:1001C00008020202020A0A080804040404010101E8
:1001D00001010101010303030303030303040707F0
:1001E000070C0C0C0C0C0C0C0C020202020606068E
:1001F00006060606060B0B0B0B0B0B0B0B53746F53
:100200007020546573740054656D70203D20005358
:10021000746172742054657374004669726D7761FD
:1002200072652076657273696F6E3A20005761724D
:100230006E696E67212052544320444F4E2754204C
:10024000524553504F4E442100496E636F727265A0
:10025000637420536F6E6720466F726D6174210066
:100260005247423D6F6666005247423D6F6E0076D0
:10027000616C75653D006D656E75506F736974696D
:100280006F6E3D0073796E630057616B652075700A
:100290002C204E656F21000000200023002600293D
:1002A000002C002F003200000100000301060109AC
:1002B0000100000A0B02090C0D0E080703040100DF
:1002C000000000000000000000000000000000002E
:1002D00000000000000000000000000000121110EB
:1002E000000000000000000000000000000000000E
:1002F000000000000000000092258A2511241FBE86
:10030000CFEFD1E2DEBFCDBF00E00CBF14E0A0E034
:10031000B2E0EEE8F2E500E00BBF02C007900D92FC
:10032000AA3DB107D9F727E0AAEDB4E001C01D92BC
:10033000A138B207E1F711E0CDE7D1E000E006C057
:1003400021970109802FFE010E941C28CC37D1077C
:1003500080E00807A9F70E9486180C94362950CE31
:1003600085ED8093BC008091BC0084FDFCCF109291
:100370004A0608954091DB05262F30E0240F311DF9
:1003800021323105DCF420914A062430C9F4FC0105
:1003900080E090E0861758F43091DB052191DC0174
:1003A000A754BA4FA30FB11D2C930196F3CF8091A0
:1003B000DB05680F6093DB0580E0089581E0089518
:1003C00082E008950895E091DB048091DA04E81753
:1003D00030F4F0E0E756FA4F808190E008958FEF17
:1003E0009FEF08959091DB048091DA04981750F400
:1003F000E92FF0E0E756FA4F208130E09F5F9093BD
:10040000DB0402C02FEF3FEFC90108958091DA04A9
:1004100090E02091DB04821B91090895CF92DF9236
:10042000EF92FF920F931F93CF93DF937C01262FC0
:10043000972F8A0180914B06882391F0C62FD72FE2
:100440006E01C40ED51ECC15DD0569F06991D7018A
:10045000ED91FC910190F081E02DC7011995F3CF4A
:10046000642F822F87DFC801DF91CF911F910F91F9
:10047000FF90EF90DF90CF900895CF93DF931F927E
:10048000CDB7DEB7698320914B062223D1F02091AE
:100490006E06203240F021E030E0FC0133832283FD
:1004A00080E090E014C080914C06E82FF0E0E35B20
:1004B000F94F998190838F5F80934C0680936E06ED
:1004C00004C061E0CE01019655DF81E090E00F901D
:1004D000DF91CF9108958EBD00000DB407FEFDCFD2
:1004E0008EB50895CF92DF92EF92FF921F93CF9334
:1004F000DF939091F304911103C08FEF9FEF77C0CA
:100500009091F2049923C9F3182FC091F904D09166
:10051000FA048091910581110DC00E9481116093B0
:100520008D0570938E0580938F059093900581E0E3
:10053000809391050E948111C0908D05D0908E0509
:10054000E0908F05F0909005DC01CB018C199D099E
:10055000AE09BF098D329140A105B105F8F00E94A6
:10056000811160938D0570938E0580938F05909314
:10057000900580918C0591E0982790938C059923A4
:1005800029F010928B0510928A0508C08091F90419
:100590009091FA0490938B0580938A0520918A05A7
:1005A00030918B05209530954091F40450E0242340
:1005B000352326FF04C081E08093890502C0109294
:1005C000890527FF04C081E08093880502C010924E
:1005D000880580918C05882309F48FCF02C0D595BA
:1005E000C7951A95E2F7C0FF88CF80E09CE3DF91C2
:1005F000CF911F91FF90EF90DF90CF9008958BEEF9
:1006000094E00C94F90E4F925F926F927F928F92CA
:100610009F92AF92BF92CF92DF92EF92FF920F9391
:100620001F93CF93DF934B015C0180910006909163
:100630000106A0910206B091030688169906AA0643
:10064000BB0609F4C2C08CE3C82ED12CE12CF12CDE
:10065000C501B401A70196010E94DE27609304063C
:10066000CA01B901A70196010E94DE276093050621
:10067000CA01B90128E130E040E050E00E94DE27E5
:1006800069017A0160930606CA01B9016C5F7F4F68
:100690008F4F9F4F27E030E040E050E00E94DE2780
:1006A0006F5F60930706412C512C320140E004E655
:1006B00010E0C0E9D1E0242F30E02E54384FF9018A
:1006C000E370FF27309789F4C901B8010E94CB2756
:1006D000892B31F4C901BE010E94CB27892B29F453
:1006E0008EE691E0A0E0B0E004C08DE691E0A0E0ED
:1006F000B0E0480E591E6A1E7B1ED301C201AA2714
:10070000BB27C816D906EA06FB0610F04F5FD3CF09
:1007100040930A06309799F4C90164E670E00E949C
:10072000CB27892B39F4C90160E971E00E94CB27FE
:10073000892B29F48EE691E0A0E0B0E004C08DE6BC
:1007400091E0A0E0B0E0481A590A6A0A7B0AC4188E
:10075000D508E608F708C90164E670E00E94CB27D7
:10076000EC01C90160E971E00E94CB27AAE9B3E07E
:1007700020E0213039F4309749F4209729F400978C
:1007800029F402C04C9103C04DE101C04CE150E09E
:1007900060E070E0C416D506E606F70640F0C41A1D
:1007A000D50AE60AF70A2F5F11962C3011F72F5F52
:1007B00020930906C394C092080680920006909286
:1007C0000106A0920206B0920306DF91CF911F911D
:1007D0000F91FF90EF90DF90CF90BF90AF909F90E0
:1007E0008F907F906F905F904F900895CF92DF929F
:1007F000EF92FF92CF93DF93EC010E9481116B0186
:100800007C018F850E94021021E0892B09F420E0F1
:10081000298B8889811103C081E08227898B2989EE
:100820008A89281721F0CD8ADE8AEF8AF88E8D8991
:100830009E89AF89B88DB701A601481B590B6A0B79
:100840007B0BDB01CA01CB80DC80ED80FE80C4160F
:10085000D506E606F70664F43A81231749F02A83A1
:10086000222331F04B895C894F5F5F4F5C8B4B8B50
:100870003A8131110CC0CF80D884E984FA84C8163B
:10088000D906EA06FB06ACF48B899C890EC0CB84A2
:10089000DC84ED84FE84C816D906EA06FB064CF417
:1008A0008B899C89919581959109998388831C8A6C
:1008B0001B8A2A8BDF91CF91FF90EF90DF90CF9032
:1008C00008950F931F93CF93DF931F92CDB7DEB799
:1008D0008C01862FF8016787408B91E04927418B77
:1008E000428B148A138A118210821282158A168A08
:1008F000178A108E44E150E060E070E04383548337
:10090000658376834AEF50E060E070E0478350876C
:100910006187728748EE53E060E070E04387548758
:100920006587768760E029830E945910F8018089E5
:10093000298181110BC0222349F061E087850F9046
:10094000DF91CF911F910F910C942A100F90DF919E
:10095000CF911F910F9108951F920F920FB60F9292
:1009600011240BB60F922F933F934F935F936F9386
:100970007F938F939F93AF93BF93EF93FF93809158
:10098000B900887F803609F49CC068F5883209F484
:100990005BC090F4803109F454C038F4882309F422
:1009A000F6C0883009F44DC0F5C0883109F44CC058
:1009B000803209F45DC0EEC0803409F468C048F4A8
:1009C000803309F455C0883309F0E4C080934806A9
:1009D000D8C0803509F44FC0883509F45DC088342B
:1009E00009F0D8C0D6C0883909F4C7C0A8F4883740
:1009F00009F467C038F4883609F463C0803709F415
:100A000060C0C8C0883809F4B8C0803909F45FC034
:100A1000803809F0BFC05BC0803B09F486C038F461
:100A2000803A09F466C0883A09F47FC0B3C0803CBC
:100A300009F4A7C0883C09F4A4C0883B09F48AC023
:100A4000A9C08091250610C0909147068091460666
:100A5000981770F5E091470681E08E0F8093470666
:100A6000F0E0EA5DF94F80818093BB0085EC86C0A1
:100A7000809348068EC0E091470681E08E0F8093F8
:100A800047068091BB00F0E0EA5DF94F80839091CA
:100A90004706809146066EC0E091470681E08E0FC2
:100AA000809347068091BB00F0E0EA5DF94F8083B8
:100AB0008091490681116DC081E08093240684EA0B
:100AC00061C083E080934A061092FF05CFCF8091EA
:100AD000FF05803208F051C0E091FF0581E08E0FE4
:100AE0008093FF058091BB00F0E0E152FA4F8083D4
:100AF000BDCF85EC8093BC0010924A068091FF0523
:100B0000803230F4E091FF05F0E0E152FA4F1082BC
:100B10006091FF0570E0E091DD05F091DE058FED5D
:100B200095E019951092FF0535C084E080934A0640
:100B30001092DC051092DB05E091D905F091DA0501
:100B400019958091DB05811105C081E08093DB055B
:100B50001092B905E091DC0581E08E0F8093DC05F1
:100B6000F0E0E754FA4F80818093BB009091DC0560
:100B70008091DB05981708F479CF85E88093BC0055
:100B800009C085EC8093BC0010924A0603C0109205
:100B90004806E6DBFF91EF91BF91AF919F918F9156
:100BA0007F916F915F914F913F912F910F900BBE6D
:100BB0000F900FBE0F901F9018950C9498270C94CF
:100BC00090272F923F924F925F926F927F928F92D7
:100BD0009F92AF92BF92CF92DF92EF92FF920F93CC
:100BE0001F93CF93DF9300D01F92CDB7DEB70E9443
:100BF0005C11009184051091850520918605309146
:100C00008705DC01CB01801B910BA20BB30B8A3152
:100C10009144A105B10508F43EC10E945C116093A6
:100C2000840570938505809386059093870581E7F9
:100C300097E00E944B0E6B017C0160E08AE00E940D
:100C40002A108AE0482E512C612C712CC701B60164
:100C5000A30192010E940028CB01880F991FFC017B
:100C6000EA57FC4FC080D18085E090E029833A8329
:100C70004B835C8337DC1C0129813A814B815C8189
:100C8000CA01B901A30192010E940028660F771FD3
:100C9000FB01EA57FC4FA080B18084E090E02983FB
:100CA0003A834B835C831EDC7C0129813A814B8132
:100CB0005C81CA01B901A30192010E9400282901A7
:100CC0003A01660F771FFB01EA57FC4F0081118143
:100CD00083E090E007DC45018E209F20A12CB12C01
:100CE000AAE0880C991CAA1CBB1CAA95D1F78023EA
:100CF0009123AC0160E070E0D501C401842B952BF9
:100D0000A62BB72BC220D320A60160E070E014E12F
:100D1000440F551F661F771F1A95D1F76C017D018F
:100D2000C42AD52AE62AF72A80918905882319F052
:100D3000E894F6F802C06894F6F880918805882354
:100D400019F0E894F7F802C06894F7F88F2DC3DB28
:100D50008E2DC1DB8D2DBFDB8C2DBDDB8AE0882E77
:100D6000912CA12CB12CC301B201A50194010E94C8
:100D70000028CB01880F991FFC01EA57FC4F008126
:100D8000118182E090E029833A834B835C83AADB64
:100D90006C0129813A814B815C81CA01B901A501AD
:100DA00094010E940028660F771FFB01EA57FC4F51
:100DB0006080718081E090E029833A834B835C837B
:100DC00091DBC022D122E12CF12CF4E1CC0CDD1C12
:100DD000EE1CFF1CFA95D1F786219721A0E0B0E028
:100DE0001AE0880F991FAA1FBB1F1A95D1F7C82AAE
:100DF000D92AEA2AFB2A29813A814B815C81CA01DE
:100E0000B901A50194010E940028660F771FFB011C
:100E1000EA57FC4F0081118180E090E063DB802382
:100E20009123A0E0B0E0C82AD92AEA2AFB2A8091BF
:100E30008905882319F0E894F6F802C06894F6F85A
:100E400080918805882319F0E894F7F802C0689427
:100E5000F7F88F2D40DB8E2D3EDB8D2D3CDB8C2D6E
:100E60003ADB61E08AE00F900F900F900F90DF91D6
:100E7000CF911F910F91FF90EF90DF90CF90BF9097
:100E8000AF909F908F907F906F905F904F903F902A
:100E90002F900C942A100F900F900F900F90DF91CD
:100EA000CF911F910F91FF90EF90DF90CF90BF9067
:100EB000AF909F908F907F906F905F904F903F90FA
:100EC0002F9008954F925F926F927F928F929F9290
:100ED000AF92BF92CF92DF92EF92FF920F931F9348
:100EE000CF93DF9300D000D0CDB7DEB77C014B01AC
:100EF0005A018091F104882341F0809177050EE733
:100F000015E0A8E7B5E0F80142C081E08093F10464
:100F10008EE7682E85E0782E98E7492E95E0592EC9
:100F200000E010E00F5F1F4F680181E0C81AD10890
:100F30009801A601B401CE010196B3D7CE01019666
:100F4000AAD6F30161933F01CE01019652D79801D1
:100F5000A601B501CE010196A4D7CE0101969BD67C
:100F6000F20161932F01CE01019643D7063011059E
:100F7000C9F6C3CF2C9192130DC090819A3009F419
:100F800010823196119695E0E438F90731F090819E
:100F90008A3080F79F5F9083F0CF8F5F843119F0A4
:100FA0008093770504C0109277051092F10468EDE4
:100FB00074E0C70162D7FE0131966F01F80181919B
:100FC0008F014AE0B60190E00E944827F6010190A7
:100FD0000020E9F73197AF014C195D09B601C7014F
:100FE00065D6F5E004381F0749F7C70126960FB606
:100FF000F894DEBF0FBECDBFDF91CF911F910F914F
:10100000FF90EF90DF90CF90BF90AF909F908F9028
:101010007F906F905F904F90089588E090E0CFDDD3
:10102000682F89E00E942A1089E090E0C8DD682FCF
:1010300086E00E942A108AE090E0C1DD682F83E0FC
:101040000C942A100F931F938091250290912602F1
:10105000892B09F455C0809176058823A9F00E9458
:1010600081110091720510917305209174053091E2
:101070007505DC01CB01801B910BA20BB30B893EE4
:101080009340A105B105C8F580917605811138C05E
:101090000E94B61420911F023091200282179307FC
:1010A00079F50E94AF14209121023091220282171B
:1010B000930731F50E94A814209123023091240255
:1010C00082179307E9F40E9481116093720570936F
:1010D0007305809374059093750581E08093760580
:1010E00089E892E00E940817809100029091010225
:1010F0009093FF048093FE0403C010927605C4CF42
:101100001F910F910895CF93DF93EC0101962881F1
:101110002A33D9F78981843639F51092EA0410927E
:10112000E90423964AE0FE018881219690ED980F0C
:101130002091E9043091EA049A3080F4429FB00192
:10114000439F700D1124082E000C990BC097860F39
:10115000971F9093EA048093E904E5CF12161306D3
:1011600014F420930302EF01219688818F3689F4CD
:101170008A81082E000C990B9C0120533109309371
:10118000EA042093E904C397059710F42093020220
:1011900024968881823629F51092EA041092E90497
:1011A000FE0132964AE0819190ED980F2091E9047A
:1011B0003091EA049A3080F4429FB001439F700D51
:1011C0001124082E000C990BC097860F971F90933F
:1011D000EA048093E904E7CF30932A02209329029E
:1011E000EF012091290230912A02032E000C440BBA
:1011F000550B60E67AEE80E090E00E940028DA016C
:10120000C90122E0880F991FAA1FBB1F2A95D1F799
:101210008093E5049093E604A093E704B093E80478
:10122000CE01DF91CF910895CF92DF92EF92FF929E
:101230000F931F93CF93DF93CDB7DEB72C970FB6E5
:10124000F894DEBF0FBECDBF8C016EEF73E0CE0110
:10125000019613D60330110529F422E030E040E076
:1012600050E021C00C30110529F424E030E042E0C8
:1012700050E019C00033110519F426E030E007C032
:10128000003F110539F4209175073091760744E04D
:1012900050E009C0003C1105A1F420917507309180
:1012A000760746E050E061E777E0CE010796F9D592
:1012B000BE01695F7F4FCE01019662D5CE010796D0
:1012C00098D5CE010196E7D46B017C01CE01019641
:1012D00090D5C6012C960FB6F894DEBF0FBECDBFD9
:1012E000DF91CF911F910F91FF90EF90DF90CF9002
:1012F000089581E080934B0688E680936D061092F6
:101300004C0610926E0660E08AE197E0B6D80E9423
:10131000A51780914A068111FCCF81E080934A068F
:10132000809349069FEF909348061092470696E0F7
:10133000909346068093250680912506806D8093C4
:10134000250680912406813061F410922406809154
:1013500025068093BB008091BC0083FDF8CF85EC0F
:1013600001C085EE8093BC0080914A068130E1F394
:1013700080914706873018F48091470601C087E0C6
:10138000A6E2B6E029E935E0F9019E2F921B9817F5
:1013900018F49D919193F9CF1092DB048093DA04B5
:1013A0008AE197E01FD8982F92959F708F702AE05E
:1013B000929F800D112490E0909305058093040581
:1013C0008AE197E00FD8982F92959F708F702AE04E
:1013D000929F800D112490E0909303058093020565
:1013E0008AE197E00E94F201982F9695969596953E
:1013F0009670292F220F220F920F8F70890F90E085
:1014000090930105809300058AE197E00E94F20124
:10141000982F92959F708F702AE0929F800D1124D3
:1014200090E090937105809370058AE197E00E94A7
:10143000F201982F92959F708F702AE0929F800DF5
:10144000112490E090930705809306058AE197E0C8
:101450000E94F201982F92959F708F702AE0929FC0
:10146000800D112490E090930905809308058AE18E
:1014700097E00E94F201982F92959F708F702AE05A
:10148000929F800D112490E090930B0580930A05A4
:1014900008950F931F93CF93DF93CDB7DEB7629775
:1014A0000FB6F894DEBF0FBECDBF8C014AE06A30A4
:1014B00071050CF5CE010D96A1D467EF73E0CE0156
:1014C0000196DBD4BE016F5F7F4FCE010796CDD46E
:1014D000BE01635F7F4FCE0107962CD4BC01C801CB
:1014E000C4D4CE01079685D4CE01019682D4CE0114
:1014F0000D967FD401C082D4C80162960FB6F894CD
:10150000DEBF0FBECDBFDF91CF911F910F91089528
:101510000F931F93CF93DF93CDB7DEB768970FB6C6
:10152000F894DEBF0FBECDBF8B01833081F42091D4
:1015300075073091760742E050E061E777E0CE0131
:101540000D96AFD4B801CE010196A3DF54C08C3004
:1015500009F038C0209175073091760744E050E0DB
:1015600061E777E0CE0143969CD4B801CE010D9699
:1015700090DF22E030E040E050E061E777E0CE012C
:1015800001968FD4BE016F5F7F4FCE0107966DD459
:10159000BE01635F7F4FCE010796CCD3BE016D5E67
:1015A0007F4FC8D3BC0181E797E0D5D3CE01079622
:1015B00020D4CE0101961DD4CE010D961AD4CE01B1
:1015C000439631C0803311F0803F39F4B801CE0129
:1015D0000D965FDF24E030E007C0803C29F5CE01A6
:1015E0000D9657DF26E030E040E050E061E777E01D
:1015F000CE01019656D4BE016F5F7F4FCE01079694
:1016000034D4BE01635F7F4FCE01079693D3BC01F4
:1016100081E797E0A0D3CE010796EBD3CE010196E8
:10162000E8D3CE010D96E5D368960FB6F894DEBFE9
:101630000FBECDBFDF91CF911F910F91089561D65D
:101640006093F5047093F6048093F7049093F80484
:101650008091FB04882309F467C02091FC04309139
:10166000FD04C901880F991F2E30310551F0FC018E
:10167000E55FFD4F408151814150510951834083C5
:101680000AC040912702509128024C5051095093B2
:10169000280240932702DC01A55FBD4F6D917C912C
:1016A0001197FC01E859FC4F40815181641775077F
:1016B0003CF4FC01E65BFC4F808191818D939C930F
:1016C0002D30310521F58091250290912602019758
:1016D00021F480E88093F40402C01092F4048FEAAD
:1016E00094E00E949516E091FC04F091FD04EE0F49
:1016F000FF1FE55FFD4F808191810E9414178AEBE7
:1017000094E00E9495168091F4040E944A17E0919B
:10171000FC04F091FD04EE0FFF1FE55FFD4F6081BB
:1017200071818091F904F4CE0895EBD56093F504AE
:101730007093F6048093F7049093F8048091FB046F
:10174000882309F467C02091FC043091FD04C9018D
:10175000880F991F2E30310551F0FC01E55FFD4FD8
:10176000408151814F5F5F4F518340830AC0409158
:10177000270250912802445F5F4F50932802409304
:101780002702DC01A55FBD4F6D917C911197FC0193
:10179000E65BFC4F40815181461757073CF4FC0142
:1017A000E859FC4F808191818D939C932D303105B8
:1017B00021F58091250290912602019721F480E87D
:1017C0008093F40402C01092F40486EC94E00E942A
:1017D0009516E091FC04F091FD04EE0FFF1FE55F0C
:1017E000FD4F808191810E9414178AEB94E00E9442
:1017F00095168091F4040E944A17E091FC04F09140
:10180000FD04EE0FFF1FE55FFD4F60817181809148
:10181000F9047ECE08950F931F93CF93DF93CDB736
:10182000DEB768970FB6F894DEBF0FBECDBF8C0150
:101830008091270290912802489781F40E94A81471
:10184000BC01CE01439625DE0E94AF14BC01CE013F
:101850000D961FDE0E94B614BC011CC00E94A81485
:10186000BC01CE01439615DE0E94AF14BC01CE012F
:101870000D960FDECED70E940303809106068823C3
:1018800039F0682F70E08D3028F06C50710902C07B
:101890006CE070E0CE010196FCDDBE016F5F7F4F12
:1018A000CE010796E2D2BE01635F7F4FCE0107965D
:1018B00041D2BE016D5E7F4F3DD2BC01C801D5D281
:1018C000CE01079696D2CE01019693D2CE010D9607
:1018D00090D2CE0143968DD2C80168960FB6F89487
:1018E000DEBF0FBECDBFDF91CF911F910F91089545
:1018F0000895CF92DF92EF92FF920F931F93CF93B1
:10190000DF936C017A018B01C0E0D0E0CE15DF05DA
:1019100089F0D8016D918D01D601ED91FC91019076
:10192000F081E02DC6011995892B11F47E0102C0CA
:101930002196ECCFC701DF91CF911F910F91FF90BE
:10194000EF90DF90CF900895FC01918D828D9817D4
:1019500061F0828DDF01A80FB11D5D968C91928D93
:101960009F5F9F73928F90E008958FEF9FEF089590
:10197000FC01918D828D981731F0828DE80FF11D59
:10198000858D90E008958FEF9FEF0895FC01918D74
:10199000228D892F90E0805C9F4F821B91098F736D
:1019A000992708958DE796E0F1DF21E0892B09F46E
:1019B00020E0822F0895FC01848DDF01A80FB11D66
:1019C000A35ABF4F2C91848D90E001968F73992775
:1019D000848FA689B7892C93A089B1898C91806462
:1019E0008C93938D848D981306C00288F389E02D23
:1019F00080818F7D80830895EF92FF920F931F93D4
:101A0000CF93DF93EC0181E0888F9B8D8C8D9813B1
:101A100005C0E889F989808185FD23C0F62E0B8DEC
:101A200010E00F5F1F4F0F731127E02E8C8DE8120F
:101A30000BC00FB607FCFACFE889F989808185FFD2
:101A4000F5CFCE01B8DFF2CF8B8DFE01E80FF11D8F
:101A5000E35AFF4FF0820B8FEA89FB898081806215
:101A600007C0EE89FF896083E889F98980818064F5
:101A7000808381E090E0DF91CF911F910F91FF90E3
:101A8000EF900895CF93DF93EC01888D8823C1F008
:101A9000EA89FB89808185FD05C0A889B9898C9177
:101AA00086FD0EC00FB607FCF5CF808185FFF2CF13
:101AB000A889B9898C9185FFEDCFCE017CDFE8CF75
:101AC000DF91CF91089580E090E0892B19F06ADFD3
:101AD000811125C080E090E0892B41F080E090E00A
:101AE000892B21F00E94000081111CC080E090E051
:101AF000892B41F080E090E0892B21F00E940000CA
:101B0000811113C080E090E0892BA1F080E090E08B
:101B1000892B81F00E94000081110AC008950E9463
:101B20000000D8CF0E940000E1CF0E940000EACF61
:101B30000C940000089590E0FC013197E231F1052A
:101B400008F04EC08827E758FF4F8F4F0C941C2891
:101B5000809180008F7703C0809180008F7D80937B
:101B60008000089580918000877FF9CF84B58F77BA
:101B700002C084B58F7D84BD08958091B0008F77B9
:101B800003C08091B0008F7D8093B0000895809154
:101B900090008F7707C0809190008F7D03C0809167
:101BA0009000877F8093900008958091A0008F77A8
:101BB00007C08091A0008F7D03C08091A000877F27
:101BC0008093A0000895809120018F7707C08091B5
:101BD00020018F7D03C080912001877F80932001A9
:101BE00008950E942229CF93DF93EC018881998187
:101BF000009711F00E948026198218821D821C8293
:101C00001B821A82DF91CF9108950F931F93CF9378
:101C1000DF93EC0188819981009729F02A813B812B
:101C20002617370788F48B016F5F7F4F0E943E288D
:101C3000009761F0998388831B830A832C813D81FF
:101C4000232B11F4FC01108281E001C080E0DF91C0
:101C5000CF911F910F910895EF92FF920F931F93D1
:101C6000CF93DF93EC017B018A01BA01CEDF8111B2
:101C700003C0CE01B8DF07C01D830C83B701888184
:101C800099810E942F29CE01DF91CF911F910F9151
:101C9000FF90EF900895FC0180819181009711F0F1
:101CA0000C94182760E070E0CB010895EF92FF924A
:101CB0000F931F93CF93DF93FC012481358161152E
:101CC000710511F480E018C041155105A1F07B01A8
:101CD000EC018A01020F131FB80197DF882391F3EB
:101CE000288139818C819D81B701820F931F0E94C9
:101CF0002F291D830C8381E0DF91CF911F910F91DC
:101D0000FF90EF900895CF93DF93EC01611571057B
:101D100059F0FB0101900020E9F73197AF01461B14
:101D2000570BC4DF811102C0CE015DDFCE01DF9110
:101D3000CF910895CF93DF93EC01FB01448155814E
:101D400060817181B3DF811102C0CE014CDFCE0111
:101D5000DF91CF910895CF93DF93EC01FB018617BC
:101D6000970751F0608171816115710521F04481FF
:101D7000558172DF01C037DFCE01DF91CF91089529
:101D80000F931F93CF93DF938C01EB01FC018081B4
:101D900091810097B1F0688179816115710579F0C1
:101DA000428153812C813D814217530740F00E94AC
:101DB0002F298C819D81F8019583848313C00E9413
:101DC000802688819981F801918380838A819B8113
:101DD000938382838C819D81958384831982188269
:101DE0001B821A821D821C82DF91CF911F910F915D
:101DF0000895FC01808191810C948026EF92FF92DE
:101E00000F931F93CF93DF93CDB7DEB762970FB6D3
:101E1000F894DEBF0FBECDBF8C01CB01F80111825B
:101E20001082138212821582148250E09E012F5F6D
:101E30003F4F7901B9010E943E27F7010190002030
:101E4000E9F73197AF014E195F09B701C80104DF07
:101E500062960FB6F894DEBF0FBECDBFDF91CF9173
:101E60001F910F91FF90EF900895FC011182108255
:101E700013821282158214826ECFFC0111821082AD
:101E800013821282158214826115710549F0FB01DB
:101E900001900020E9F73197AF01461B570BDCCECC
:101EA0000895BF92CF92DF92EF92FF920F931F930C
:101EB000CF93DF937C016B01EA0189012417350779
:101EC00020F48D2FE901042F182F68ED74E0C7016D
:101ED000D4DFD60114968D919C911597C817D90718
:101EE00038F58017910708F48C01D601ED91FC912B
:101EF0001197E00FF11FB08010824D915C91BA01F3
:101F00006C0F7D1F6115710559F0FB0101900020D8
:101F1000E9F73197AF01461B570BC7019DDE02C0A1
:101F2000C70161DED601ED91FC91E00FF11FB08297
:101F3000C701DF91CF911F910F91FF90EF90DF903C
:101F4000CF90BF9008951F920F920FB60F92112459
:101F50000BB60F922F933F934F935F936F937F93A3
:101F60008F939F93AF93BF93EF93FF938DE796E08B
:101F700022DDFF91EF91BF91AF919F918F917F9162
:101F80006F915F914F913F912F910F900BBE0F90EA
:101F90000FBE0F901F9018951F920F920FB60F92C1
:101FA00011240BB60F922F938F939F93EF93FF9370
:101FB000E0918D06F0918E068081E0919306F0917C
:101FC000940682FD12C09081809196068F5F8F7378
:101FD00020919706821751F0E0919606F0E0E358C1
:101FE000F94F958F8093960601C08081FF91EF9104
:101FF0009F918F912F910F900BBE0F900FBE0F905E
:102000001F901895CF93DF93282F30E0F901EF54FC
:10201000FD4F8491F901EF58FE4FD491F901E95435
:10202000FE4FC491CC2389F0811185DDEC2FF0E0C7
:10203000EE0FFF1FE956FD4FA591B491EC91ED23F2
:1020400081E090E021F480E002C080E090E0DF9148
:10205000CF9108951F93CF93DF93282F30E0F9019C
:10206000EF54FD4F8491F901EF58FE4FD491F901DF
:10207000E954FE4FC491CC23C1F0162F81115BDDD2
:10208000EC2FF0E0EE0FFF1FE65CFE4FA591B49140
:102090008FB7F894111105C09C91ED2FE095E923BD
:1020A00002C0EC91ED2BEC938FBFDF91CF911F918C
:1020B0000895CF93DF9390E0FC01EF58FE4F2491F9
:1020C000FC01E954FE4F8491882361F190E0880F70
:1020D000991FFC01E95AFE4FC591D491FC01E65CC1
:1020E000FE4FA591B491611109C09FB7F894888102
:1020F000209582238883EC912E230BC0623061F4FB
:102100009FB7F8943881822F809583238883EC9140
:102110002E2B2C939FBF06C08FB7F894E8812E2BEF
:1021200028838FBFDF91CF9108951F93CF93DF93C3
:10213000182FEB0161E0BDDF209711F460E004C0CF
:10214000CF3FD10531F461E0812FDF91CF911F9115
:1021500081CFE12FF0E0EF54FD4FE4914E2F50E09E
:10216000FA013197E231F10508F09DC08827E55763
:10217000FF4F8F4F0C941C2884B5806884BDC7BD69
:1021800097C084B5806284BDC8BD92C08091800034
:10219000806880938000D0938900C093880088C0B5
:1021A00080918000806280938000D0938B00C093E8
:1021B0008A007EC080918000886080938000D093E8
:1021C0008D00C0938C0074C08091B00080688093B3
:1021D000B000C093B3006CC08091B0008062809367
:1021E000B000C093B40064C0809190008068809378
:1021F0009000D0939900C09398005AC080919000AD
:10220000806280939000D0939B00C0939A0050C04E
:1022100080919000886080939000D0939D00C0933F
:102220009C0046C08091A00080688093A0008091AF
:10223000A0008F7B8093A000D093A900C093A8003A
:1022400037C08091A00080628093A000D093AB0043
:10225000C093AA002DC08091A00088608093A00048
:10226000D093AD00C093AC0023C080912001806862
:1022700080932001D0932901C093280119C0809137
:102280002001806280932001D0932B01C0932A010A
:102290000FC080912001886080932001D0932D0190
:1022A000C0932C0105C0C038D1050CF04CCF46CFEF
:1022B000DF91CF911F9108953FB7F8948091200648
:1022C00090912106A0912206B091230626B5A89BE5
:1022D00005C02F3F19F00196A11DB11D3FBFBA2FB8
:1022E000A92F982F8827820F911DA11DB11DBC0118
:1022F000CD0142E0660F771F881F991F4A95D1F7DD
:1023000008952FB7F89460911C0670911D06809176
:102310001E0690911F062FBF0895609317067093B5
:1023200018068093190690931A06DC01CB01845D90
:102330009E4FAF4FBF4F8093130690931406A09308
:102340001506B093160682E090E0909312068093F3
:102350001106D7DF60930D0670930E0680930F066B
:102360009093100608951F920F920FB60F921124AA
:102370002F933F938F939F93AF93BF9380911C06AE
:1023800090911D06A0911E06B0911F0630911B066C
:1023900023E0230F2D3720F40196A11DB11D05C0A8
:1023A00026E8230F0296A11DB11D20931B068093E2
:1023B0001C0690931D06A0931E06B0931F068091E5
:1023C000200690912106A0912206B0912306019645
:1023D000A11DB11D8093200690932106A093220693
:1023E000B0932306BF91AF919F918F913F912F9111
:1023F0000F900FBE0F901F9018951F920F920FB65F
:102400000F9211240BB60F922F933F934F935F932C
:102410006F937F938F939F93EF93FF9340916F06FA
:1024200050917006609171067091720641155105C8
:102430006105710599F08091DC04E091DD04F09173
:10244000DE04908189278083141615061606170668
:10245000D4F4415051096109710915C0809170008F
:102460008D7F809370009091DC04E091DD04F09109
:10247000DE048081282F30E0892F90E080959095B0
:1024800082239323808340936F065093700660935A
:10249000710670937206FF91EF919F918F917F91DA
:1024A0006F915F914F913F912F910F900BBE0F90C5
:1024B0000FBE0F901F9018951F920F920FB60F929C
:1024C00011240BB60F922F933F938F939F93AF934B
:1024D000BF93EF93FF938091730690917406A09140
:1024E0007506B0917606892B8A2B8B2B51F1809142
:1024F000DF04E091E004F091E1049081892780837A
:102500008091730690917406A0917506B09176063D
:10251000181619061A061B064CF580917306909141
:102520007406A0917506B09176060197A109B109CC
:102530008093730690937406A0937506B093760605
:1025400015C080916F008D7F80936F009091DF04A4
:10255000E091E004F091E1048081282F30E0892FA0
:1025600090E080959095822393238083FF91EF9153
:10257000BF91AF919F918F913F912F910F900BBE83
:102580000F900FBE0F901F9018951F920F920FB6CD
:102590000F9211240BB60F922F933F938F939F931B
:1025A000AF93BF93EF93FF93809177069091780656
:1025B000A0917906B0917A06892B8A2B8B2B51F149
:1025C0008091E204E091E304F091E4049081892792
:1025D00080838091770690917806A0917906B091DA
:1025E0007A06181619061A061B064CF5809177060E
:1025F00090917806A0917906B0917A060197A10989
:10260000B1098093770690937806A0937906B093EA
:102610007A0615C080916E008D7F80936E00909138
:10262000E204E091E304F091E4048081282F30E09B
:10263000892F90E080959095822393238083FF914A
:10264000EF91BF91AF919F918F913F912F910F90FB
:102650000BBE0F900FBE0F901F9018953F924F9298
:102660005F926F927F928F929F92AF92BF92CF9222
:10267000DF92EF92FF920F931F93CF93DF93382E49
:10268000962E842EF90184E6E816F1042CF082EBF4
:10269000E81A87E0F80A03C08EE1E80EF11CE09228
:1026A0000A0600930906E093080630920606909207
:1026B000050680920406AE2DB0E020E833E341EE3B
:1026C00051E00E94A6272B013C0122EB37E0FF24BA
:1026D00084E6C82ED12CC0E9D1E0C901825B9740C5
:1026E0008E159F05DCF4C90183709927892B99F415
:1026F000C901B6010E94CB27892B31F4C901BE0163
:102700000E94CB27892B39F480E8480E81E5581EBA
:1027100081E0681E711C2F5F3F4FDFCF8EE4E81A07
:1027200088EFF80AC70164E670E00E94CB276C01CD
:10273000C70160E971E00E94CB275C01C1E0D0E0F5
:10274000112783E0E822FF24C017D1072CF5C230FF
:10275000D10589F4E114F10471F4C114D10419F420
:10276000A114B10441F480E8480E8BE3581E86E2C0
:10277000681E711C0FC0DE01A756BC4FAC91B0E0C3
:1027800020E831E541E050E00E94A627460E571EA2
:10279000681E791E2196D8CF292D30E0ACE3B0E039
:1027A0000E94B0276B017C01C80CD11CE11CF11CFC
:1027B000232D30E0A0E1BEE00E94B027C60ED71E58
:1027C000E81EF91EDF01BB27119720E831E541E043
:1027D00050E00E942428DC01CB018C0D9D1DAE1D14
:1027E000BF1DBC01CD01640D751D861D971DDF91B8
:1027F000CF911F910F91FF90EF90DF90CF90BF90FE
:10280000AF909F908F907F906F905F904F903F9090
:1028100084CDCF92DF92EF92FF920F931F9371DDE1
:10282000C0900D06D0900E06E0900F06F0901006B6
:102830008B019C010C191D092E093F098091170677
:1028400090911806A0911906B0911A06083E1340FF
:1028500021053105D0F00196A11DB11D8093170609
:1028600090931806A0931906B0931A06B701A60113
:1028700048515C4F6F4F7F4F40930D0650930E06AB
:1028800060930F0670931006CACF409113065091C3
:102890001406609115067091160684179507A60711
:1028A000B70780F1E0910B06F0910C06309751F1DB
:1028B0001995611571058105910511F02EDD22C074
:1028C0008091170690911806A0911906B0911A06EA
:1028D000845D9E4FAF4FBF4F8093130690931406B5
:1028E000A0931506B093160681E090E020911106A2
:1028F00030911206232B11F480E090E090931206A1
:102900008093110660911706709118068091190640
:1029100090911A061F910F91FF90EF90DF90CF904A
:10292000089577DF0E94030380910A0690E08E5499
:10293000984F08956EDF0E9403038091090690E08E
:10294000089567DF0E9403038091080690E00895D0
:1029500060DF0E9403038091040690E0089559DF30
:102960000E9403038091050690E0089552DF0E94C3
:1029700003038091060690E008953F924F925F9284
:102980006F927F928F929F92AF92BF92CF92DF927F
:10299000EF92FF920F931F93CF93DF9300D01F927C
:1029A000CDB7DEB720917C0627FDA9C149835A83A4
:1029B0006B837C838C0161E080917B067ADB3090B5
:1029C0007C06832D8D7F4801A12CB12C09F0B7C066
:1029D00060E072E18AE790E0A50194010E9400287E
:1029E00029013A0169017A0121E0C21AD108E108FE
:1029F000F1088FEFC816D104E104F10409F008F4DE
:102A00004CC060E472E48FE090E0A50194010E9464
:102A1000002869017A0191E0C91AD108E108F1089A
:102A2000A2E03A1220C0BFEFCB16D104E104F104BA
:102A300009F008F462C160E970ED83E090E0A5015F
:102A400094010E94002869017A01E1E0CE1AD108C0
:102A5000E108F108FFEFCF16D104E104F10409F019
:102A6000C0F583E065C02FEFC216D104E104F10484
:102A7000B1F0A8F068E478EE81E090E0A50194015F
:102A80000E94002869017A0181E0C81AD108E10892
:102A9000F108332009F4D9C027C181E001C082E0E8
:102AA000332091F045C0D301C2012AE0B595A79526
:102AB000979587952A95D1F76C017D01E1E0CE1AB3
:102AC000D108E108F10885E095B5987F892B85BD8F
:102AD00066C068E478EE81E090E0A50194010E9470
:102AE000002869017A01B1E0CB1AD108E108F108A8
:102AF000EFEFCE16D104E104F10409F008F4A3C00D
:102B000064E274EF80E090E0A50194010E94002847
:102B100069017A0191E0C91AD108E108F108AFEF23
:102B2000CA16D104E104F10411F008F0B0C085E048
:102B30009091B100987F892B8093B10030C060E004
:102B400072E18AE790E0A50194010E9400286901E2
:102B50007A01F1E0CF1AD108E108F108C114D104DB
:102B600021E0E206F10488F068E478EE81E090E08C
:102B7000A50194010E94002869017A0181E0C81A28
:102B8000D108E108F10893E001C091E0A1E03A1218
:102B900006C080918100887F892B80938100898184
:102BA0009A81AB81BC81892B8A2B8B2B81F0D80138
:102BB000AA0FBB1F29813A814B815C810E94A62705
:102BC00028EE33E040E050E00E94DE2703C02FEF04
:102BD0003FEFA90191E03916A1F0A2E03A1619F1F0
:102BE00031108DC0C7BC2093770630937806409390
:102BF000790650937A0680916E00826080936E0011
:102C00007EC0D0928900C0928800209373063093D2
:102C10007406409375065093760680916F0082602B
:102C200080936F006CC0C092B30020936F06309306
:102C30007006409371065093720680917000826016
:102C4000809370005CC084E073CF8FEFC816D1040E
:102C5000E104F104D1F0C8F062E17AE780E090E0AD
:102C6000A50194010E94002869017A01F1E0CF1AC0
:102C7000D108E108F1082FEFC216D104E104F104F4
:102C800011F008F010CF84E01FCF83E01DCF62E188
:102C90007AE780E090E0A50194010E940028690194
:102CA0007A0191E0C91AD108E108F108AFEFCA161C
:102CB000D104E104F104B1F0A8F0D301C2014AE06B
:102CC000B595A795979587954A95D1F76C017D01A4
:102CD000E1E0CE1AD108E108F108332009F4F3CE7F
:102CE00087E026CF86E0DCCEBFEFCB16D104E1042F
:102CF000F10409F060F684E0D3CE82E019CF0F90A2
:102D00000F900F900F90DF91CF911F910F91FF9037
:102D1000EF90DF90CF90BF90AF909F908F907F907B
:102D20006F905F904F903F900895009769F0FC017D
:102D300001900020E9F73197AF01481B590BBC0106
:102D40008DE796E00C94790C80E090E008958F92E6
:102D50009F92AF92BF920F931F93CF93DF93CDB704
:102D6000DEB7A1970FB6F894DEBF0FBECDBF19A294
:102D7000423008F44AE08E010F5D1F4F842E912CE3
:102D8000A12CB12CA50194010E94DE27E62FB901E8
:102D9000CA0101501109EA3014F4E05D01C0E95C98
:102DA000D801EC93232B242B252B61F7C801BDDF21
:102DB000A1960FB6F894DEBF0FBECDBFDF91CF91C5
:102DC0001F910F91BF90AF909F908F9008950F9398
:102DD0001F93CF93DF938C01C0E0D0E0F801EC0F9C
:102DE000FD1F6491662371F0E0917D06F0917E06EF
:102DF0000190F081E02D8DE796E01995892B11F077
:102E00002196ECCFCE01DF91CF911F910F910895C4
:102E1000CF93DF93DCDFEC0186ED94E086DF8C0F4F
:102E20009D1FDF91CF910895CF92DF92EF92FF9295
:102E3000CF93DF936C01990FEE08FF08F7FE19C0DE
:102E4000E0917D06F0917E060190F081E02D6DE22B
:102E50008DE796E01995EC0166277727CB016C1971
:102E60007D098E099F094AE072DF7C01EC0EFD1E90
:102E700005C04AE0C701B6016ADF7C0186ED94E037
:102E800054DF8E0D9F1DDF91CF91FF90EF90DF906B
:102E9000CF900895CF93DF93682F70E080E090E0AB
:102EA00042E055DFEC0186ED94E03FDF8C0F9D1F83
:102EB000DF91CF910895CF93DF93FC014481558139
:102EC000608171818DE796E00E94790CEC0186EDBE
:102ED00094E02BDF8C0F9D1FDF91CF9108958F928F
:102EE0009F92AF92BF92CF92DF92EF92FF92E4D97E
:102EF0004B015C0188EEC82E83E0D82EE12CF12C2A
:102F0000DBD9DC01CB0188199909AA09BB09883EE4
:102F10009340A105B10558F021E0C21AD108E1089B
:102F2000F10888EE880E83E0981EA11CB11CC11424
:102F3000D104E104F10421F7FF90EF90DF90CF90EE
:102F4000BF90AF909F908F90089520916E069091C2
:102F50006D06213208F04AC080914A068111FCCFEB
:102F600032E030934A0631E0309349063FEF309328
:102F700048061092470620934606ADE4B6E046E2C6
:102F800056E0FA013E2F341B321718F43D9131936D
:102F9000F9CF1092250620912506990F922B909338
:102FA000250690912406913061F4109224069091A8
:102FB00025069093BB009091BC0093FDF8CF95EC53
:102FC00001C095EE9093BC0090914A069230E1F3D7
:102FD000909148069F3F79F080914806803241F0F9
:102FE00080914806803331F084E005C081E003C061
:102FF00082E001C083E010924C0610926E0610929F
:103000004B060895DF92EF92FF920F931F93CF9399
:10301000DF931F921F92CDB7DEB7F82E162F81E0F7
:1030200080934B0688E680936D0610924C061092B2
:103030006E0660E08AE197E02A8349830E943D02A0
:103040008AE0D82E4981842F6D2D0E94BF27692FD9
:1030500030E1839F600D11248AE197E00E943D02D8
:10306000812F6D2D0E94BF27692F30E1839F600D56
:1030700011248AE197E00E943D028F2D6D2D0E9460
:10308000BF27692F30E1839F600D11248AE197E00B
:103090000E943D0261E08AE197E00E943D022A81A0
:1030A000822F6D2D0E94BF27692F20E1829F600D26
:1030B00011248AE197E00E943D02802F6D2D0E942D
:1030C000BF27692F30E1839F600D11248AE197E0CB
:1030D0000E943D028E2D6D2D0E94BF27692F20E199
:1030E000829F600D11248AE197E00E943D0260E01A
:1030F0008AE197E00E943D020F900F90DF91CF91FF
:103100001F910F91FF90EF90DF901FCFCF93DF9330
:10311000CDB7DEB7CC56D1090FB6F894DEBF0FBEDF
:10312000CDBF789484B5826084BD84B5816084BD50
:1031300085B5826085BD85B5816085BD80916E0055
:10314000816080936E001092810080918100826086
:1031500080938100809181008160809381008091C3
:1031600080008160809380008091B10084608093B2
:10317000B1008091B00081608093B0008091910097
:103180008260809391008091910081608093910092
:10319000809190008160809390008091A100826076
:1031A0008093A1008091A10081608093A100809113
:1031B000A00081608093A0008091210182608093B3
:1031C0002101809121018160809321018091200162
:1031D00081608093200180917A00846080937A00DE
:1031E00080917A00826080937A0080917A00816079
:1031F00080937A0080917A00806880937A001092A0
:10320000C10061E085E00E94591060E085E00E9405
:103210002A101092DB041092DA0410924C061092DD
:103220006E0610924A0681E08093490610922406A9
:1032300061E084E10E942A1061E085E10E942A1089
:103240008091B9008E7F8093B9008091B9008D7F05
:103250008093B90088E48093B80085E48093BC0033
:10326000E0918D06F0918E0682E08083E0918906E0
:10327000F0918A061082E0918B06F0918C0680E135
:10328000808310929506E0919106F091920686E077
:103290008083E0918F06F091900680818061808329
:1032A000E0918F06F0919006808188608083E091A4
:1032B0008F06F0919006808180688083E0918F0670
:1032C000F091900680818F7D808387EC93E02DDDE7
:1032D00080E390E0A9DD81E090E00E94DF058C3082
:1032E00019F088E190E002C08CE090E09093280211
:1032F0008093270280E090E00E94DF05882321F080
:1033000081E08093080202C01092080282E090E0FF
:103310000E94DF058F3F29F41092200210921F02B5
:1033200005C090E09093200280931F0283E090E01C
:103330000E94DF058F3F29F4109222021092210291
:1033400005C090E0909322028093210284E090E0F7
:103350000E94DF058F3F29F410922402109223026D
:1033600005C090E0909324028093230286E090E0D1
:103370000E94DF058F3F29F4109226021092250249
:1033800005C090E0909326028093250287E090E0AC
:103390000E94DF058F3F19F41092670506C091E087
:1033A000811101C090E09093670561E089E00E947F
:1033B000591061E086E00E94591061E083E00E94AC
:1033C000591080910C05833008F083C092E09093EF
:1033D0007B06E82FF0E0EC5AFE4FE491E0937C0688
:1033E0008F5F80930C05E13031F1E23009F44AC07F
:1033F000E11172C014BC15BC84B5826084BD85B572
:10340000816085BD80917B0690E0FC01E954FE4F10
:10341000E491F0E0EE0FFF1FE65CFE4F2591349142
:103420003093E4042093E304FC01EF58FE4FE49151
:10343000E093E20451C010928000109281008091CC
:1034400081008860809381008091810081608093F9
:10345000810080917B0690E0FC01E954FE4FE491ED
:10346000F0E0EE0FFF1FE65CFE4F259134913093A4
:10347000E1042093E004FC01EF58FE4FE491E09357
:10348000DF042AC01092B0001092B1008091B00009
:1034900082608093B0008091B10081608093B10020
:1034A00080917B0690E0FC01E954FE4FE491F0E04E
:1034B000EE0FFF1FE65CFE4F259134913093DE0442
:1034C0002093DD04FC01EF58FE4FE491E093DC040F
:1034D00003C08FEF80937C068091000290910102DF
:1034E0000E948308909301028093000261E08AE0C9
:1034F0000E94591061E088E00E94591060E088E065
:103500000E942A101FB7F89480910D05811127C0E1
:10351000ECEEF1E08491E6EAF1E09491E82FF0E03E
:10352000EE0FFF1FE95AFE4FA591B491EC91E923EC
:1035300021F461E085E30E942A1061E085E30E94A6
:1035400059108CB580618CBD8CB580648CBD61E0F8
:1035500084E30E94591061E083E30E945910809136
:103560000D058F5F80930D051FBF8CB5837F88602D
:103570008CBD8CB58C7F81608CBD8DB581608DBD1F
:103580008CB588DC8CB586DC62E086E30E9459103D
:1035900062E088E30E94591062E087E30E945910BC
:1035A00061E082E00E94591004E110E020E030E088
:1035B00000935B0710935C0720935D0730935E07D1
:1035C0004EE150E060E070E040935F075093600789
:1035D000609361077093620780ED97E0A0E0B0E030
:1035E0008093630790936407A0936507B093660781
:1035F00000934207109343072093440730934507F5
:1036000040934607509347076093480770934907D4
:1036100080934A0790934B07A0934C07B0934D07B4
:103620000093290710932A0720932B0730932C0728
:1036300040932D0750932E0760932F077093300708
:103640008093310790933207A0933307B0933407E8
:103650008AE192E0BCDB25E030E042E050E067E741
:1036600077E0CE0101966C010E94510F22E030E01C
:1036700041E050E067E777E0CE01875B9F4F0E9413
:10368000510FBE01675B7F4FCE018D5B9F4F0E9444
:10369000350F64EE73E0CE018D5B9F4F0E94830E69
:1036A000B6010E949A0E07DCCE018D5B9F4F0E94EF
:1036B000F90ECE01875B9F4F0E94F90EC6010E9452
:1036C000F90E8FE092E0A4DB80910002909101025C
:1036D0009093FF048093FE040E9483086FEF70E0D4
:1036E00089E00E949510FBDB60E070E089E00E94B9
:1036F00095106FEF70E086E00E949510F0DB60E0BF
:1037000070E086E00E9495106FEF70E083E00E9409
:103710009510E5DB86EE93E008DB80917D079091C4
:103720007E07009711F481E897E0D601A81BB90B3A
:10373000CD017ADB62EF73E0C6010E943D0F69EFB5
:1037400073E0CE0107960E943D0F60E074E0CE0169
:103750000D960E943D0F67E074E0CE0143960E94F3
:103760003D0F6EE074E0CE0149960E943D0F65E189
:1037700074E0CE014F960E943D0F6CE174E0CE01E3
:1037800085960E943D0F63E274E0CE018B960E9405
:103790003D0F6AE274E0CE01C1960E943D0F61E3E5
:1037A00074E0CE01C7960E943D0F68ED74E0CE0133
:1037B000CD960E943D0F67E777E0CE01CD960E943F
:1037C000AB0E87E092E003DB80E090E02DDB0E940F
:1037D00081112B013C01B8EE4B0EB3E05B1E611C66
:1037E000711C1FEF24EFE22EFF24F39400E036E07B
:1037F000332E4BE3A42E4FE1B42E87E30E94021038
:10380000892B09F401E088E30E940210892B09F456
:1038100000E09BE0992E882483940E948111DC01B2
:10382000CB0184199509A609B70997010F2C000C43
:10383000440B550B281739074A075B07F8F40E9419
:1038400081112B013C01011101C01F5F1A3021F0D1
:103850001B3031F4812C04C088EBE82E8BE0F82E6D
:10386000B601319E600D711D112481E797E00E9421
:10387000AB0E81E797E01FDB0E94E1059A9491105F
:10388000CCCFC5010197F1F78110B7CF8DEF91E053
:10389000BFDA8E010D5B1F4F06501109C8010E944F
:1038A000F90E0C151D05C1F78091670581110E9465
:1038B0000D080E94790900910405109105050E94E8
:1038C00081114B015C0181E080936F05112780918C
:1038D00004059091050508171907A1F40E947909BC
:1038E0000E948111DC01CB0188199909AA09BB0941
:1038F000893B9B40A105B10550F38DE292E088DA47
:1039000010926F0560900A05F0900B057090080505
:1039100010910905809006053091070590900405E7
:1039200050910505A090020570910305B090000527
:10393000E62C072D282D492D6A2D8B2D9091010500
:103940000E942E1360E085E00E942A10282D492D48
:103950006A2D8B2D57DB61E085E00E942A10B0E6CE
:103960002B2EBAEE3B2E412C512C18EE612E13E07B
:10397000712E0E948111A20191010E94DE27672B06
:10398000682B692B29F480916F0581110C946825AF
:103990000091FE041091FF04D8018C91882309F452
:1039A00047C10E9481118090140590901505A09048
:1039B0001605B0901705DC01CB0188199909AA09F1
:1039C000BB098090100590901105A0901205B09051
:1039D000130588169906AA06BB0608F029C10E949D
:1039E00081114B015C016093140570931505809360
:1039F0001605909317051092EA041092E904C80185
:103A00006AE08C01FC01F080019640ED4F0D2091A1
:103A1000E9043091EA044A3080F4629FA001639F78
:103A2000500D1124EF2DFF0CFF0BF097E40FF51F45
:103A3000F093EA04E093E904E4CF6091E504709127
:103A4000E6048091E7049091E8042115310529F0FE
:103A5000032E000C440B550B05C02091030230E0EF
:103A600040E050E00E94002820931005309311059B
:103A700040931205509313058F2DFF0C990BAA0B41
:103A8000BB0BFC01E156F109E730F10530F4882762
:103A9000EE58FF4F8F4F0C941C2810920F050FC04B
:103AA00081E00BC083E009C085E007C086E005C067
:103AB00088E003C08AE001C08CE080930F05D80144
:103AC00011968C91833219F00F5F1F4F07C08091C0
:103AD0000F058F5F80930F050E5F1F4FF8018081E8
:103AE0008E3251F52091100530911105409112054B
:103AF00050911305AB962CAF3DAF4EAF5FAFAB9778
:103B0000CA01B90122E030E040E050E00E94002804
:103B1000AB968CAD9DADAEADBFADAB97820F931F95
:103B2000A41FB51F8093100590931105A093120553
:103B3000B09313050F5F1F4FD8018C9180538A30CB
:103B400028F480930E050F5F1F4F04C0809102027E
:103B500080930E0580910E05F80190819C3211F43E
:103B60000F5F1F4F20910F05222309F461C0409180
:103B70001005509111056091120570911305AB96D7
:103B80004CAF5DAF6EAF7FAFAB9790E004973CE07A
:103B9000389FF001399FF00D1124E20FF11DEE0F57
:103BA000FF1FE75BFD4F808191810E94BD140E9441
:103BB0008111DC01CB0188199909AA09BB09AB96CF
:103BC0002CAD3DAD4EAD5FADAB97281739074A0719
:103BD0005B0770F50E9481116093140570931505C1
:103BE000809316059093170580917C06813051F0E3
:103BF000823071F0811111C080916E008D7F8093B1
:103C00006E000BC080916F008D7F80936F0005C0A8
:103C1000809170008D7F8093700060E080917B06C2
:103C20000E942A1089E492E0F3D890E080E002C07C
:103C3000902F812F9093FE048093FF040E948111A6
:103C400000916B0510916C0520916D0530916E050A
:103C5000DC01CB01801B910BA20BB30B0697A105D6
:103C6000B10508F489C080910802811110C060E09C
:103C700070E089E00E94951060E070E086E00E94AC
:103C8000951060E070E083E00E9495106BC0809119
:103C90006705811167C000911A0510911B05C801C5
:103CA000880F991F800F911FFC01EE0FFF1FE55534
:103CB000FD4F6091090270910A0220813181620FEB
:103CC000731F70930A0260930902FC01EE0FFF1F3D
:103CD000E355FD4F20915F0530916005E080F18054
:103CE000E20EF31EF0926005E0925F05880F991FC7
:103CF000FC01E155FD4F80915D0590915E05A0802E
:103D0000B180A80EB91EB0925E05A0925D0589E053
:103D10000E949510B70186E00E949510B50183E0DE
:103D20000E94951080911805909119050196909325
:103D30001905809318058F3F910551F40F5F1F4FB0
:103D400010931B0500931A0510921905109218057F
:103D500080911A0590911B05069724F010921B057F
:103D600010921A050E94811160936B0570936C0587
:103D700080936D0590936E050091FC041091FD04F5
:103D80000115110521F080916A0581118AC1809188
:103D9000FB04811186C180912C0581110DC00E9408
:103DA0008111609328057093290580932A059093CB
:103DB0002B0581E080932C058091200581110DC099
:103DC0000E94811160931C0570931D0580931E0550
:103DD00090931F0581E0809320050E9481118090BF
:103DE000280590902905A0902A05B0902B05DC01AC
:103DF000CB0188199909AA09BB0980900402909007
:103E00000502A0900602B090070288169906AA063D
:103E1000BB06A8F50E9481116093280570932905BF
:103E200080932A0590932B05012B99F441E050E0F3
:103E30005093FD044093FC0468E873E180E090E057
:103E40006093040270930502809306029093070228
:103E50000CC01092FD041092FC04209204023092D7
:103E60000502409206025092070280916A0588235B
:103E700021F01092FD041092FC0410926A050E9439
:103E80008111009128051091290520912A05309172
:103E90002B05DC01CB01801B910BA20BB30B803DEA
:103EA0009740A105B10508F0FAC00E948111009168
:103EB0001C0510911D0520911E0530911F05DC0188
:103EC000CB01801B910BA20BB30B85369105A1058D
:103ED000B10508F4E6C00E94811160931C0570933F
:103EE0001D0580931E0590931F058091FC04909101
:103EF000FD04892B09F069C0CE01855A9F4F0E94AD
:103F00000B0C0E949114B3010E94CB27BC01CE017F
:103F1000815B9F4F0E94490A0E949A14BC01CE0106
:103F2000875B9F4F0E94490A0E94A114BC01C601F1
:103F30000E94490AB601CE018D5B9F4F0E94350F4A
:103F4000BE01675B7F4FCE018D5B9F4F0E949A0E33
:103F5000BE01615B7F4F0E949A0EBC01CE018B5A5D
:103F60009F4F0E94350FAE01455A5F4FBE016B5AFD
:103F70007F4FCE018F599F4F0E946207BE016F593C
:103F80007F4F81E797E00E94C00ECE018F599F4F6F
:103F90000E94F90ECE018B5A9F4F0E94F90ECE015E
:103FA0008D5B9F4F0E94F90EC6010E94F90ECE0153
:103FB000875B9F4F0E94F90ECE01815B9F4F0E944D
:103FC000F90ECE01855A9F4F67C00E949114B3012C
:103FD000E2D7BC01CE018B5A9F4F0E94490A0E9432
:103FE0009A14BC01CE01815B9F4F0E94490A0E9436
:103FF000A114BC01CE018D5B9F4F0E94490ABE01F6
:104000006D5B7F4FCE01875B9F4F0E94350FBE01D6
:10401000615B7F4FCE01875B9F4F0E949A0EBE016E
:104020006B5A7F4F0E949A0EBC01CE01855A9F4F5A
:104030000E94350FC6010E940B0CAE01455A5F4F1E
:10404000B601CE018F599F4F0E946207BE016F5982
:104050007F4F81E797E00E94C00ECE018F599F4F9E
:104060000E94F90EC6010E94F90ECE01855A9F4F9B
:104070000E94F90ECE01875B9F4F0E94F90ECE0180
:104080008D5B9F4F0E94F90ECE01815B9F4F0E9476
:10409000F90ECE018B5A9F4F0E94F90E02C010926A
:1040A000F1040E94E10588E597E00E94F6038FE3A2
:1040B00097E00E94F60386E297E00E94F603809163
:1040C000FB04811105C01092FA041092F90430C06B
:1040D0000E9481110091F5041091F6042091F704DB
:1040E0003091F804DC01CB01801B910BA20BB30BC8
:1040F00081369A4EA105B105D8F01092FB04E091EB
:10410000FC04F091FD04EE0FFF1FE45DFC4F808185
:1041100091819093FD048093FC04880F991FFC010A
:10412000E25FFC4F808191819093FA048093F904BF
:104130008091580790915907181619060CF051C133
:1041400081E080936A051092FF041092FE0444E619
:1041500050E060E070E088EE93E00E94BD140E94A1
:1041600081116093F5047093F6048093F7049093A3
:10417000F8048091FC049091FD040196843091052F
:1041800029F09093FD048093FC0404C01092FD0478
:104190001092FC0486E792E00E94E7168091FC04EE
:1041A0009091FD040E9414178FE692E00E94E7169A
:1041B000E091FC04F091FD04EE0FFF1FE55FFD4F61
:1041C000808191810E9414172091FC043091FD049C
:1041D000F901EE0FFF1FE25FFC4F80819181909308
:1041E000FA048093F90421503109F901EE0FFF1F01
:1041F000E051FD4F408151814115510509F4E0C066
:10420000CA010197FC01EE0FFF1FEE52FD4F6081C6
:1042100071816217730709F0D3C04230510569F507
:1042200028E1E1E3F2E0D60101900D922A95E1F751
:1042300020911D0230911E0223703327232B21F47D
:104240002DE130E03C832B832091190230911A023A
:10425000E0911B02F0911C023197EE0FFF1FEC0D55
:10426000FD1D40815181421753073CF487E090E0E7
:104270009093FD048093FC0427C41092FB04909358
:10428000FD048093FC04892BB9F40E9491147C01F5
:104290000E949A148C010E94A1149C014091170263
:1042A00050911802609115027091160280911302CC
:1042B000909114020E942E138091FC049091FD04B1
:1042C000019741F5E0901D02F0901E0230E3E31AE1
:1042D00038EFF30A00911B0210911C022091190281
:1042E00030911A02AD962FAFAD97AC963FAFAC9719
:1042F0000E94A8144C010E94AF145C010E94B614E5
:10430000AD962FADAD97AC963FADAC97A401B5017E
:104310000E942E138091FC049091FD040297C1F439
:1043200060911F0282E090E00E94DD056091210211
:1043300083E090E00E94DD056091230284E090E03C
:104340000E94DD056091250286E090E00E94DD0577
:104350008091FC049091FD04039731F46091270251
:1043600081E090E00E94DD0560E085E00E942A1077
:104370000E9491147C010E949A14082F0E94A1149B
:10438000AD968FAFAD970E94A814AC968FAFAC9747
:104390000E94AF14182F0E94B614382FC701B30122
:1043A000FAD5E82EAD962FADAD97AC964FADAC9744
:1043B000612F832F0E94021861E085E00E942A107D
:1043C0000091FC041091FD048091F9049091FA048D
:1043D0000E941409000F111FF801E55FFD4F918342
:1043E0008083809158079091590797FF90C044E6C9
:1043F00050E060E070E088EE93E00E94BD14809190
:10440000FB04811151C00E9481116093F5047093E7
:10441000F6048093F7049093F8048091FC04909143
:10442000FD04892B09F040C00E94A814BC01C601FC
:104430000E94490A0E94AF14BC01CE018D5B9F4FC0
:104440000E94490A0E94B614BC01CE01815B9F4FB5
:104450000E94490ABE01615B7F4FCE01875B9F4F7F
:104460000E94350FBE016D5B7F4FCE01875B9F4F72
:104470000E949A0EB6010E949A0EBC0181E797E055
:104480000E94AB0ECE01875B9F4F0E94F90ECE01BA
:10449000815B9F4F0E94F90ECE018D5B9F4F0E9462
:1044A000F90EC6010E94F90EE091FC04F091FD04A2
:1044B000EE0FFF1FE45DFC4F808191819093FD041E
:1044C0008093FC048A30910549F441E050E0509318
:1044D00026024093250220E82093F4043091FB0447
:1044E00021E023272093FB048C01000F111FF8010A
:1044F000E25FFC4F808191819093FA048093F904EC
:104500000E941409F801E55FFD4F9183808380913B
:104510003F0790914007009719F1909369058093A8
:10452000680518161906E4F481E080936A05109274
:10453000FF041092FE0444E650E060E070E088EE74
:1045400093E00E94BD140E94950B8091FB048111A1
:1045500007C01092670560E087E090E00E94DD05EB
:104560008091680590916905019661F580914107F8
:10457000882341F11092F3048091FB04882329F1F0
:104580000E948111009163051091640520916505D9
:1045900030916605DC01CB01801B910BA20BB30BA4
:1045A00087399105A105B10580F00E9481116093C2
:1045B00063057093640580936505909366050E947A
:1045C000950B03C081E08093F304809126079091BE
:1045D00027070097A9F1909362058093610518164B
:1045E000190674F511E010936A051092FF041092F9
:1045F000FE0444E650E060E070E088EE93E00E9444
:10460000BD140E941F0B8091FB04811119C01093EF
:10461000670561E087E090E00E94DD056091090296
:1046200088E090E00E94DD0560915F0589E090E000
:104630000E94DD0560915D058AE090E00E94DD0545
:104640008091610590916205019661F5809128073E
:10465000882341F11092F2048091FB04882329F110
:104660000E9481110091590510915A0520915B0516
:1046700030915C05DC01CB01801B910BA20BB30BCD
:1046800087399105A105B10580F00E9481116093E1
:10469000590570935A0580935B0590935C050E94C1
:1046A0001F0B03C081E08093F2048091FB04811111
:1046B00035C080913F079091400797FF16C044E6B0
:1046C00050E060E070E088EE93E00E94BD1481E06D
:1046D0008093080261E080E090E00E94DD0588E6BA
:1046E00092E00E9408170E940D0880912607909181
:1046F000270797FF13C044E650E060E070E088EEC3
:1047000093E00E94BD141092080260E080E090E007
:104710000E94DD0580E692E00E9408178091FC046B
:104720009091FD048130910509F4A6C01CF4892BF9
:1047300079F1CAC18230910509F475C1039709F076
:10474000C3C160912702709128024AE0C6010E940D
:10475000FE0E66EF73E0CE018D5B9F4F0E943D0F12
:10476000B601CE018D5B9F4F0E949A0E66EF73E0FB
:104770000E94830EBC0181E797E00E94AB0ECE0140
:104780008D5B9F4F0E94F90EC6010E94F90E98C1E1
:104790008091F104811134C00E948111009134058F
:1047A000109135052091360530913705DC01CB019C
:1047B000801B910BA20BB30B0B97A105B10578F0F1
:1047C0000E948111609334057093350580933605FE
:1047D00090933705CE0101960E940B0C06C061E74D
:1047E00077E0CE0101960E94350FBE016F5F7F4FCB
:1047F00081E797E00E94C00ECE0101960E94F90E5B
:1048000080913D0581110DC00E9481116093390591
:1048100070933A0580933B0590933C0581E080932B
:104820003D050E9481110091390510913A052091B2
:104830003B0530913C05DC01CB01801B910BA20BA9
:10484000B30B893E9340A105B10508F43BC10E941A
:1048500081116093390570933A0580933B059093DD
:104860003C059091380581E089278093380588239D
:1048700009F426C180EC21C18091F1048111D1C0DD
:104880008091510581110DC00E94811160934D05E9
:1048900070934E0580934F059093500581E080936F
:1048A000510580914505811145C00E949114B301C5
:1048B00072D3BC01C6010E94490A0E949A14BC012D
:1048C000CE018D5B9F4F0E94490A0E94A114BC013A
:1048D000CE01815B9F4F0E94490ABE01615B7F4F01
:1048E000CE01875B9F4F0E94350FBE016D5B7F4FEE
:1048F000CE01875B9F4F0E949A0EB6010E949A0ECE
:10490000BC018BEE94E00E94350F81E08093450559
:10491000CE01875B9F4F0E94F90ECE01815B9F4FB6
:104920000E94F90ECE018D5B9F4F0E94F90EC601C9
:104930000E94F90E0E94811100914D0510914E05C3
:1049400020914F0530915005DC01CB01801B910B6C
:10495000A20BB30B893E9340A105B10508F450C0EA
:104960000E94811160934D0570934E0580934F0511
:10497000909350050E949114B3010DD3BC01CE0158
:1049800001960E94490A0E949A14BC01CE018D5BD7
:104990009F4F0E94490A0E94A114BC01CE01815B75
:1049A0009F4F0E94490ABE01615B7F4FCE01875B2A
:1049B0009F4F0E94350FBE016D5B7F4FCE01875B1D
:1049C0009F4F0E949A0EBE016F5F7F4F0E949A0E0A
:1049D000BC018BEE94E00E94AB0ECE01875B9F4F33
:1049E0000E94F90ECE01815B9F4F0E94F90ECE010D
:1049F0008D5B9F4F0E94F90ECE0101960E94F90E29
:104A00006BEE74E0CE0101960E94350FBE016F5F20
:104A10007F4F81E797E00E94C00ECE0101960E9471
:104A2000F90E80E44AC06091230270912402C6010D
:104A30000E94490A6091210270912202CE018D5B91
:104A40009F4F0E94490A60911F0270912002CE017F
:104A5000815B9F4F0E94490ABE01615B7F4FCE017F
:104A6000875B9F4F0E94350FBE016D5B7F4FCE016C
:104A7000875B9F4F0E949A0EB6010E949A0EBC015E
:104A800081E797E00E94AB0ECE01875B9F4F0E94AB
:104A9000F90ECE01815B9F4F0E94F90ECE018D5B16
:104AA0009F4F0E94F90EC6010E94F90E80912502C7
:104AB00090912602019721F480E88093F40402C0CB
:104AC0001092F4040E9422080E94630D0C94B91CF9
:104AD0000E947909E0900A05F0900B050091080505
:104AE00010910905209106053091070540910405B4
:104AF00050910505609102057091030580910005B4
:104B0000909101050E942E1384E892E00E940817FC
:104B10000C94C81C81E797E00E94F90E87E797E0A4
:104B20000C94F90EEDE7F6E01382128288EE93E022
:104B3000A0E0B0E084839583A683B7832BEA33E0BB
:104B40003183208325EC30E03587248724EC30E066
:104B50003787268720EC30E0318B208B21EC30E04A
:104B6000338B228B22EC30E0358B248B26EC30E02B
:104B7000378B268B118E128E138E148EEAE1F7E09E
:104B80001382128284839583A683B7838BEB93E091
:104B9000918380836FEC74E087E797E00E943D0F7C
:104BA00062EF73E081E797E00E943D0F21E040E073
:104BB00066E388E597E00E94610421E040E068E355
:104BC0008FE397E00E94610421E040E067E386E222
:104BD00097E00C946104CF93DF938230910510F439
:104BE00082E090E0E0917F07F091800720E030E0E4
:104BF000C0E0D0E0309711F140815181481759074A
:104C0000C0F04817590761F482819381209719F009
:104C10009B838A832BC09093800780937F0726C055
:104C20002115310519F04217530718F49A01BE01F6
:104C3000DF01EF010280F381E02DDCCF211531058A
:104C400009F1281B390B2430310590F412968D910F
:104C50009C9113976115710521F0FB019383828369
:104C600004C09093800780937F07FD01329644C073
:104C7000FD01E20FF31F81939193225031092D938F
:104C80003C933AC020917D0730917E07232B41F45D
:104C900020912D0230912E0230937E0720937D07C4
:104CA00020912B0230912C022115310541F42DB7B2
:104CB0003EB740912F0250913002241B350BE091FA
:104CC0007D07F0917E07E217F307A0F42E1B3F0B40
:104CD0002817390778F0AC014E5F5F4F241735076E
:104CE00048F04E0F5F1F50937E0740937D078193DE
:104CF000919302C0E0E0F0E0CF01DF91CF91089501
:104D00000F931F93CF93DF93009709F48CC0FC019E
:104D100032971382128200917F071091800701154C
:104D2000110581F420813181820F931F20917D072D
:104D300030917E072817390779F5F0937E07E093C5
:104D40007D0771C0D80140E050E0AE17BF0750F4B6
:104D500012962D913C911397AD012115310509F162
:104D6000D901F3CF9D01DA01338322836081718100
:104D7000860F971F8217930769F4EC012881398108
:104D8000260F371F2E5F3F4F318320838A819B81FF
:104D900093838283452B29F4F0938007E0937F0768
:104DA00042C01396FC93EE931297ED0149915991ED
:104DB0009E01240F351FE217F30771F48081918162
:104DC000840F951F029611969C938E9382819381F6
:104DD00013969C938E931297E0E0F0E0D801129620
:104DE0008D919C911397009719F0F8018C01F6CFE3
:104DF0008D919C9198012E5F3F4F820F931F2091C0
:104E00007D0730917E072817390769F4309729F418
:104E10001092800710927F0702C0138212821093B3
:104E20007E0700937D07DF91CF911F910F91089529
:104E30001F93FC0199278827BC01E8941191103237
:104E4000E9F3193010F01E30C8F31B3249F01D325F
:104E500041F4689405C026D0610F711D811D911D1C
:104E6000119110531A30B8F33EF4909580957095D7
:104E700061957F4F8F4F9F4F1F9108954532510588
:104E800018F4423008F004C0FB011082CB010895F1
:104E9000BB274A3031F4992322F4BDE290958195E5
:104EA0009F4F16C0592F482F372F262F660F771F79
:104EB000881F991F660F771F881F991F620F731F26
:104EC000841F951F660F771F881F991F0895BB27A2
:104ED000FB015527AA27880F991FAA1FA41710F0B6
:104EE000A41B83955051B9F7A05DAA3308F0A95DC2
:104EF000A193009779F7B111B1931192CB0100C042
:104F0000DC01FC01672F71917723E1F7329704C030
:104F10007C916D9370836291AE17BF07C8F30895BB
:104F2000F999FECF92BD81BDF89A992780B5089571
:104F3000262FF999FECF1FBA92BD81BD20BD0FB6B5
:104F4000F894FA9AF99A0FBE0196089509D0A59F90
:104F5000900DB49F900DA49F800D911D1124089574
:104F6000A29FB001B39FC001A39F700D811D1124AA
:104F7000911DB29F700D811D1124911D0895991BE3
:104F800079E004C0991F961708F0961B881F7A9540
:104F9000C9F78095089597FB072E16F4009406D064
:104FA00077FD08D057D007FC05D03EF49095819549
:104FB0009F4F0895709561957F4F0895A1E21A2E35
:104FC000AA1BBB1BFD010DC0AA1FBB1FEE1FFF1FAD
:104FD000A217B307E407F50720F0A21BB30BE40BFD
:104FE000F50B661F771F881F991F1A9469F7609544
:104FF0007095809590959B01AC01BD01CF010895FE
:10500000052E97FB16F400940FD057FD05D0D6DF80
:1050100007FC02D046F408C0509540953095219584
:105020003F4F4F4F5F4F08959095809570956195D4
:105030007F4F8F4F9F4F0895EE0FFF1F881F8BBF2D
:105040000790F691E02D1994B7FF80CF7FDF821B88
:10505000930B0895AA1BBB1B51E107C0AA1FBB1FDE
:10506000A617B70710F0A61BB70B881F991F5A95F4
:10507000A9F780959095BC01CD0108956F927F921C
:105080008F929F92AF92BF92CF92DF92EF92FF9258
:105090000F931F93CF93DF93EC01009781F4CB0123
:1050A000DF91CF911F910F91FF90EF90DF90CF9004
:1050B000BF90AF909F908F907F906F908CCDFC01B0
:1050C000E60FF71F9C0122503109E217F30708F49D
:1050D000A8C0D9010D911C91119706171707A8F0C8
:1050E0000530110508F49BC0C8010497861797077F
:1050F00008F495C002501109061B170B0193119378
:105100006D937C93CF01FCDD8AC05B01A01AB10ACC
:105110004C01800E911EA0917F07B091800740E066
:1051200050E0E12CF12C109709F44AC0A815B905FC
:10513000D1F56D907C901197630182E0C80ED11C6F
:10514000CA14DB0480F1A3014A195B096A0182E0F9
:10515000C80ED11C1296BC9012971396AC91B5E074
:10516000CB16D10440F0B282A38351834083D9018E
:105170006D937C930AC00E5F1F4FC301800F911F78
:10518000F90191838083EB2DFA2FE114F10431F0C2
:10519000D7011396FC93EE93129741C0F0938007CA
:1051A000E0937F073CC08D919C9111974817590758
:1051B00008F4AC017D0112960D90BC91A02DB3CFE7
:1051C00080917D0790917E0788159905E1F4461737
:1051D0005707C8F480912B0290912C02009741F45C
:1051E0008DB79EB740912F0250913002841B950BD2
:1051F000E817F907B0F4F0937E07E0937D07F90113
:10520000718360830CC0CB01E6DC7C01009749F020
:10521000A801BE011BD0CE0173DDC70104C0CE01C1
:1052200002C080E090E0DF91CF911F910F91FF903D
:10523000EF90DF90CF90BF90AF909F908F907F9036
:105240006F90089581E090E0F89410C0FB01DC01BC
:1052500002C001900D9241505040D8F70895FB01D3
:10526000DC0101900D920020E1F7089511E0CDE7F7
:10527000D1E000E005C0802FFE01DEDE2196011D99
:0E528000CE37D10780E00807B1F7F894FFCFD2
:10528E003804060460EA000001FF00000000000080
:10529E000000000000000000000000000000000000
:1052AE000000000000000018003F00000081078091
:1052BE00001F001C001F001E001F001E001F001FED
:1052CE00001E001F001E001F000000060115012613
:1052DE000137014A015D01720188019F01B801D2B7
:1052EE0001EE010B022A024B026E029302BA02E495
:1052FE000210033F037003A403DC03170455049745
:10530E0004DD0427057505C80520067D06E006495F
:10531E0007B8072D08A9082D09B9094D0AEA0A9000
:10532E000B400CFA0CC00D910E6F0F000000000127
:10533E0000FFFF0000000000000100000000000060
:10534E0000FFFF0100000000000000FFFF00000A48
:10535E000908060009000D000E0000000000000004
:10536E00000000000000000000000000000000002F
:10537E00000000000000000001000100010002001A
:10538E0002000200030003000300030004000000FB
:10539E0000000000000003000C00300003000C00B1
:1053AE00300003000C003000C0000C0004000700A9
:1053BE000A000E00000000000000000000000000C7
:1053CE0000000000000000000000000000000000CF
:1053DE00000017003B003B001F000C00630017008D
:1053EE003B003B00010018000000000000000C0014
:1053FE00000000000000010001000000000000009D
:10540E00000000000C000100020004000800100063
:10541E00200040008000000100021F1C1F1E1F1EE6
:10542E001F1F1E1F1E1F0000000000FC0C790CC663
:10543E000CA40CB80C420D000000003D020E02063A
:10544E0002F201E301E201626C696E6B50617474E9
:10545E0065726E5B4461746559656172496E64650F
:10546E00785D3D002E00467265652072616D203DAF
:10547E0020003030303030300031313131313100B8
:10548E003232323232320033333333333300343448
:10549E003434343400353535353535003636363618
:1054AE0036360037373737373700383838383838E8
:1054BE00003939393939390050696E6B50616E7463
:1054CE006865723A643D342C6F3D352C623D313641
:1054DE00303A3864232C38652C32702C3866232CE5
:1054EE0038672C32702C3864232C38652C3136708A
:1054FE002C3866232C38672C3136702C3863362CBA
:10550E0038622C3136702C3864232C38652C3136A9
:10551E00702C38622C3261232C32702C3136612C77
:10552E003136672C3136652C3136642C3265006489
:10553E006F776E56616C75653D00646F7450617463
:10554E007465726E3D00757056616C75653D003008
:0A555E003130333230000D0A000036
:00000001FF
