:100000000C94A8000C94D0000C94D0000C94D00058
:100010000C94D0000C94D0000C94D0000C94970554
:100020000C94D0000C94D0000C94D0000C94F205E9
:100030000C94D0000C94D0000C9457060C94D00073
:100040000C944D050C94D0000C94CF030C94A90390
:100050000C94D0000C94D0000C94D0000C94D000E0
:100060000C94410B0C94D000CC1AD01ABE1AC01AB2
:10007000C41AC61AC81A00000000240027002A006B
:10008000010204081020408001020408102001022F
:100090000408102000000000250028002B000404A4
:1000A0000404040404040202020202020303030320
:1000B000030302010053746F70205465737400547D
:1000C000656D70203D200053746172742054657317
:1000D00074004669726D7761726520766572736926
:1000E0006F6E3A2000496E636F72726563742053BD
:1000F0006F6E6720466F726D617421005247423DFA
:100100006F6666005247423D6F6E0076616C7565A2
:100110003D006D656E75506F736974696F6E3D005B
:100120000000000023002600290000000008000253
:1001300001000003040700000000000000005761F8
:100140006B652075702C204E656F2100EE20E62037
:1001500011241FBECFEFD8E0DEBFCDBF13E0A0E07B
:10016000B1E0EAEFF9E402C005900D92AA38B107B8
:10017000D9F725E0AAE8B3E001C01D92AE3EB20770
:10018000E1F710E0C7EAD0E004C02197FE010E9429
:10019000B823C63AD107C9F70E9466150C94F0241B
:1001A0000C9400000895CF92DF92EF92FF920F938C
:1001B0001F93CF93DF936C017A018B01C0E0D0E0F5
:1001C000CE15DF0589F0D8016D918D01D601ED9135
:1001D000FC910190F081E02DC6010995892B11F465
:1001E0007E0102C02196ECCFC701DF91CF911F9114
:1001F0000F91FF90EF90DF90CF900895FC01918DCB
:10020000828D981761F0828DDF01A80FB11D5D9678
:100210008C91928D9F5F9F73928F90E008958FEFE6
:100220009FEF0895FC01918D828D981731F0828D9A
:10023000E80FF11D858D90E008958FEF9FEF0895F1
:10024000FC01918D228D892F90E0805C9F4F821B55
:1002500091098F73992708958AEE94E00E942001F6
:1002600021E0892B09F420E0822F0895FC01848D80
:10027000DF01A80FB11DA35ABF4F2C91848D90E0D0
:1002800001968F739927848FA689B7892C93A089AB
:10029000B1898C9180648C93938D848D981306C062
:1002A0000288F389E02D80818F7D80830895EF920D
:1002B000FF920F931F93CF93DF93EC0181E0888F20
:1002C0009B8D8C8D981305C0E889F989808185FD07
:1002D00024C0F62E0B8D10E00F5F1F4F0F731127F8
:1002E000E02E8C8DE8120CC00FB607FCFACFE8891F
:1002F000F989808185FFF5CFCE010E943601F1CFCB
:100300008B8DFE01E80FF11DE35AFF4FF0820B8F3A
:10031000EA89FB898081806207C0EE89FF8960835A
:10032000E889F98980818064808381E090E0DF91B1
:10033000CF911F910F91FF90EF900895CF93DF938E
:10034000EC01888D8823C9F0EA89FB89808185FDCD
:1003500005C0A889B9898C9186FD0FC00FB607FC2E
:10036000F5CF808185FFF2CFA889B9898C9185FF6F
:10037000EDCFCE010E943601E7CFDF91CF910895F6
:1003800080E090E0892B29F00E942C0181110C94CF
:1003900000000895833081F028F4813099F0823094
:1003A000A1F008958730A9F08830B9F08430D1F4F5
:1003B000809180008F7D03C0809180008F77809333
:1003C0008000089584B58F7702C084B58F7D84BD89
:1003D00008958091B0008F7703C08091B0008F7D29
:1003E0008093B00008950E94DB24CF93DF93EC014B
:1003F00088819981009711F00E94DC21198218826E
:100400001D821C821B821A82DF91CF9108950F9367
:100410001F93CF93DF93EC0188819981009729F096
:100420002A813B812617370788F48B016F5F7F4F46
:100430000E941124009761F0998388831B830A83AB
:100440002C813D81232B11F4FC01108281E001C03D
:1004500080E0DF91CF911F910F910895EF92FF926D
:100460000F931F93CF93DF93FC0124813581611596
:10047000710511F480E019C041155105A9F07B0107
:10048000EC018A01020F131FB8010E9407028823A2
:1004900089F3288139818C819D81B701820F931F57
:1004A0000E94E9241D830C8381E0DF91CF911F918D
:1004B0000F91FF90EF900895EF92FF920F931F938B
:1004C000CF93DF93EC017B018A01BA010E940702FE
:1004D000811104C0CE010E94F50107C01D830C8369
:1004E000B701888199810E94E924CE01DF91CF91E3
:1004F0001F910F91FF90EF900895CF93DF93EC0140
:100500006115710561F0FB0101900020E9F7319759
:10051000AF01461B570B0E942E02811103C0CE0172
:100520000E94F501CE01DF91CF910895CF93DF9323
:10053000EC01FB0144815581608171810E942E0292
:10054000811103C0CE010E94F501CE01DF91CF9150
:100550000895CF93DF93EC01FB018617970761F0B5
:10056000608171816115710529F0448155810E9476
:100570005C0202C00E94F501CE01DF91CF91089587
:100580000F931F93CF93DF938C01EB01FC018081CC
:1005900091810097B1F0688179816115710579F0D9
:1005A000428153812C813D814217530740F00E94C4
:1005B000E9248C819D81F8019583848313C00E9476
:1005C000DC2188819981F801918380838A819B81D4
:1005D000938382838C819D81958384831982188281
:1005E0001B821A821D821C82DF91CF911F910F9175
:1005F0000895FC01808191810C94DC21EF92FF929F
:100600000F931F93CF93DF93CDB7DEB762970FB6EB
:10061000F894DEBF0FBECDBF8C01CB01F801118273
:100620001082138212821582148250E09E012F5F85
:100630003F4F7901B9010E949B22F70101900020F0
:10064000E9F73197AF014E195F09B701C8010E9460
:100650005C0262960FB6F894DEBF0FBECDBFDF918D
:10066000CF911F910F91FF90EF900895FC0111829F
:10067000108213821282158214820C94A902FC014A
:100680001182108213821282158214826115710503
:1006900051F0FB0101900020E9F73197AF01461BB3
:1006A000570B0C945C020895BF92CF92DF92EF92A9
:1006B000FF920F931F93CF93DF937C016B01EA01AD
:1006C00089012417350720F48D2FE901042F182FF5
:1006D00066EB72E0C7010E943F03D60114968D912C
:1006E0009C911597C817D90748F58017910708F40A
:1006F0008C01D601ED91FC911197E00FF11FB080B4
:1007000010824D915C91BA016C0F7D1F61157105CE
:1007100061F0FB0101900020E9F73197AF01461B22
:10072000570BC7010E945C0203C0C7010E94F5017C
:10073000D601ED91FC91E00FF11FB082C701DF916E
:10074000CF911F910F91FF90EF90DF90CF90BF90CE
:1007500008951F920F920FB60F9211242F933F937B
:100760004F935F936F937F938F939F93AF93BF93B9
:10077000EF93FF938AEE94E00E943601FF91EF9190
:10078000BF91AF919F918F917F916F915F914F91A9
:100790003F912F910F900FBE0F901F9018951F92B1
:1007A0000F920FB60F9211242F938F939F93EF9375
:1007B000FF93E091FA04F091FB048081E091000541
:1007C000F091010582FD12C09081809103058F5F39
:1007D0008F7320910405821751F0E0910305F0E03A
:1007E000E651FB4F958F8093030501C08081FF91F7
:1007F000EF919F918F912F910F900FBE0F901F90AF
:100800001895CF93DF93282F30E0F901E65DFE4F76
:100810008491F901E058FF4FD491F901E256FF4F5E
:10082000C491CC2391F081110E94CA01EC2FF0E019
:10083000EE0FFF1FE05EFE4FA591B491EC91ED230A
:1008400081E090E021F480E002C080E090E0DF9160
:10085000CF9108951F93CF93DF93282F30E0F901B4
:10086000E65DFE4F8491F901E058FF4FD491F90104
:10087000E256FF4FC491CC23C9F0162F81110E947C
:10088000CA01EC2FF0E0EE0FFF1FEC56FF4FA591D1
:10089000B4918FB7F894111105C09C91ED2FE0959C
:1008A000E92302C0EC91ED2BEC938FBFDF91CF9148
:1008B0001F910895CF93DF9390E0FC01E058FF4F24
:1008C0002491FC01E256FF4F8491882361F190E06E
:1008D000880F991FFC01EA58FF4FC591D491FC0184
:1008E000EC56FF4FA591B491611109C09FB7F894E0
:1008F0008881209582238883EC912E230BC062305F
:1009000061F49FB7F8943881822F80958323888380
:10091000EC912E2B2C939FBF06C08FB7F894E881E3
:100920002E2B28838FBFDF91CF9108951F93CF93F4
:10093000DF93182FEB0161E00E945A04209711F415
:1009400060E004C0CF3FD10539F461E0812FDF9131
:10095000CF911F910C942A04E12FF0E0E65DFE4F49
:10096000E491E330F9F048F4E130B9F0E230A1F578
:1009700084B5806284BDC8BD34C0E730E9F0E8309A
:1009800019F1E43049F58091800080628093800005
:10099000D0938B00C0938A0024C084B5806884BD46
:1009A000C7BD1FC080918000806880938000D09375
:1009B0008900C093880015C08091B0008068809342
:1009C000B000C093B3000DC08091B00080628093EE
:1009D000B000C093B40005C0C038D1050CF0B5CF4D
:1009E000AFCFDF91CF911F9108953FB7F8948091D9
:1009F0002C0490912D04A0912E04B0912F0426B5C3
:100A0000A89B05C02F3F19F00196A11DB11D3FBF46
:100A1000BA2FA92F982F8827820F911DA11DB11DD4
:100A2000BC01CD0142E0660F771F881F991F4A95D0
:100A3000D1F708952FB7F894609128047091290494
:100A400080912A0490912B042FBF08956093230472
:100A5000709324048093250490932604DC01CB0139
:100A6000845D9E4FAF4FBF4F80931F04909320042F
:100A7000A0932104B093220482E090E090931E049E
:100A800080931D040E941A056093190470931A0440
:100A900080931B0490931C0408951F920F920FB62D
:100AA0000F9211242F933F938F939F93AF93BF93F4
:100AB0008091280490912904A0912A04B0912B04DC
:100AC0003091270423E0230F2D3720F40196A11D38
:100AD000B11D05C026E8230F0296A11DB11D20936C
:100AE00027048093280490932904A0932A04B093A8
:100AF0002B0480912C0490912D04A0912E04B09190
:100B00002F040196A11DB11D80932C0490932D04F8
:100B1000A0932E04B0932F04BF91AF919F918F911A
:100B20003F912F910F900FBE0F901F9018951F921D
:100B30000F920FB60F9211242F933F934F935F9311
:100B40006F937F938F939F93EF93FF934091DC0478
:100B50005091DD046091DE047091DF044115510570
:100B60006105710599F080918A03E0918B03F09102
:100B70008C039081892780831416150616061706A4
:100B8000D4F4415051096109710915C08091700078
:100B90008D7F8093700090918A03E0918B03F09198
:100BA0008C038081282F30E0892F90E080959095EC
:100BB0008223932380834093DC045093DD0460936D
:100BC000DE047093DF04FF91EF919F918F917F91ED
:100BD0006F915F914F913F912F910F900FBE0F90AA
:100BE0001F9018951F920F920FB60F9211242F93FA
:100BF0003F938F939F93AF93BF93EF93FF93809116
:100C0000E0049091E104A091E204B091E304892B07
:100C10008A2B8B2B51F180918D03E0918E03F09103
:100C20008F039081892780838091E0049091E10473
:100C3000A091E204B091E304181619061A061B06E7
:100C40004CF58091E0049091E104A091E204B09110
:100C5000E3040197A109B1098093E0049093E104B2
:100C6000A093E204B093E30415C080916F008D7FE0
:100C700080936F0090918D03E0918E03F0918F032C
:100C80008081282F30E0892F90E0809590958223F5
:100C900093238083FF91EF91BF91AF919F918F91AB
:100CA0003F912F910F900FBE0F901F9018951F929C
:100CB0000F920FB60F9211242F933F938F939F9310
:100CC000AF93BF93EF93FF938091E4049091E50479
:100CD000A091E604B091E704892B8A2B8B2B51F16C
:100CE00080919003E0919103F09192039081892784
:100CF00080838091E4049091E504A091E604B09192
:100D0000E704181619061A061B064CF58091E40430
:100D10009091E504A091E604B091E7040197A10940
:100D2000B1098093E4049093E504A093E604B093A2
:100D3000E70415C080916E008D7F80936E009091C6
:100D40009003E0919103F09192038081282F30E08D
:100D5000892F90E080959095822393238083FF9143
:100D6000EF91BF91AF919F918F913F912F910F90F4
:100D70000FBE0F901F9018953F924F925F926F9207
:100D80007F928F929F92AF92BF92CF92DF92EF921B
:100D9000FF920F931F93CF93DF93382E962E842EBE
:100DA000F90184E6E816F1042CF082EBE81A87E0FA
:100DB000F80A03C08EE1E80EF11CE092C103009333
:100DC000C003E093BF033092BD039092BC038092B6
:100DD000BB03AE2DB0E020E833E341EE51E00E94CA
:100DE00006232B013C0122EB37E0FF2484E6C82ECA
:100DF000D12CC0E9D1E0C901825B97408E159F05D7
:100E0000DCF4C90183709927892B99F4C901B601D3
:100E10000E946323892B31F4C901BE010E94632320
:100E2000892B39F480E8480E81E5581E81E0681E60
:100E3000711C2F5F3F4FDFCF8EE4E81A88EFF80A6E
:100E4000C70164E670E00E9463236C01C70160E99A
:100E500071E00E9463235C01C1E0D0E0112783E0D0
:100E6000E822FF24C017D1072CF5C230D10589F440
:100E7000E114F10471F4C114D10419F4A114B10402
:100E800041F480E8480E8BE3581E86E2681E711C10
:100E90000FC0DE01AA5CBD4FAC91B0E020E831E5A7
:100EA00041E050E00E940623460E571E681E791E40
:100EB0002196D8CF292D30E0ACE3B0E00E94482342
:100EC0006B017C01C80CD11CE11CF11C232D30E00E
:100ED000A0E1BEE00E944823C60ED71EE81EF91E00
:100EE000DF01BB27119720E831E541E050E00E9487
:100EF000BE23DC01CB018C0D9D1DAE1DBF1DBC01B1
:100F0000CD01640D751D861D971DDF91CF911F9139
:100F10000F91FF90EF90DF90CF90BF90AF909F9098
:100F20008F907F906F905F904F903F900C9426052C
:100F3000CF92DF92EF92FF920F931F930E941A05B8
:100F4000C0901904D0901A04E0901B04F0901C0487
:100F50008B019C010C191D092E093F098091230466
:100F600090912404A0912504B0912604083E1340DA
:100F700021053105D0F00196A11DB11D80932304F8
:100F800090932404A0932504B0932604B701A601EE
:100F900048515C4F6F4F7F4F4093190450931A0490
:100FA00060931B0470931C04C9CF40911F0450919F
:100FB0002004609121047091220484179507A607EC
:100FC000B70788F1E0911704F0911804309759F1B0
:100FD0000995611571058105910519F00E94260595
:100FE00022C08091230490912404A0912504B09103
:100FF0002604845D9E4FAF4FBF4F80931F04909394
:101000002004A0932104B093220481E090E0209179
:101010001D0430911E04232B11F480E090E0909386
:101020001E0480931D046091230470912404809118
:101030002504909126041F910F91FF90EF90DF906F
:10104000CF9008954F925F926F927F928F929F926E
:10105000AF92BF92CF92DF92EF92FF920F931F93C6
:10106000CF93DF934B015C018091130490911404A2
:10107000A0911504B091160488169906AA06BB061D
:1010800009F4C2C08CE3C82ED12CE12CF12CC5018F
:10109000B401A70196010E9477236093BB03CA01A4
:1010A000B901A70196010E9477236093BC03CA018E
:1010B000B90128E130E040E050E00E947723690167
:1010C0007A016093BD03CA01B9016C5F7F4F8F4FF6
:1010D0009F4F27E030E040E050E00E9477236F5FB1
:1010E0006093BE03412C512C320140E004E610E035
:1010F000C0E9D1E0242F30E02E54384FF901E370DD
:10110000FF27309789F4C901B8010E946323892B16
:1011100031F4C901BE010E946323892B29F48EE6B4
:1011200091E0A0E0B0E004C08DE691E0A0E0B0E086
:10113000480E591E6A1E7B1ED301C201AA27BB2777
:10114000C816D906EA06FB0610F04F5FD3CF4093CE
:10115000C103309799F4C90164E670E00E946323EB
:10116000892B39F4C90160E971E00E946323892B5E
:1011700029F48EE691E0A0E0B0E004C08DE691E0B5
:10118000A0E0B0E0481A590A6A0A7B0AC418D508D8
:10119000E608F708C90164E670E00E946323EC01E9
:1011A000C90160E971E00E946323A7E3B2E020E097
:1011B000213039F4309749F4209729F4009729F425
:1011C00002C04C9103C04DE101C04CE150E060E031
:1011D00070E0C416D506E606F70640F0C41AD50A34
:1011E000E60AF70A2F5F11962C3011F72F5F209334
:1011F000C003C394C092BF0380921304909214045E
:10120000A0921504B0921604DF91CF911F910F9117
:10121000FF90EF90DF90CF90BF90AF909F908F9016
:101220007F906F905F904F9008950E9498070E9462
:1012300022088091C10390E08E54984F08950E9437
:1012400098070E9422088091C00390E008950E94B0
:1012500098070E9422088091BF0390E008950E94A1
:1012600098070E9422088091BB0390E008950E9495
:1012700098070E9422088091BC0390E008950E9484
:1012800098070E9422088091BD0390E00895CF92B4
:10129000DF92EF92FF92CF93DF93EC010E941A0549
:1012A0006B017C018F850E94010421E0892B09F4E8
:1012B00020E0298B8889811103C081E08227898BF6
:1012C00029898A89281721F0CD8ADE8AEF8AF88E4B
:1012D0008D899E89AF89B88DB701A601481B590B2E
:1012E0006A0B7B0BDB01CA01CB80DC80ED80FE80CA
:1012F000C416D506E606F70664F43A81231749F0CA
:101300002A83222331F04B895C894F5F5F4F5C8BCE
:101310004B8B3A8131110CC0CF80D884E984FA8498
:10132000C816D906EA06FB06ACF48B899C890EC068
:10133000CB84DC84ED84FE84C816D906EA06FB065D
:101340004CF48B899C899195819591099983888327
:101350001C8A1B8A2A8BDF91CF91FF90EF90DF9040
:10136000CF9008950F931F93CF93DF931F92CDB724
:10137000DEB78C01862FF8016787408B91E0492703
:10138000418B428B148A138A118210821282158A31
:10139000168A178A108E44E150E060E070E04383C3
:1013A0005483658376834AEF50E060E070E04783C2
:1013B00050876187728748EE53E060E070E04387B2
:1013C00054876587768760E029830E945A04F80174
:1013D0008089298181110BC0222349F061E0878532
:1013E0000F90DF91CF911F910F910C942A040F90D1
:1013F000DF91CF911F910F91089585ED8093BC00EF
:101400008091BC0084FDFCCF1092B70408954091F8
:101410006C04262F30E0240F311D21323105DCF41D
:101420002091B7042430C9F4FC0180E090E08617D5
:1014300058F430916C042191DC01A65BBB4FA30FE3
:10144000B11D2C930196F3CF80916C04680F6093CB
:101450006C0480E0089581E0089582E00895089585
:10146000E091940380919303E81730F4F0E0EB5699
:10147000FC4F808190E008958FEF9FEF0895909149
:10148000940380919303981750F4E92FF0E0EB5602
:10149000FC4F208130E09F5F9093940302C02FEFB8
:1014A0003FEFC90108958091930390E02091940348
:1014B000821B91090895CF92DF92EF92FF920F93D2
:1014C0001F93CF93DF937C01262F972F8A01809162
:1014D000B804882391F0C62FD72F6E01C40ED51EF5
:1014E000CC15DD0571F06991D701ED91FC9101906A
:1014F000F081E02DC7010995F3CF642F822F0E9460
:10150000070AC801DF91CF911F910F91FF90EF90D3
:10151000DF90CF900895CF93DF931F92CDB7DEB7C2
:1015200069832091B8042223D1F02091DB0420327A
:1015300040F021E030E0FC013383228380E090E042
:1015400015C08091B904E82FF0E0E654FB4F998173
:1015500090838F5F8093B9048093DB0405C061E0C2
:10156000CE0101960E94070A81E090E00F90DF9182
:10157000CF9108950F931F93CF93DF939091C3035F
:10158000911103C080E090E077C09091C20399234D
:10159000C9F3D82FC091CB0380913D0481110DC0B8
:1015A0000E941A056093390470933A0480933B04B7
:1015B00090933C0481E080933D040E941A050091C1
:1015C000390410913A0420913B0430913C04DC0131
:1015D000CB01801B910BA20BB30B8D329140A10567
:1015E000B105F0F00E941A056093390470933A0433
:1015F00080933B0490933C048091380491E09827B9
:1016000090933804992329F01092370410923604ED
:1016100007C08091CB0390E0909337048093360409
:101620002091360430913704209530954091C403C1
:1016300050E02423352326FF04C081E08093350445
:1016400002C01092350427FF04C081E08093340467
:1016500002C01092340480913804882309F492CF98
:101660008C2F90E002C095958795DA95E2F781700E
:101670009927919581959109DF91CF911F910F91B4
:1016800008951F920F920FB60F9211242F933F933C
:101690004F935F936F937F938F939F93AF93BF937A
:1016A000EF93FF938091B900887F803609F49CC046
:1016B00068F5883209F45BC090F4803109F454C0B5
:1016C00038F4882309F4F6C0883009F44DC0F6C018
:1016D000883109F44CC0803209F45DC0EFC0803419
:1016E00009F468C048F4803309F455C0883309F020
:1016F000E5C08093B504D8C0803509F44FC0883563
:1017000009F45DC0883409F0D9C0D6C0883909F41D
:10171000C7C0A8F4883709F467C038F4883609F4DC
:1017200063C0803709F460C0C9C0883809F4B8C004
:10173000803909F45FC0803809F0C0C05BC0803BCD
:1017400009F486C038F4803A09F466C0883A09F48E
:101750007FC0B4C0803C09F4A7C0883C09F4A4C091
:10176000883B09F48AC0AAC08091920410C090916D
:10177000B4048091B304981770F5E091B40481E04B
:101780008E0F8093B404F0E0ED56FB4F8081809380
:10179000BB0085EC86C08093B5048EC0E091B40494
:1017A00081E08E0F8093B4048091BB00F0E0ED5691
:1017B000FB4F80839091B4048091B3046EC0E0919C
:1017C000B40481E08E0F8093B4048091BB00F0E0FC
:1017D000ED56FB4F80838091B60481116DC081E08E
:1017E0008093910484EA61C083E08093B7041092EF
:1017F0009004CFCF80919004803208F051C0E091E6
:10180000900481E08E0F809390048091BB00F0E003
:10181000E059FB4F8083BDCF85EC8093BC001092D4
:10182000B70480919004803230F4E0919004F0E0AD
:10183000E059FB4F10826091900470E0E0916E04DB
:10184000F0916F0480E794E009951092900436C0FF
:1018500084E08093B70410926D0410926C04E091C0
:101860006A04F0916B04099580916C04811105C0A4
:1018700081E080936C0410924A04E0916D0481E051
:101880008E0F80936D04F0E0E65BFB4F80818093C8
:10189000BB0090916D0480916C04981708F479CF87
:1018A00085E88093BC000AC085EC8093BC00109250
:1018B000B70404C01092B5040E94FD09FF91EF9196
:1018C000BF91AF919F918F917F916F915F914F9158
:1018D0003F912F910F900FBE0F901F9018950C9471
:1018E000F8220C94F02288E090E00E94710C682F9E
:1018F00089E00E942A0489E090E00E94710C682F20
:1019000086E00E942A048AE090E00E94710C682F11
:1019100083E00C942A040F931F93809121019091EE
:101920002201892B09F455C0809149048823A9F02C
:101930000E941A0500914504109146042091470425
:1019400030914804DC01CB01801B910BA20BB30B3F
:10195000893E9340A105B105C8F5809149048111E4
:1019600038C00E943F0920911B0130911C01821751
:10197000930779F50E94370920911D0130911E01CE
:101980008217930731F50E942F0920911F01309192
:10199000200182179307E9F40E941A056093450419
:1019A00070934604809347049093480481E08093A9
:1019B00049048EE391E00E94B01380910001909160
:1019C00001019093CE038093CD0303C0109249048C
:1019D000C4CF1F910F910895CF93DF93EC0101962F
:1019E00028812A33D9F78981843639F51092BA03D0
:1019F0001092B90323964AE0FE018881219690ED6A
:101A0000980F2091B9033091BA039A3080F4429F25
:101A1000B001439F700D1124082E000C990BC09744
:101A2000860F971F9093BA038093B903E5CF1216E0
:101A3000130614F420930301EF01219688818F3659
:101A400089F48A81082E000C990B9C0120533109DE
:101A50003093BA032093B903C397059710F42093EA
:101A6000020124968881823629F51092BA031092D9
:101A7000B903FE0132964AE0819190ED980F2091D2
:101A8000B9033091BA039A3080F4429FB001439F6A
:101A9000700D1124082E000C990BC097860F971F0C
:101AA0009093BA038093B903E7CF30932601209334
:101AB0002501EF012091250130912601032E000C14
:101AC000440B550B60E67AEE80E090E00E9499238B
:101AD000DA01C90122E0880F991FAA1FBB1F2A95AE
:101AE000D1F78093B5039093B603A093B703B09357
:101AF000B803CE01DF91CF910895CF92DF92EF929C
:101B0000FF921F93CF93DF93CDB7DEB72C970FB61D
:101B1000F894DEBF0FBECDBF182F61ED72E0CE018D
:101B200001960E943F03133029F422E030E040E0A8
:101B300050E00FC01C3029F424E030E042E050E0D7
:101B400008C01033B9F42091E2053091E30544E078
:101B500050E06EED75E0CE0107960E945403BE0181
:101B6000695F7F4FCE0101960E94C002CE010796A9
:101B70000E94F90289819A81009729F00E947422BB
:101B80006B017C0103C0C12CD12C7601CE010196E2
:101B90000E94F902C6012C960FB6F894DEBF0FBE64
:101BA000CDBFDF91CF911F91FF90EF90DF90CF904D
:101BB00008950F931F93CF93DF93CDB7DEB762974E
:101BC0000FB6F894DEBF0FBECDBF8C014AE06A307D
:101BD00071054CF5CE010D960E94FE026AEC72E092
:101BE000CE0101960E943F03BE016F5F7F4FCE0181
:101BF00007960E943603BE01635F7F4FCE010796B2
:101C00000E949602BC01C8010E943603CE010796CD
:101C10000E94F902CE0101960E94F902CE010D96B2
:101C20000E94F90202C00E94FE02C80162960FB62D
:101C3000F894DEBF0FBECDBFDF91CF911F910F9102
:101C400008950F931F93CF93DF93CDB7DEB76897B7
:101C50000FB6F894DEBF0FBECDBF8B01833091F479
:101C60002091E2053091E30542E050E06EED75E031
:101C7000CE010D960E945403B801CE0101960E9438
:101C8000D90D55C08C3009F042C02091E205309149
:101C9000E30544E050E06EED75E0CE0143960E940E
:101CA0005403B801CE010D960E94D90D22E030E018
:101CB00040E050E06EED75E0CE0101960E945403C5
:101CC000BE016F5F7F4FCE0107960E943603BE01B3
:101CD000635F7F4FCE0107960E949602BE016D5E44
:101CE0007F4F0E949602BC018EED95E00E94A902F2
:101CF000CE0107960E94F902CE0101960E94F902D8
:101D0000CE010D960E94F902CE0143962DC080337C
:101D100069F5CE010D960E94D90D24E030E040E037
:101D200050E06EED75E0CE0101960E945403BE01B5
:101D30006F5F7F4FCE0107960E943603BE01635F3F
:101D40007F4FCE0107960E949602BC018EED95E072
:101D50000E94A902CE0107960E94F902CE010196C7
:101D60000E94F902CE010D960E94F90268960FB604
:101D7000F894DEBF0FBECDBFDF91CF911F910F91C1
:101D800008950E941A056093C7037093C803809357
:101D9000C9039093CA038091CC03882309F44CC0F3
:101DA0002091C5033091C603C901880F991F2E30B9
:101DB000310551F0FC01E95FFE4F408151814150F6
:101DC0005109518340830AC040912301509124015D
:101DD0004C5051095093240140932301DC01A95F29
:101DE000BE4F6D917C911197FC01EB58FD4F4081E6
:101DF0005181641775073CF4FC01E95AFD4F40819D
:101E000051814D935C932D30310569F4209121016E
:101E1000309122012130310521F420E82093C403C0
:101E200002C01092C403FC01E95FFE4F6081718122
:101E30008091CB030C94210E08950E941A056093A3
:101E4000C7037093C8038093C9039093CA0380911A
:101E5000CC03882309F441C02091C5033091C60307
:101E6000C901880F991F2E30310551F0FC01E95F3F
:101E7000FE4F408151814F5F5F4F518340830AC0C5
:101E80004091230150912401445F5F4F50932401FE
:101E900040932301DC01A95FBE4F6D917C911197A6
:101EA000FC01E95AFD4F40815181461757073CF428
:101EB000FC01EB58FD4F408151814D935C932D30D7
:101EC000310511F41092C403FC01E95FFE4F6081FB
:101ED00071818091CB030C94210E08958EBD00007A
:101EE0000DB407FEFDCF8EB508952F923F924F920D
:101EF0005F926F927F928F929F92AF92BF92CF929A
:101F0000DF92EF92FF920F931F93CF93DF93CDB7A2
:101F1000DEB72C970FB6F894DEBF0FBECDBF0E9480
:101F2000F504C0903004D0903104E0903204F09079
:101F30003304DC01CB018C199D09AE09BF098A313C
:101F40009144A105B10508F4E6C10E94F50460932F
:101F50003004709331048093320490933304809161
:101F6000DE059091DF05009719F00E94742203C0EE
:101F700060E070E0CB012AE0C22ED12CE12CF12CE4
:101F8000A70196010E94992349015A01660F771F04
:101F9000FB01ED5BFD4F6080718085E090E00E9469
:101FA000BA0A8629972946E0880F991F4A95E1F7D2
:101FB0009C0140E050E060E070E080E090E000E3F1
:101FC0000E94C623322E432E542E652E762E172FB6
:101FD000282E9A83C501B401A70196010E94992376
:101FE00049015A01660F771FFB01ED5BFD4F208110
:101FF000318184E090E02B873C870E94BA0A2B85D0
:102000003C85822B932BFC0166E0EE0FFF1F6A9547
:10201000E1F79F0140E050E060E070E080E090E098
:1020200006E20E94C623322A432A542A652A762AC7
:10203000712B7983282A1A81192B1A83C501B401BF
:10204000A70196010E94992349015A01660F771F43
:10205000FB01ED5BFD4F2081318183E090E02B8718
:102060003C870E94BA0A2B853C85822B932BF6E095
:10207000880F991FFA95E1F79C0140E050E060E07D
:1020800070E080E090E00CE10E94C623322A432AEF
:10209000542A652A762A1981172B1983282A1A812E
:1020A000192B1A83C501B401A70196010E94992337
:1020B00049015A01660F771FFB01ED5BFD4F20813F
:1020C000318182E090E02B873C870E94BA0A2B8501
:1020D0003C85822B932BB6E0880F991FBA95E1F7C8
:1020E0009C0140E050E060E070E080E090E000E1C2
:1020F0000E94C623322A432A542A652A762A198145
:10210000172B1983282A1A81192B1A83C501B401A8
:10211000A70196010E94992349015A01660F771F72
:10212000FB01ED5BFD4F2081318181E090E02B8749
:102130003C870E94BA0A2B853C85822B932B06E0B4
:10214000880F991F0A95E1F79C0140E050E060E09C
:1021500070E080E090E006E00E94C623322A432A25
:10216000542A652A762A0981072B282A1A81192BD5
:10217000C501B401A70196010E949923660F771F3C
:10218000FB01ED5BFD4F8080918080E090E00E943C
:10219000BA0A882999294C0196E0880C991C9A95CD
:1021A000E1F724E0969487942A95E1F7232D2829D6
:1021B000342D3929452D562D672D702F822D912FC5
:1021C00002E00E94E123122FB32EC42ED62EE72E5A
:1021D000F82E80913504882319F05F7B9F7B02C025
:1021E0005064906480913404882321F05F77952EA9
:1021F0009F7703C05068952E9068A92E60E08AE012
:102200000E942A04212F3B2D4C2D592D6D2D7E2D02
:102210008F2D9A2D08E30E94E123822F80950E9442
:102220006E0F212F3B2D4C2D592D6D2D7E2D8F2D79
:102230009A2D00E30E94E123822F80950E946E0F69
:10224000212F3B2D4C2D592D6D2D7E2D8F2D9A2D0F
:1022500008E20E94E123822F80950E946E0F212FB9
:102260003B2D4C2D592D6D2D7E2D8F2D9A2D00E25D
:102270000E94E123822F80950E946E0F212F3B2D1B
:102280004C2D592D6D2D7E2D8F2D9A2D08E10E94FC
:10229000E123822F80950E946E0F212F3B2D4C2D24
:1022A000592D6D2D7E2D8F2D9A2D00E10E94E12359
:1022B000822F80950E946E0F212F3B2D4C2D592D82
:1022C0006D2D7E2D8F2D9A2D08E00E94E123822F07
:1022D00080950E946E0F812F80950E946E0F61E0A5
:1022E0008AE02C960FB6F894DEBF0FBECDBFDF910B
:1022F000CF911F910F91FF90EF90DF90CF90BF9003
:10230000AF909F908F907F906F905F904F903F9095
:102310002F900C942A042C960FB6F894DEBF0FBEB3
:10232000CDBFDF91CF911F910F91FF90EF90DF9084
:10233000CF90BF90AF909F908F907F906F905F9065
:102340004F903F902F9008953F924F925F926F92DF
:102350007F928F929F92AF92BF92CF92DF92EF9235
:10236000FF920F931F93CF93DF9300D000D0CDB790
:10237000DEB72091E90427FDAAC149835A836B8304
:102380007C838C0161E08091E8040E945A043090C3
:10239000E904832D8D7F4801A12CB12C09F0B7C031
:1023A00060E072E18AE790E0A50194010E94992320
:1023B00029013A0169017A0121E0C21AD108E10834
:1023C000F1088FEFC816D104E104F10409F008F414
:1023D0004CC060E472E48FE090E0A50194010E949B
:1023E000992369017A0191E0C91AD108E108F1083D
:1023F000A2E03A1220C0BFEFCB16D104E104F104F1
:1024000009F008F462C160E970ED83E090E0A50195
:1024100094010E94992369017A01E1E0CE1AD10862
:10242000E108F108FFEFCF16D104E104F10409F04F
:10243000C0F583E065C02FEFC216D104E104F104BA
:10244000B1F0A8F068E478EE81E090E0A501940195
:102450000E94992369017A0181E0C81AD108E10834
:10246000F108332009F4D9C027C181E001C082E01E
:10247000332091F045C0D301C2012AE0B595A7955C
:10248000979587952A95D1F76C017D01E1E0CE1AE9
:10249000D108E108F10885E095B5987F892B85BDC5
:1024A00066C068E478EE81E090E0A50194010E94A6
:1024B000992369017A01B1E0CB1AD108E108F1084A
:1024C000EFEFCE16D104E104F10409F008F4A3C043
:1024D00064E274EF80E090E0A50194010E949923EA
:1024E00069017A0191E0C91AD108E108F108AFEF5A
:1024F000CA16D104E104F10411F008F0B0C085E07F
:102500009091B100987F892B8093B10030C060E03A
:1025100072E18AE790E0A50194010E949923690184
:102520007A01F1E0CF1AD108E108F108C114D10411
:1025300021E0E206F10488F068E478EE81E090E0C2
:10254000A50194010E94992369017A0181E0C81ACA
:10255000D108E108F10893E001C091E0A1E03A124E
:1025600006C080918100887F892B809381008981BA
:102570009A81AB81BC81892B8A2B8B2B81F0D8016E
:10258000AA0FBB1F29813A814B815C810E940623DF
:1025900028EE33E040E050E00E94772303C02FEFA5
:1025A0003FEFA90191E03916A1F0A2E03A1619F126
:1025B00031108DC0C7BC2093E4043093E5044093F0
:1025C000E6045093E70480916E00826080936E0071
:1025D0007EC0D0928900C09288002093E00430939E
:1025E000E1044093E2045093E30480916F00826021
:1025F00080936F006CC0C092B3002093DC043093D2
:10260000DD044093DE045093DF048091700082600B
:10261000809370005CC084E073CF8FEFC816D10444
:10262000E104F104D1F0C8F062E17AE780E090E0E3
:10263000A50194010E94992369017A01F1E0CF1A62
:10264000D108E108F1082FEFC216D104E104F1042A
:1026500011F008F010CF84E01FCF83E01DCF62E1BE
:102660007AE780E090E0A50194010E949923690136
:102670007A0191E0C91AD108E108F108AFEFCA1652
:10268000D104E104F104B1F0A8F0D301C2014AE0A1
:10269000B595A795979587954A95D1F76C017D01DA
:1026A000E1E0CE1AD108E108F108332009F4F3CEB5
:1026B00087E026CF86E0DCCEBFEFCB16D104E10465
:1026C000F10409F060F684E0D3CE82E019CF0F90D8
:1026D0000F900F900F90DF91CF911F910F91FF906E
:1026E000EF90DF90CF90BF90AF909F908F907F90B2
:1026F0006F905F904F903F900895009769F0FC01B4
:1027000001900020E9F73197AF01481B590BBC013C
:102710008AEE94E00C94D30080E090E008950F934B
:102720001F93CF93DF938C01C0E0D0E0F801EC0F52
:10273000FD1F6491662371F0E091EA04F091EB04CF
:102740000190F081E02D8AEE94E00995892B11F03B
:102750002196ECCFCE01DF91CF911F910F9108957B
:10276000CF93DF930E948F13EC0184EB92E00E94E1
:102770007D138C0F9D1FDF91CF910895CF93DF9331
:10278000FC0144815581608171818AEE94E00E9450
:10279000D300EC0184EB92E00E947D138C0F9D1F0F
:1027A000DF91CF9108958F929F92AF92BF920F9336
:1027B0001F93CF93DF93CDB7DEB7A1970FB6F894F1
:1027C000DEBF0FBECDBF19A2423008F44AE08E0131
:1027D0000F5D1F4F842E912CA12CB12CA5019401CB
:1027E0000E947723E62FB901CA0101501109EA308E
:1027F00014F4E05D01C0E95CD801EC93232B242B99
:10280000252B61F7C8010E947D13A1960FB6F8949D
:10281000DEBF0FBECDBFDF91CF911F910F91BF9053
:10282000AF909F908F900895CF92DF92EF92FF929A
:10283000CF93DF936C01990FEE08FF08F7FE1AC0E3
:10284000E091EA04F091EB040190F081E02D6DE25B
:102850008AEE94E00995EC0166277727CB016C1985
:102860007D098E099F094AE00E94D3137C01EC0E7A
:10287000FD1E06C04AE0C701B6010E94D3137C01C9
:1028800084EB92E00E947D138E0D9F1DDF91CF910E
:10289000FF90EF90DF90CF9008958F929F92AF922C
:1028A000BF92CF92DF92EF92FF920E94F5044B010C
:1028B0005C0188EEC82E83E0D82EE12CF12C0E941A
:1028C000F504DC01CB0188199909AA09BB09883EE6
:1028D0009340A105B10558F021E0C21AD108E108E2
:1028E000F10888EE880E83E0981EA11CB11CC1146B
:1028F000D104E104F10419F7FF90EF90DF90CF903D
:10290000BF90AF909F908F9008952091DB0490919D
:10291000DA04213208F04AC08091B7048111FCCF5B
:1029200032E03093B70431E03093B6043FEF309398
:10293000B5041092B4042093B304AAEBB4E043E9C5
:1029400054E0FA013E2F341B321718F43D913193B5
:10295000F9CF1092920420919204990F922B9093A8
:10296000920490919104913061F4109291049091AD
:1029700092049093BB009091BC0093FDF8CF95EC2E
:1029800001C095EE9093BC009091B7049230E1F3B2
:102990009091B5049F3F79F08091B504803241F069
:1029A0008091B504803331F084E005C081E003C03C
:1029B00082E001C083E01092B9041092DB0410920F
:1029C000B8040895DF92EF92FF920F931F93CF9375
:1029D000DF9300D0CDB7DEB7F82E162F81E08093BD
:1029E000B80488E68093DA041092B9041092DB04EC
:1029F00060E087E895E02A8349830E948B0A8AE099
:102A0000D82E4981842F6D2D0E945723692F30E1E4
:102A1000839F600D112487E895E00E948B0A812F27
:102A20006D2D0E945723692F30E1839F600D112483
:102A300087E895E00E948B0A8F2D6D2D0E94572309
:102A4000692F30E1839F600D112487E895E00E9493
:102A50008B0A61E087E895E00E948B0A2A81822F29
:102A60006D2D0E945723692F20E1829F600D112454
:102A700087E895E00E948B0A802F6D2D0E945723D6
:102A8000692F30E1839F600D112487E895E00E9453
:102A90008B0A8E2D6D2D0E945723692F20E1829F76
:102AA000600D112487E895E00E948B0A60E087E8BA
:102AB00095E00E948B0A0F900F90DF91CF911F91AC
:102AC0000F91FF90EF90DF900C948514CF93DF93DC
:102AD000CDB7DEB7CE55D1090FB6F894DEBF0FBE25
:102AE000CDBF789484B5826084BD84B5816084BD97
:102AF00085B5826085BD85B5816085BD80916E009C
:102B0000816080936E0010928100809181008260CC
:102B10008093810080918100816080938100809109
:102B200080008160809380008091B10084608093F8
:102B3000B1008091B00081608093B00080917A00F4
:102B4000846080937A0080917A00826080937A001A
:102B500080917A00816080937A0080917A00806809
:102B600080937A001092C1001FB7F8948091CF0330
:102B7000811127C0E8EAF0E08491EAE8F0E094915E
:102B8000E82FF0E0EE0FFF1FEA58FF4FA591B49138
:102B9000EC91E92321F461E08AE00E942A0461E0DB
:102BA0008AE00E945A048CB580618CBD8CB580642B
:102BB0008CBD61E08DE00E945A0461E08BE00E94D0
:102BC0005A048091CF038F5F8093CF031FBF8CB5D2
:102BD000837F88608CBD8CB58C7F81608CBD8DB50A
:102BE00081608DBD80E00E946E0F80E00E946E0FBC
:102BF00080E00E946E0F80E00E946E0F80E00E94D5
:102C00006E0F80E00E946E0F80E00E946E0F80E0E9
:102C10000E946E0F10929403109293031092B904C5
:102C20001092DB041092B70481E08093B6041092F6
:102C3000910461E082E10E942A0461E083E10E9444
:102C40002A048091B9008E7F8093B9008091B900E9
:102C50008D7F8093B90088E48093B80085E48093E9
:102C6000BC00E091FA04F091FB0482E08083E091E3
:102C7000F604F091F7041082E091F804F091F90461
:102C800080E1808310920205E091FE04F091FF0440
:102C900086E08083E091FC04F091FD0480818061F6
:102CA0008083E091FC04F091FD0480818860808342
:102CB000E091FC04F091FD04808180688083E091C4
:102CC000FC04F091FD0480818F7D808381E090E0A1
:102CD0000E94710C8C3019F088E190E002C08CE009
:102CE00090E0909324018093230180E090E00E9483
:102CF000710C882321F081E08093040102C01092BE
:102D0000040182E090E00E94710C8F3F29F4109240
:102D10001C0110921B0105C090E090931C01809350
:102D20001B0183E090E00E94710C8F3F29F4109208
:102D30001E0110921D0105C090E090931E0180932A
:102D40001D0184E090E00E94710C8F3F29F41092E5
:102D5000200110921F0105C090E090932001809304
:102D60001F0186E090E00E94710C8F3F29F41092C1
:102D700022011092210105C090E0909322018093DE
:102D8000210187E090E00E94710C8F3F19F41092AE
:102D90000C0406C091E0811101C090E090930C04F6
:102DA00061E089E00E945A0461E086E00E945A04D2
:102DB00061E083E00E945A048091D003833008F0E0
:102DC00083C092E09093E804E82FF0E0EE54FF4FC8
:102DD000E491E093E9048F5F8093D003E13031F117
:102DE000E23009F44AC0E11172C014BC15BC84B5CC
:102DF000826084BD85B5816085BD8091E80490E0E6
:102E0000FC01E256FF4FE491F0E0EE0FFF1FEC569D
:102E1000FF4F259134913093920320939103FC014D
:102E2000E058FF4FE491E093900351C0109280006E
:102E30001092810080918100886080938100809150
:102E400081008160809381008091E80490E0FC0122
:102E5000E256FF4FE491F0E0EE0FFF1FEC56FF4FFC
:102E60002591349130938F0320938E03FC01E05819
:102E7000FF4FE491E0938D032AC01092B0001092AE
:102E8000B1008091B00082608093B0008091B10069
:102E900081608093B1008091E80490E0FC01E256EB
:102EA000FF4FE491F0E0EE0FFF1FEC56FF4F25912E
:102EB000349130938C0320938B03FC01E058FF4F37
:102EC000E491E0938A0303C08FEF8093E90480913B
:102ED0000001909101010E94EC0C909301018093FC
:102EE000000161E08AE00E945A0461E088E00E94EB
:102EF0005A0460E088E00E942A046CB570E080E02B
:102F000090E042E00E94D31384EB92E00E947D1394
:102F10006CB570E080E090E042E00E94D31384EB57
:102F200092E00E947D1362E08EE00E945A0462E00B
:102F300080E10E945A0462E08FE00E945A0461E03E
:102F400082E00E945A0404E110E020E030E00093A7
:102F5000C8051093C9052093CA053093CB054EE1EF
:102F600050E060E070E04093CC055093CD05609355
:102F7000CE057093CF0580ED97E0A0E0B0E08093A0
:102F8000D0059093D105A093D205B093D3050093BB
:102F9000AF051093B0052093B1053093B20540936F
:102FA000B3055093B4056093B5057093B60580934F
:102FB000B7059093B805A093B905B093BA050093EF
:102FC00096051093970520939805309399054093A3
:102FD0009A0550939B0560939C0570939D05809383
:102FE0009E0590939F05A093A005B093A10582ED47
:102FF00090E00E948F1325E030E042E050E064EE64
:1030000075E0CE0101961C010E94540322E030E0DD
:1030100041E050E064EE75E0CE01875B9F4F0E9477
:103020005403BE01675B7F4FCE018D5B9F4F0E94B3
:10303000360367EB72E0CE018D5B9F4F0E947D02ED
:10304000B1010E9496020E94BE13CE018D5B9F4F7C
:103050000E94F902CE01875B9F4F0E94F902C101D5
:103060000E94F90287EC90E00E94B0138091000169
:10307000909101019093CE038093CD030E94EC0CBC
:103080006FEF70E089E00E9496040E944D1460E0AA
:1030900070E089E00E9496046FEF70E086E00E9485
:1030A00096040E944D1460E070E086E00E94960451
:1030B0006FEF70E083E00E9496040E944D1489EB4C
:1030C00092E00E947D138091EA059091EB050097B4
:1030D00011F48EEE95E0F101E81BF90BCF010E948F
:1030E000141465EC72E0C1010E943F036CEC72E0C5
:1030F000CE0107960E943F0363ED72E0CE010D966C
:103100000E943F036AED72E0CE0143960E943F03A6
:1031100061EE72E0CE0149960E943F0368EE72E0D4
:10312000CE014F960E943F036FEE72E0CE0185966E
:103130000E943F0366EF72E0CE018B960E943F0330
:103140006DEF72E0CE01C1960E943F0364E073E030
:10315000CE01C7960E943F0366EB72E0CE01CD968A
:103160000E943F0364EE75E0CE01CD960E94A90255
:103170008FEB90E00E948F1380E090E00E94141487
:103180000E941A054B015C01F8EE8F0EF3E09F1EC2
:10319000A11CB11C1FEFA4EFEA2EFF24F39400E062
:1031A000B6E05B2E8BE3C82E8FE1D82E8FE00E9415
:1031B0000104892B09F401E080E10E940104892BBC
:1031C00009F400E0FBE07F2E662463940E941A0558
:1031D000DC01CB0188199909AA09BB0997010F2CB9
:1031E000000C440B550B281739074A075B0700F5FD
:1031F0000E941A054B015C01011101C01F5F1A30CA
:1032000021F01B3031F4612C04C0E8EBEE2EEBE032
:10321000FE2EB101519E600D711D11248EED95E0C1
:103220000E94A9028EED95E00E94BE130E94750FC8
:103230007A947110CBCFC6010197F1F76110B6CF28
:1032400085EB90E00E94B0138E010D5B1F4F06507E
:103250001109C8010E94F90202151305C1F78091F6
:103260000C0481110E94730C81E08093B80488E6FD
:103270008093DA041092B9041092DB0460E087E8CE
:1032800095E00E948B0A0E9485148091B7048111F9
:10329000FCCF81E08093B7048093B6049FEF9093B6
:1032A000B5041092B40496E09093B3048093920412
:1032B00080919204806D809392048091910481307A
:1032C00061F410929104809192048093BB008091EC
:1032D000BC0083FDF8CF85EC01C085EE8093BC0077
:1032E0008091B7048130E1F38091B404873018F401
:1032F0008091B40401C087E0A3E9B4E025E933E09C
:10330000F9019E2F921B981718F49D919193F9CF74
:10331000109294038093930387E895E00E943F0AFC
:10332000982F92959F708F70A82E2AE0929FA00CE4
:1033300011244A2C512C5092D8034092D70387E88D
:1033400095E00E943F0A982F92959F708F703AE007
:10335000939F800D11246C968FAF6C97682E712C03
:103360007092D6036092D50387E895E00E943F0AE9
:10337000982F9695969596959670292F220F220F45
:10338000920F8F70980F6D969FAF6D97892E912C2D
:103390009092D4038092D30387E895E00E943F0A7D
:1033A000982F92959F708F704AE0949F800D112402
:1033B00090E09093D2038093D10387E895E00E9438
:1033C0003F0A982F92959F708F70D82E6AE0969F33
:1033D000D00C11242D2D30E03093DA032093D90343
:1033E00087E895E06F96DFAE6F976E963FAF6E976A
:1033F0000E943F0A982F92959F708F70C82EEAE026
:103400009E9FC00C11240C2D10E01093DC03009340
:10341000DB0387E895E00E943F0A982F92959F7002
:103420008F70B82EFAE09F9FB00C1124EB2CF12C7A
:10343000F092DE03E092DD036F962FAD6F976E96EC
:103440003FAD6E97A201B301C4010E94BC06EB2CF4
:103450000C2D2D2D4A2D6C966FAD6C976D968FAD02
:103460006D970E94E21472E0472E512C612C712C52
:103470000091CD031091CE03F8018081882309F4D7
:1034800033C10E941A05C090E503D090E603E09096
:10349000E703F090E803DC01CB018C199D09AE092C
:1034A000BF09C090E103D090E203E090E303F09005
:1034B000E403C816D906EA06FB0608F015C10E9407
:1034C0001A056B017C016093E5037093E60380931A
:1034D000E7039093E8031092BA031092B903C8016E
:1034E0008C01FC01B080019640ED4B0D2091B90399
:1034F0003091BA034A3088F4FAE0F29FA001F39FBA
:10350000500D1124EB2DBB0CFF0BF097E40FF51FB2
:10351000F093BA03E093B903E3CF6091B5037091E0
:10352000B6038091B7039091B8032115310529F0B6
:10353000032E000C440B550B05C02091030130E015
:1035400040E050E00E9499232093E1033093E2038E
:103550004093E3035093E4038B2DBB0C990BAA0B10
:10356000BB0BFC01E156F109E730F10520F4EC5CFE
:10357000FF4F0C94B8231092E00315C081E001C006
:1035800083E08093E0030FC085E0FBCF86E0F9CFB6
:10359000F8E0F093E00307C02AE02093E00303C0C3
:1035A0003CE03093E003F8018181833219F00F5F32
:1035B0001F4F07C08091E0038F5F8093E0030E5F91
:1035C0001F4FF80180818E32E1F48090E1039090EA
:1035D000E203A090E303B090E403C501B401A301AA
:1035E00092010E949923820E931EA41EB51E809202
:1035F000E1039092E203A092E303B092E4030F5F31
:103600001F4FF801808180538A3028F48093DF03B4
:103610000F5F1F4F04C0809102018093DF038091F0
:10362000DF03F80190819C3211F40F5F1F4F20914E
:10363000E003222309F458C08090E1039090E20354
:10364000A090E303B090E40390E004973CE0389F3F
:10365000F001399FF00D1124E20FF11DEE0FFF1F55
:10366000EB5BFE4FB501A401808191810E94A41102
:103670000E941A05DC01CB018C199D09AE09BF0916
:1036800088169906AA06BB0678F50E941A0560936B
:10369000E5037093E6038093E7039093E80380913A
:1036A000E904813051F0823071F0811111C08091B4
:1036B0006E008D7F80936E000BC080916F008D7FB8
:1036C00080936F0005C0809170008D7F80937000A3
:1036D00060E08091E8040E942A0485EE90E00E9458
:1036E000B01390E080E002C0902F812F9093CD0323
:1036F0008093CE030E941A0500910F0410911004CC
:103700002091110430911204DC01CB01801B910B3C
:10371000A20BB30B0697A105B10508F489C08091EF
:103720000401811110C060E070E089E00E949604FD
:1037300060E070E086E00E94960460E070E083E064
:103740000E9496046BC080910C04811167C00091A7
:10375000EB031091EC03C801880F991F800F911F94
:10376000FC01EE0FFF1FE955FE4F609105017091BE
:10377000060120813181620F731F709306016093EF
:103780000501FC01EE0FFF1FE755FE4F20910404D9
:1037900030910504E080F180E20EF31EF092050402
:1037A000E0920404880F991FFC01E555FE4F8091BB
:1037B000020490910304C080D180C80ED91ED0921B
:1037C0000304C092020489E00E949604B70186E0D7
:1037D0000E949604B60183E00E9496048091E9035A
:1037E0009091EA0301969093EA038093E9038F3F57
:1037F000910551F40F5F1F4F1093EC030093EB03FF
:103800001092EA031092E9038091EB039091EC038C
:10381000069724F01092EC031092EB030E941A0515
:1038200060930F047093100480931104909312041A
:103830000E94750F85EC95E00E9447098CEA95E09F
:103840000E94470983E995E00E9447098091CC03D3
:10385000811103C01092CB032BC00E941A05009166
:10386000C7031091C8032091C9033091CA03DC013A
:10387000CB01801B910BA20BB30B81369A4EA10595
:10388000B105B0F01092CC03E091C503F091C603EE
:10389000EE0FFF1FE75EFD4F808191819093C6037D
:1038A0008093C503FC01E65FFD4F80818093CB03CD
:1038B0008091C5059091C605181619060CF036C101
:1038C0001092CE031092CD0344E650E060E070E029
:1038D00088EE93E00E94A4110E941A056093C7032A
:1038E0007093C8038093C9039093CA038091C50362
:1038F0009091C60301968430910529F09093C603F8
:103900008093C50304C01092C6031092C50382E1E0
:1039100091E00E948F138091C5039091C6030E948D
:1039200014148BE091E00E948F13E091C503F09195
:10393000C603EE0FFF1FE95FFE4F808191810E9459
:1039400014142091C5033091C603F901E65FFD4FC1
:1039500080818093CB0321503109F901EE0FFF1FC5
:10396000E451FE4F408151814115510509F4CFC00A
:10397000CA010197FC01EE0FFF1FE253FE4F608169
:1039800071816217730709F0C2C04230510569F5B1
:1039900028E1EDE2F1E0D10101900D922A95E1F7E5
:1039A0002091190130911A0123703327232B21F420
:1039B000EDE1F0E0FC83EB832091150130911601DD
:1039C000E0911701F09118013197EE0FFF1FE20D02
:1039D000F31D40815181421753073CF487E090E08A
:1039E0009093C6038093C503EEC31092CC039093CB
:1039F000C6038093C503892BB9F40E9415097C0185
:103A00000E941F098C010E9427099C01409113010B
:103A100050911401609111017091120180910F0178
:103A2000909110010E94BC068091C5039091C6033D
:103A30000197E9F4E0901901F0901A01F0E3EF1A10
:103A4000F8EFFF0A009117011091180180901501FD
:103A5000909016010E942F095C010E9437096C01A9
:103A60000E943F099401A501B6010E94BC06809105
:103A7000C5039091C6030297C1F460911B0182E0D7
:103A800090E00E946F0C60911D0183E090E00E9425
:103A90006F0C60911F0184E090E00E946F0C6091B8
:103AA000210186E090E00E946F0C8091C503909107
:103AB000C603039731F46091230181E090E00E94F6
:103AC0006F0C0E9415097C010E941F09082F0E949B
:103AD00027096F968FAF6F970E942F096E968FAF51
:103AE0006E970E943709182F0E943F09382FC7018F
:103AF00068EE73E00E946323E82E6F962FAD6F97F8
:103B00006E964FAD6E97612F832F0E94E214009145
:103B1000C5031091C6038091CB030E947D0D000F59
:103B2000111FF801E95FFE4F918380838091C505E5
:103B30009091C60597FF8CC044E650E060E070E0CD
:103B400088EE93E00E94A4118091CC03811151C0B2
:103B50000E941A056093C7037093C8038093C9033A
:103B60009093CA038091C5039091C603892B09F0F5
:103B700040C00E942F09BC01C1010E94D90D0E94C2
:103B80003709BC01CE018D5B9F4F0E94D90D0E9469
:103B90003F09BC01CE01815B9F4F0E94D90DBE0140
:103BA000615B7F4FCE01875B9F4F0E943603BE0152
:103BB0006D5B7F4FCE01875B9F4F0E949602B101E4
:103BC0000E949602BC018EED95E00E94A902CE01F2
:103BD000875B9F4F0E94F902CE01815B9F4F0E943D
:103BE000F902CE018D5B9F4F0E94F902C1010E9434
:103BF000F902E091C503F091C603EE0FFF1FE75EE7
:103C0000FD4F008111811093C6030093C5030A3054
:103C1000110549F421E030E0309322012093210185
:103C200080E88093C4039091CC0381E0892780933E
:103C3000CC03F801E65FFD4F80818093CB030E94A7
:103C40007D0D000F111FF801E95FFE4F9183808306
:103C50008091AC059091AD05009701F190930E0411
:103C600080930D0418161906CCF41092CE0310920E
:103C7000CD0344E650E060E070E088EE93E00E94FF
:103C8000A4110E941D0F8091CC03811107C01092D6
:103C90000C0460E087E090E00E946F0C80910D04BE
:103CA00090910E04019661F58091AE05882341F153
:103CB0001092C3038091CC03882329F10E941A0536
:103CC000009108041091090420910A0430910B041A
:103CD000DC01CB01801B910BA20BB30B8739910543
:103CE000A105B10580F00E941A0560930804709345
:103CF000090480930A0490930B040E941D0F03C0D3
:103D000081E08093C303809193059091940500977F
:103D100099F190930704809306041816190664F528
:103D20001092CE031092CD0344E650E060E070E0C4
:103D300088EE93E00E94A4110E94C10E8091CC03F2
:103D400081111AC081E080930C0461E087E090E06B
:103D50000E946F0C6091050188E090E00E946F0C5A
:103D60006091040489E090E00E946F0C609102046D
:103D70008AE090E00E946F0C809106049091070405
:103D8000019661F580919505882341F11092C20357
:103D90008091CC03882329F10E941A050091FE032B
:103DA0001091FF032091000430910104DC01CB014C
:103DB000801B910BA20BB30B87399105A105B105AF
:103DC00080F00E941A056093FE037093FF038093B6
:103DD0000004909301040E94C10E03C081E080930F
:103DE000C2038091CC03811135C08091AC059091C4
:103DF000AD0597FF16C044E650E060E070E088EE45
:103E000093E00E94A41181E08093040161E080E0CE
:103E100090E00E946F0C84E091E00E94B0130E9439
:103E2000730C809193059091940597FF13C044E61D
:103E300050E060E070E088EE93E00E94A4111092E0
:103E4000040160E080E090E00E946F0C8CEF90E055
:103E50000E94B0138091C5039091C60381309105F3
:103E600009F412C11CF4892B99F1ADC1823091057E
:103E700009F454C1039709F0A6C160912301709120
:103E800024014AE0CE0101960E94FE0269EC72E034
:103E9000CE018D5B9F4F0E943F03BE016F5F7F4F3E
:103EA000CE018D5B9F4F0E94960269EC72E00E94EA
:103EB0007D02BC018EED95E00E94A902CE018D5BD2
:103EC0009F4F0E94F902CE0101960E94F90277C12C
:103ED0000E941A050091ED031091EE032091EF036B
:103EE0003091F003DC01CB01801B910BA20BB30BD3
:103EF000893E9340A105B10508F477C00E941A05D8
:103F00006093ED037093EE038093EF039093F003BF
:103F10008091230190912401489799F40E942F09E0
:103F2000BC01CE0101960E94D90D0E943709BC0147
:103F3000CE018D5B9F4F0E94D90D0E943F09BC01AD
:103F400020C00E942F09BC01CE0101960E94D90D0C
:103F50000E943709BC01CE018D5B9F4F0E94D90D95
:103F60000E9498070E9422088091BD03882339F09F
:103F7000682F70E08D3028F06C50710902C06CE041
:103F800070E0CE01815B9F4F0E94D90DBE01615B45
:103F90007F4FCE01875B9F4F0E943603BE016D5B52
:103FA0007F4FCE01875B9F4F0E949602BE016F5FDD
:103FB0007F4F0E949602BC01CE018B5A9F4F0E94F8
:103FC0003603CE01875B9F4F0E94F902CE01815BD1
:103FD0009F4F0E94F902CE018D5B9F4F0E94F90214
:103FE000CE0101960E94F90207C06EED75E0CE0188
:103FF0008B5A9F4F0E943603BE016B5A7F4F8EED46
:1040000095E00E94C002CE018B5A9F4F0E94F90298
:104010008091F60381110DC00E941A056093F2038E
:104020007093F3038093F4039093F50381E08093FE
:10403000F6030E941A050091F2031091F3032091F8
:10404000F4033091F503DC01CB01801B910BA20B33
:10405000B30B893E9340A105B10508F4B2C00E949C
:104060001A056093F2037093F3038093F403909323
:10407000F5039091F10381E089278093F103882370
:1040800009F49DC080EC98C00E94150968EE73E0A9
:104090000E946323BC01CE0101960E94D90D0E94AB
:1040A0001F09BC01CE018D5B9F4F0E94D90D0E945C
:1040B0002709BC01CE01815B9F4F0E94D90DBE0133
:1040C000615B7F4FCE01875B9F4F0E943603BE012D
:1040D0006D5B7F4FCE01875B9F4F0E949602BE01B2
:1040E0006F5F7F4F0E949602BC018EED95E00E94AB
:1040F000A902CE01875B9F4F0E94F902CE01815B2E
:104100009F4F0E94F902CE018D5B9F4F0E94F902E2
:10411000CE0101960E94F90280E44EC060911F0119
:1041200070912001CE0101960E94D90D60911D0170
:1041300070911E01CE018D5B9F4F0E94D90D609141
:104140001B0170911C01CE01815B9F4F0E94D90D14
:10415000BE01615B7F4FCE01875B9F4F0E9436039C
:10416000BE016D5B7F4FCE01875B9F4F0E94960221
:10417000BE016F5F7F4F0E949602BC018EED95E0FD
:104180000E94A902CE01875B9F4F0E94F902CE01D7
:10419000815B9F4F0E94F902CE018D5B9F4F0E9471
:1041A000F902CE0101960E94F902809121019091BD
:1041B0002201019721F480E88093C40302C0109289
:1041C000C4030E948B0C0E94C00152C98EED95E081
:1041D0000E94F90284EE95E00C94F902EAEEF4E014
:1041E0001382128288EE93E0A0E0B0E0848395838E
:1041F000A683B78328E932E03183208325EC30E0C1
:104200003587248724EC30E03787268720EC30E0A0
:10421000318B208B21EC30E0338B228B22EC30E091
:10422000358B248B26EC30E0378B268B118E128E4B
:10423000138E148EE7E8F5E013821282848395834F
:10424000A683B78388EA92E09183808362E873E073
:1042500084EE95E00E943F0365EC72E08EED95E000
:104260000E943F0321E040E06EE085EC95E00E9473
:10427000B20921E040E060E18CEA95E00E94B209D9
:1042800021E040E06FE083E995E00C94B209CF9320
:10429000DF938230910510F482E090E0E091EC052C
:1042A000F091ED0520E030E0C0E0D0E0309711F172
:1042B0004081518148175907C0F04817590761F4E8
:1042C00082819381209719F09B838A832BC09093DE
:1042D000ED058093EC0526C02115310519F0421734
:1042E000530718F49A01BE01DF01EF010280F38148
:1042F000E02DDCCF2115310509F1281B390B2430C5
:10430000310590F412968D919C911397611571056A
:1043100021F0FB019383828304C09093ED05809389
:10432000EC05FD01329644C0FD01E20FF31F8193BD
:104330009193225031092D933C933AC02091EA0584
:104340003091EB05232B41F42091290130912A0172
:104350003093EB052093EA05209127013091280145
:104360002115310541F42DB73EB740912B015091F5
:104370002C01241B350BE091EA05F091EB05E217C7
:10438000F307A0F42E1B3F0B2817390778F0AC0178
:104390004E5F5F4F2417350748F04E0F5F1F509355
:1043A000EB054093EA058193919302C0E0E0F0E0D1
:1043B000CF01DF91CF9108950F931F93CF93DF9398
:1043C000009709F48CC0FC0132971382128200918D
:1043D000EC051091ED050115110581F42081318165
:1043E000820F931F2091EA053091EB0528173907BA
:1043F00079F5F093EB05E093EA0571C0D80140E050
:1044000050E0AE17BF0750F412962D913C911397D0
:10441000AD012115310509F1D901F3CF9D01DA0173
:104420003383228360817181860F971F82179307E0
:1044300069F4EC0128813981260F371F2E5F3F4F29
:10444000318320838A819B8193838283452B29F446
:10445000F093ED05E093EC0542C01396FC93EE93C8
:104460001297ED01499159919E01240F351FE217D2
:10447000F30771F480819181840F951F0296119644
:104480009C938E938281938113969C938E93129723
:10449000E0E0F0E0D80112968D919C91139700977F
:1044A00019F0F8018C01F6CF8D919C9198012E5F47
:1044B0003F4F820F931F2091EA053091EB0528179B
:1044C000390769F4309729F41092ED051092EC0544
:1044D00002C0138212821093EB050093EA05DF916C
:1044E000CF911F910F9108951F93FC019927882761
:1044F000BC01E89411911032E9F3193010F01E302C
:10450000C8F31B3251F01D3249F4689406C00E9472
:10451000B122610F711D811D911D119110531A302F
:10452000B0F33EF490958095709561957F4F8F4FD5
:104530009F4F1F9108954532510520F4423010F0ED
:104540000C94A622FB011082CB010895BB274A30B0
:1045500031F4992322F4BDE2909581959F4F0C94FC
:10456000C722592F482F372F262F660F771F881FF6
:10457000991F660F771F881F991F620F731F841F73
:10458000951F660F771F881F991F0895BB27FB0192
:104590005527AA27880F991FAA1FA41710F0A41B3C
:1045A00083955051B9F7A05DAA3308F0A95DA19396
:1045B000009779F7B111B1931192CB010C94E022DD
:1045C000DC01FC01672F71917723E1F7329704C07A
:1045D0007C916D9370836291AE17BF07C8F3089505
:1045E000F999FECF92BD81BDF89A992780B50895BB
:1045F000262FF999FECF1FBA92BD81BD20BD0FB6FF
:10460000F894FA9AF99A0FBE019608950E944823E9
:10461000A59F900DB49F900DA49F800D911D112416
:1046200008952F923F924F925F926F927F928F9256
:104630009F92AF92BF92CF92DF92EF92FF920F9331
:104640001F93CF93DF93CDB7DEB7CA1BDB0B0FB63B
:10465000F894DEBF0FBECDBF09942A8839884888F8
:104660005F846E847D848C849B84AA84B984C8848E
:10467000DF80EE80FD800C811B81AA81B981CE0F85
:10468000D11D0FB6F894DEBF0FBECDBFED0108956A
:10469000A29FB001B39FC001A39F700D811D112483
:1046A000911DB29F700D811D1124911D0895991BBC
:1046B00079E004C0991F961708F0961B881F7A9519
:1046C000C9F78095089597FB072E16F4009407D03C
:1046D00077FD09D00E94FD2307FC05D03EF490959C
:1046E00081959F4F0895709561957F4F0895A1E240
:1046F0001A2EAA1BBB1BFD010DC0AA1FBB1FEE1F5C
:10470000FF1FA217B307E407F50720F0A21BB30BA6
:10471000E40BF50B661F771F881F991F1A9469F722
:1047200060957095809590959B01AC01BD01CF017E
:104730000895052E97FB1EF400940E94B02357FDA8
:1047400007D00E94772307FC03D04EF40C94B023CB
:1047500050954095309521953F4F4F4F5F4F0895AD
:1047600090958095709561957F4F8F4F9F4F0895DD
:10477000EE0FFF1F0590F491E02D0994B7FF0C9404
:1047800006230E940623821B930B08950F93083083
:1047900090F0982F872F762F652F542F432F322F8D
:1047A00022270850F4CF220F331F441F551F661FC6
:1047B000771F881F991F0A95B2F70F91089597FBED
:1047C00010F8169400080F93083098F00850232F23
:1047D000342F452F562F672F782F892F902DF4CF08
:1047E000059497958795779567955795479537954C
:1047F00027950A95AAF70F910895AA1BBB1B51E1B3
:1048000007C0AA1FBB1FA617B70710F0A61BB70B40
:10481000881F991F5A95A9F780959095BC01CD01E5
:104820000895A0E0B0E0E7E1F4E20C941523EC0178
:10483000009721F4CB010E944721B8C0FC01E60F8C
:10484000F71F9C0122503109E217F30708F4ACC0AE
:10485000D9010D911C91119706171707B0F005307B
:10486000110508F49FC0C80104978617970708F43C
:1048700099C002501109061B170B019311936D93F8
:104880007C93CF010E94DC218DC05B01A01AB10A8C
:104890004C01800E911EA091EC05B091ED0540E019
:1048A00050E0E12CF12C109709F44AC0A815B90585
:1048B000D1F56D907C901197630182E0C80ED11CF8
:1048C000CA14DB0480F1A3014A195B096A0182E082
:1048D000C80ED11C1296BC9012971396AC91B5E0FD
:1048E000CB16D10440F0B282A38351834083D90117
:1048F0006D937C930AC00E5F1F4FC301800F911F01
:10490000F90191838083EB2DFA2FE114F10431F04A
:10491000D7011396FC93EE93129744C0F093ED05E4
:10492000E093EC053FC08D919C9111974817590772
:1049300008F4AC017D0112960D90BC91A02DB3CF6F
:104940008091EA059091EB0588159905E1F44617E9
:104950005707C8F48091270190912801009741F4EE
:104960008DB79EB740912B0150912C01841B950B64
:10497000E817F907C8F4F093EB05E093EA05F901AD
:10498000718360830FC0CB010E9447217C01009797
:1049900059F0A801BE010E94E024CE010E94DC2152
:1049A000C70104C0CE0102C080E090E0CDB7DEB701
:1049B000EEE00C94312381E090E0F8940C94F02424
:1049C000FB01DC0102C001900D9241505040D8F72C
:1049D0000895FB01DC0101900D920020E1F708959C
:1049E00010E0C7EAD0E004C0FE010E94B82321967F
:0A49F000C83AD107C9F7F894FFCFC9
:1049FA000B03060401FF0000000000000000000095
:104A0A00000000000000000000000000000000009C
:104A1A0000000018003F000000EE0580001F001C87
:104A2A00001F001E001F001E001F001F001E001F87
:104A3A00001E001F00000006011501260137014A69
:104A4A00015D01720188019F01B801D201EE010BDB
:104A5A00022A024B026E029302BA02E40210033FD8
:104A6A00037003A403DC03170455049704DD042729
:104A7A00057505C80520067D06E0064907B8072D15
:104A8A0008A9082D09B9094D0AEA0A900B400CFA3F
:104A9A000CC00D910E6F0F000000000100FFFF0017
:104AAA0000000000000100000000000000FFFF01FC
:104ABA0000000000000000FFFF00000A09080600CD
:104ACA0009000D000E0000000000000000000000B8
:104ADA0000000000000000000000000000000000CC
:104AEA0000000000010001000100020002000200B3
:104AFA000300030003000300040000000000030C8D
:104B0A0030030C30030C30C00C040007000A000EFE
:104B1A00000000000000000000000000000000008B
:104B2A00000000000000001F1C1F1E1F1E1F1F1E6A
:104B3A001F1E1FFEFFFDFFFBFFF7FFEFFFDFFFBF9B
:104B4A00FF7FFFFFFEFFFD000000000000000017CE
:104B5A00003B003B001F000C00630017003B003BBA
:104B6A0000010018000000000000000C0000000016
:104B7A000000000100010000000000000000000029
:104B8A00000C0000000000005701D3002001FE00C5
:104B9A0012019E01000000008B0A5B0A530A3F0AB9
:104BAA00300A2F0A0D0A002E0046726565207261CE
:104BBA006D203D200030303030303000313131311D
:104BCA00313100323232323232003333333333331B
:104BDA00003434343434340035353535353500361F
:104BEA0036363636360037373737373700383838BB
:104BFA00383838003939393939390050696E6B50CB
:104C0A00616E746865723A643D342C6F3D352C626E
:104C1A003D3136303A3864232C38652C32702C38C2
:104C2A0066232C38672C32702C3864232C38652C78
:104C3A003136702C3866232C38672C3136702C3874
:104C4A0063362C38622C3136702C3864232C386544
:104C5A002C3136702C38622C3261232C32702C3174
:104C6A0036612C3136672C3136652C3136642C325C
:0A4C7A0065003031303231300000A7
:00000001FF
