:100000006CC100009BC1000099C1000097C10000B5
:1000100095C1000093C1000091C100008FC1000094
:100020008DC100008BC1000089C1000087C10000A4
:1000300085C100000C94351081C100007FC1000013
:100040007DC100000C94941079C1000077C10000BC
:1000500075C100000C94FD1071C100000C94EB0FF1
:100060006DC100000C94040E0C94DB0D67C1000000
:1000700065C1000063C1000061C100005FC10000F4
:100080005DC100005BC1000059C1000057C1000004
:1000900055C1000053C1000051C1000042C400001E
:1000A0004DC100004BC1000049C1000047C1000024
:1000B00045C1000043C1000041C100003FC1000034
:1000C0003DC100003BC1000039C1000037C1000044
:1000D00035C1000033C1000031C100002FC1000054
:1000E0002DC10000291C2D1C1B1C1D1C211C231CA8
:1000F000251CF90BFC0BEB0BEF0BF50B330C000C79
:10010000040C0A0C0E0C120C180C1C0C200C330CDA
:10011000260C2A0C2E0CF40EF90EFE0E080F120FF0
:100120008B0F1C0F240F2C0F360F400F4A0F590F47
:10013000630F8B0F6D0F770F810F000021002400DC
:1001400027002A002D0030003300010100000401C7
:1001500007010A0101021020200808102040102089
:10016000408002010201080402010102040810207B
:100170004080804020100804020180040201804079
:1001800020100804020108040201010204081020E2
:100190004080010204081020408000002200250059
:1001A00028002B002E003100340002010000050160
:1001B00008010B01050505050705080808080202E6
:1001C00002020A0A080804040404010101010101F1
:1001D00001010303030303030303040707070C0CD4
:1001E0000C0C0C0C0C0C020202020606060606069B
:1001F00006060B0B0B0B0B0B0B0B02010053746F62
:100200007020546573740054656D70203D20005358
:10021000746172742054657374004669726D7761FD
:1002200072652076657273696F6E3A2000496E635D
:100230006F727265637420536F6E6720466F726DC4
:10024000617421005247423D6F6666005247423D4D
:100250006F6E0076616C75653D006D656E75506FF3
:10026000736974696F6E3D0057616B652075702C02
:10027000204E656F21000000200023002600290089
:100280002C002F00320000010000030106010901CB
:1002900000000A0B02090C0D0E0807030401000000
:1002A000000000000000000000000000000000004E
:1002B000000000000000000000000000121110000B
:1002C000000000000000000000000000000000002E
:1002D0000000000000004822402211241FBECFEF82
:1002E000D1E2DEBFCDBF00E00CBF14E0A0E0B2E081
:1002F000E8E6FCE400E00BBF02C007900D92AA38CC
:10030000B107D9F726E0AAE8B4E001C01D92AE3EDD
:10031000B207E1F711E0CCE6D1E000E006C021979A
:100320000109802FFE010E94D224CB36D10780E044
:100330000807A9F70E94A6160C94232661CE85ED26
:100340008093BC008091BC0084FDFCCF1092B70567
:10035000089540914F05262F30E0240F311D2132A2
:100360003105DCF42091B7052430C9F4FC0180E0AC
:1003700090E0861758F430914F052191DC01A35D80
:10038000BA4FA30FB11D2C930196F3CF80914F0567
:10039000680F60934F0580E0089581E0089582E042
:1003A00008950895E091940480919304E81730F43F
:1003B000F0E0EB56FB4F808190E008958FEF9FEFC8
:1003C00008959091940480919304981750F4E92F24
:1003D000F0E0EB56FB4F208130E09F5F9093940458
:1003E00002C02FEF3FEFC90108958091930490E080
:1003F00020919404821B91090895CF92DF92EF928D
:10040000FF920F931F93CF93DF937C01262F972F9B
:100410008A018091B805882391F0C62FD72F6E01ED
:10042000C40ED51ECC15DD0569F06991D701ED919B
:10043000FC910190F081E02DC7011995F3CF642F55
:10044000822F87DFC801DF91CF911F910F91FF901D
:10045000EF90DF90CF900895CF93DF931F92CDB7A9
:10046000DEB769832091B8052223D1F02091DB0506
:10047000203240F021E030E0FC013383228380E031
:1004800090E014C08091B905E82FF0E0E654FA4FEF
:10049000998190838F5F8093B9058093DB0504C0B9
:1004A00061E0CE01019655DF81E090E00F90DF9191
:1004B000CF9108950F931F93CF93DF939091C3042F
:1004C000911103C080E090E077C09091C20499231D
:1004D000C9F3D82FC091CB048091200581110DC0A4
:1004E0000E94B90F60931C0570931D0580931E0533
:1004F00090931F0581E0809320050E94B90F009121
:100500001C0510911D0520911E0530911F05DC0171
:10051000CB01801B910BA20BB30B8D329140A10537
:10052000B105F0F00E94B90F60931C0570931D0592
:1005300080931E0590931F0580911B0591E09827DD
:1005400090931B05992329F010921A051092190512
:1005500007C08091CB0490E090931A058093190511
:100560002091190530911A05209530954091C404C9
:1005700050E02423352326FF04C081E08093180532
:1005800002C01092180527FF04C081E08093170570
:1005900002C01092170580911B05882309F492CFA1
:1005A0008C2F90E002C095958795DA95E2F78170DF
:1005B0009927919581959109DF91CF911F910F9185
:1005C00008954F925F926F927F928F929F92AF9217
:1005D000BF92CF92DF92EF92FF920F931F93CF9330
:1005E000DF934B015C018091740590917505A0919A
:1005F0007605B091770588169906AA06BB0609F418
:10060000C2C08CE3C82ED12CE12CF12CC501B40161
:10061000A70196010E9494246093BB04CA01B9010A
:10062000A70196010E9494246093BC04CA01B901F9
:1006300028E130E040E050E00E94942469017A0112
:100640006093BD04CA01B9016C5F7F4F8F4F9F4F0C
:1006500027E030E040E050E00E9494246F5F609318
:10066000BE04412C512C320140E004E610E0C0E908
:10067000D1E0242F30E02E54384FF901E370FF27EA
:10068000309789F4C901B8010E948124892B31F483
:10069000C901BE010E948124892B29F48EE691E0D4
:1006A000A0E0B0E004C08DE691E0A0E0B0E0480E2C
:1006B000591E6A1E7B1ED301C201AA27BB27C8167A
:1006C000D906EA06FB0610F04F5FD3CF4093C10472
:1006D000309799F4C90164E670E00E948124892B67
:1006E00039F4C90160E971E00E948124892B29F461
:1006F0008EE691E0A0E0B0E004C08DE691E0A0E0DD
:10070000B0E0481A590A6A0A7B0AC418D508E608F4
:10071000F708C90164E670E00E948124EC01C90178
:1007200060E971E00E948124A7E8B3E020E0213075
:1007300039F4309749F4209729F4009729F402C03E
:100740004C9103C04DE101C04CE150E060E070E02D
:10075000C416D506E606F70640F0C41AD50AE60A1E
:10076000F70A2F5F11962C3011F72F5F2093C004EA
:10077000C394C092BF048092740590927505A092B4
:100780007605B0927705DF91CF911F910F91FF9081
:10079000EF90DF90CF90BF90AF909F908F907F9021
:1007A0006F905F904F9008950E9441120ADF8091F0
:1007B000BD0490E00895CF92DF92EF92FF92CF9325
:1007C000DF93EC010E94B90F6B017C018F850E94C1
:1007D0003A0E21E0892B09F420E0298B88898111C8
:1007E00003C081E08227898B29898A89281721F013
:1007F000CD8ADE8AEF8AF88E8D899E89AF89B88D81
:10080000B701A601481B590B6A0B7B0BDB01CA0120
:10081000CB80DC80ED80FE80C416D506E606F706A8
:1008200064F43A81231749F02A83222331F04B895B
:100830005C894F5F5F4F5C8B4B8B3A8131110CC0F1
:10084000CF80D884E984FA84C816D906EA06FB0664
:10085000ACF48B899C890EC0CB84DC84ED84FE844F
:10086000C816D906EA06FB064CF48B899C8991953B
:1008700081959109998388831C8A1B8A2A8BDF9131
:10088000CF91FF90EF90DF90CF9008950F931F933B
:10089000CF93DF931F92CDB7DEB78C01862FF8017F
:1008A0006787408B91E04927418B428B148A138ADA
:1008B000118210821282158A168A178A108E44E1DC
:1008C00050E060E070E043835483658376834AEFB1
:1008D00050E060E070E0478350876187728748EEA0
:1008E00053E060E070E0438754876587768760E077
:1008F00029830E94910EF8018089298181110BC002
:10090000222349F061E087850F90DF91CF911F91FD
:100910000F910C94620E0F90DF91CF911F910F9168
:1009200008951F920F920FB60F9211240BB60F92DB
:100930002F933F934F935F936F937F938F939F93E7
:10094000AF93BF93EF93FF938091B900887F803678
:1009500009F49CC068F5883209F45BC090F48031DA
:1009600009F454C038F4882309F4F6C0883009F437
:100970004DC0F5C0883109F44CC0803209F45DC027
:10098000EEC0803409F468C048F4803309F455C0DF
:10099000883309F0E4C08093B505D8C0803509F4E8
:1009A0004FC0883509F45DC0883409F0D8C0D6C07E
:1009B000883909F4C7C0A8F4883709F467C038F447
:1009C000883609F463C0803709F460C0C8C088382D
:1009D00009F4B8C0803909F45FC0803809F0BFC09D
:1009E0005BC0803B09F486C038F4803A09F466C0E5
:1009F000883A09F47FC0B3C0803C09F4A7C0883CA2
:100A000009F4A4C0883B09F48AC0A9C0809192056A
:100A100010C09091B4058091B305981770F5E091DE
:100A2000B40581E08E0F8093B405F0E0ED56FA4FE7
:100A300080818093BB0085EC86C08093B5058EC015
:100A4000E091B40581E08E0F8093B4058091BB00E6
:100A5000F0E0ED56FA4F80839091B4058091B30594
:100A60006EC0E091B40581E08E0F8093B405809153
:100A7000BB00F0E0ED56FA4F80838091B6058111FE
:100A80006DC081E08093910584EA61C083E080932A
:100A9000B70510927305CFCF80917305803208F0AF
:100AA00051C0E091730581E08E0F809373058091B2
:100AB000BB00F0E0ED5AFA4F8083BDCF85EC809308
:100AC000BC001092B70580917305803230F4E0913C
:100AD0007305F0E0ED5AFA4F10826091730570E0F3
:100AE000E0915105F091520583E595E0199510923A
:100AF000730535C084E08093B705109250051092BD
:100B00004F05E0914D05F0914E05199580914F05E7
:100B1000811105C081E080934F0510922D05E09171
:100B2000500581E08E0F80935005F0E0E35DFA4FB1
:100B300080818093BB009091500580914F0598175C
:100B400008F479CF85E88093BC0009C085EC8093D8
:100B5000BC001092B70503C01092B505F0DBFF9101
:100B6000EF91BF91AF919F918F917F916F915F9125
:100B70004F913F912F910F900BBE0F900FBE0F9092
:100B80001F9018950C944E240C94462488E090E015
:100B9000FBDF682F89E00E94620E89E090E0F4DFBD
:100BA000682F86E00E94620E8AE090E0EDDF682FF9
:100BB00083E00C94620E0F931F9380912102909119
:100BC0002202892B09F454C080912C058823A9F0B6
:100BD0000E94B90F009128051091290520912A053E
:100BE00030912B05DC01CB01801B910BA20BB30BC9
:100BF000893E9340A105B105C0F580912C05811176
:100C000037C0D2DD20911B0230911C02821793075E
:100C100079F50E94E71220911D0230911E02821781
:100C2000930731F50E94E01220911F0230912002BB
:100C300082179307E9F40E94B90F60932805709317
:100C4000290580932A0590932B0581E080932C053C
:100C500088E692E00E94F9148091000290910102CE
:100C60009093CE048093CD0403C010922C05C5CF81
:100C70001F910F910895CF93DF93EC010196288186
:100C80002A33D9F78981843639F51092BA04109243
:100C9000B90423964AE0FE018881219690ED980FD1
:100CA0002091B9043091BA049A3080F4429FB00187
:100CB000439F700D1124082E000C990BC097860FCE
:100CC000971F9093BA048093B904E5CF12161306C8
:100CD00014F420930302EF01219688818F3689F462
:100CE0008A81082E000C990B9C0120533109309306
:100CF000BA042093B904C397059710F42093020215
:100D000024968881823629F51092BA041092B9048B
:100D1000FE0132964AE0819190ED980F2091B9043E
:100D20003091BA049A3080F4429FB001439F700D15
:100D30001124082E000C990BC097860F971F9093D3
:100D4000BA048093B904E7CF30932602209325029A
:100D5000EF012091250230912602032E000C440B56
:100D6000550B60E67AEE80E090E00E94B624DA014E
:100D7000C90122E0880F991FAA1FBB1F2A95D1F72E
:100D80008093B5049093B604A093B704B093B804CD
:100D9000CE01DF91CF910895CF92DF92EF92FF9233
:100DA0001F93CF93DF93CDB7DEB72C970FB6F89490
:100DB000DEBF0FBECDBF182F61ED73E0CE010196EF
:100DC00094D6133029F422E030E040E050E00FC028
:100DD0001C3029F424E030E042E050E008C0103339
:100DE000A1F42091E2063091E30644E050E06EED7C
:100DF00076E0CE0107968DD6BE01695F7F4FCE01AA
:100E00000196F6D5CE0107962CD689819A81009756
:100E100029F00E94CE236B017C0103C0C12CD12C90
:100E20007601CE0101961DD6C6012C960FB6F89418
:100E3000DEBF0FBECDBFDF91CF911F91FF90EF902E
:100E4000DF90CF9008950F931F93CF93DF93CDB78B
:100E5000DEB762970FB6F894DEBF0FBECDBF8C0130
:100E60004AE06A3071050CF5CE010D96FFD56AECAB
:100E700073E0CE01019639D6BE016F5F7F4FCE0180
:100E800007962BD6BE01635F7F4FCE0107968AD5AA
:100E9000BC01C80122D6CE010796E3D5CE0101964A
:100EA000E0D5CE010D96DDD501C0E0D5C801629632
:100EB0000FB6F894DEBF0FBECDBFDF91CF911F916B
:100EC0000F9108950F931F93CF93DF93CDB7DEB7A4
:100ED00068970FB6F894DEBF0FBECDBF8B0183308D
:100EE00081F42091E2063091E30642E050E06EED9D
:100EF00076E0CE010D960DD6B801CE010196A3DFA6
:100F000049C08C3009F038C02091E2063091E306E8
:100F100044E050E06EED76E0CE014396FAD5B8019C
:100F2000CE010D9690DF22E030E040E050E06EED23
:100F300076E0CE010196EDD5BE016F5F7F4FCE0109
:100F40000796CBD5BE01635F7F4FCE0107962AD5AA
:100F5000BE016D5E7F4F26D5BC018EED96E033D588
:100F6000CE0107967ED5CE0101967BD5CE010D969A
:100F700078D5CE01439626C0803329F5CE010D9653
:100F800062DF24E030E040E050E06EED76E0CE013C
:100F90000196BFD5BE016F5F7F4FCE0107969DD5ED
:100FA000BE01635F7F4FCE010796FCD4BC018EED7E
:100FB00096E009D5CE01079654D5CE01019651D5BC
:100FC000CE010D964ED568960FB6F894DEBF0FBED3
:100FD000CDBFDF91CF911F910F910895CAD7609334
:100FE000C7047093C8048093C9049093CA04809185
:100FF000CC04882309F44BC02091C5043091C60469
:10100000C901880F991F2E30310551F0FC01E95FAD
:10101000FD4F4081518141505109518340830AC0A5
:1010200040912302509124024C50510950932402C4
:1010300040932302DC01A95FBD4F6D917C91119714
:10104000FC01E759FC4F40815181641775073CF45E
:10105000FC01E55BFC4F408151814D935C932D3049
:10106000310569F4209121023091220221303105AD
:1010700021F420E82093C40402C01092C404FC01AF
:10108000E95FFD4F608171818091CB041BCF089592
:1010900070D76093C7047093C8048093C904909379
:1010A000CA048091CC04882309F440C02091C5046F
:1010B0003091C604C901880F991F2E30310551F0B7
:1010C000FC01E95FFD4F408151814F5F5F4F5183CC
:1010D00040830AC04091230250912402445F5F4F35
:1010E0005093240240932302DC01A95FBD4F6D9110
:1010F0007C911197FC01E55BFC4F408151814617C3
:1011000057073CF4FC01E759FC4F408151814D9356
:101110005C932D30310511F41092C404FC01E95F99
:10112000FD4F608171818091CB04CCCE08958EBD3E
:1011300000000DB407FEFDCF8EB508952F923F92AB
:101140004F925F926F927F928F929F92AF92BF92D7
:10115000CF92DF92EF92FF920F931F93CF93DF9383
:10116000CDB7DEB72C970FB6F894DEBF0FBECDBF5C
:10117000DBD6C0901305D0901405E0901505F090D3
:101180001605DC01CB018C199D09AE09BF098A3116
:101190009144A105B10508F4D5C1C6D660931305E5
:1011A0007093140580931505909316058091DE06C3
:1011B0009091DF06009719F00E94CE2303C060E0F3
:1011C00070E0CB012AE0C22ED12CE12CF12CA7013A
:1011D00096010E94B62449015A01660F771FFB0150
:1011E000E95CFC4F6080718085E090E063D98629DE
:1011F000972946E0880F991F4A95E1F79C0140E046
:1012000050E060E070E080E090E000E30E94E024C5
:10121000322E432E542E652E762E172F282E9A838B
:10122000C501B401A70196010E94B62449015A01E3
:10123000660F771FFB01E95CFC4F2081318184E060
:1012400090E02B873C8736D92B853C85822B932BCE
:10125000FC0166E0EE0FFF1F6A95E1F79F0140E099
:1012600050E060E070E080E090E006E20E94E02460
:10127000322A432A542A652A762A712B7983282A0E
:101280001A81192B1A83C501B401A70196010E9486
:10129000B62449015A01660F771FFB01E95CFC4F38
:1012A0002081318183E090E02B873C8703D92B8517
:1012B0003C85822B932BF6E0880F991FFA95E1F776
:1012C0009C0140E050E060E070E080E090E00CE1E4
:1012D0000E94E024322A432A542A652A762A198158
:1012E000172B1983282A1A81192B1A83C501B401D7
:1012F000A70196010E94B62449015A01660F771F83
:10130000FB01E95CFC4F2081318182E090E02B877A
:101310003C87D0D82B853C85822B932BB6E0880F59
:10132000991FBA95E1F79C0140E050E060E070E061
:1013300080E090E000E10E94E024322A432A542A0F
:10134000652A762A1981172B1983282A1A81192BC5
:101350001A83C501B401A70196010E94B624490170
:101360005A01660F771FFB01E95CFC4F2081318138
:1013700081E090E02B873C879DD82B853C85822B94
:10138000932B06E0880F991F0A95E1F79C0140E036
:1013900050E060E070E080E090E006E00E94E02431
:1013A000322A432A542A652A762A0981072B282AB9
:1013B0001A81192BC501B401A70196010E94B62418
:1013C000660F771FFB01E95CFC4F8080918080E015
:1013D00090E070D8882999294C0196E0880C991CD6
:1013E0009A95E1F724E0969487942A95E1F7232DC6
:1013F0002829342D3929452D562D672D702F822D02
:10140000912F02E00E94FB24122FB32EC42ED62E61
:10141000E72EF82E80911805882319F05F7B9F7BBB
:1014200002C05064906480911705882321F05F7793
:10143000952E9F7703C05068952E9068A92E60E086
:101440008AE040D4212F3B2D4C2D592D6D2D7E2D22
:101450008F2D9A2D08E30E94FB24822F809567DE52
:10146000212F3B2D4C2D592D6D2D7E2D8F2D9A2DFD
:1014700000E30E94FB24822F809559DE212F3B2D13
:101480004C2D592D6D2D7E2D8F2D9A2D08E20E9409
:10149000FB24822F80954BDE212F3B2D4C2D592D87
:1014A0006D2D7E2D8F2D9A2D00E20E94FB24822F20
:1014B00080953DDE212F3B2D4C2D592D6D2D7E2D00
:1014C0008F2D9A2D08E10E94FB24822F80952FDE1C
:1014D000212F3B2D4C2D592D6D2D7E2D8F2D9A2D8D
:1014E00000E10E94FB24822F809521DE212F3B2DDD
:1014F0004C2D592D6D2D7E2D8F2D9A2D08E00E949B
:10150000FB24822F809513DE812F809510DE61E011
:101510008AE02C960FB6F894DEBF0FBECDBFDF91E8
:10152000CF911F910F91FF90EF90DF90CF90BF90E0
:10153000AF909F908F907F906F905F904F903F9073
:101540002F90C0C32C960FB6F894DEBF0FBECDBF50
:10155000DF91CF911F910F91FF90EF90DF90CF908F
:10156000BF90AF909F908F907F906F905F904F90C3
:101570003F902F9008950895CF92DF92EF92FF92BF
:101580000F931F93CF93DF936C017A018B01C0E01F
:10159000D0E0CE15DF0589F0D8016D918D01D6011F
:1015A000ED91FC910190F081E02DC6011995892BF8
:1015B00011F47E0102C02196ECCFC701DF91CF91DB
:1015C0001F910F91FF90EF90DF90CF900895FC0155
:1015D000918D828D981761F0828DDF01A80FB11D6A
:1015E0005D968C91928D9F5F9F73928F90E008958E
:1015F0008FEF9FEF0895FC01918D828D981731F048
:10160000828DE80FF11D858D90E008958FEF9FEF9B
:101610000895FC01918D228D892F90E0805C9F4F71
:10162000821B91098F73992708958AEE95E0F1DF67
:1016300021E0892B09F420E0822F0895FC01848D9C
:10164000DF01A80FB11DA35ABF4F2C91848D90E0EC
:1016500001968F739927848FA689B7892C93A089C7
:10166000B1898C9180648C93938D848D981306C07E
:101670000288F389E02D80818F7D80830895EF9229
:10168000FF920F931F93CF93DF93EC0181E0888F3C
:101690009B8D8C8D981305C0E889F989808185FD23
:1016A00023C0F62E0B8D10E00F5F1F4F0F73112715
:1016B000E02E8C8DE8120BC00FB607FCFACFE8893C
:1016C000F989808185FFF5CFCE01B8DFF2CF8B8D10
:1016D000FE01E80FF11DE35AFF4FF0820B8FEA89FC
:1016E000FB898081806207C0EE89FF896083E88979
:1016F000F98980818064808381E090E0DF91CF91DF
:101700001F910F91FF90EF900895CF93DF93EC011D
:10171000888D8823C1F0EA89FB89808185FD05C019
:10172000A889B9898C9186FD0EC00FB607FCF5CF4C
:10173000808185FFF2CFA889B9898C9185FFEDCF93
:10174000CE017CDFE8CFDF91CF91089580E090E07B
:10175000892B19F06ADF811125C080E090E0892B88
:1017600041F080E090E0892B21F00E94000081117F
:101770001CC080E090E0892B41F080E090E0892B54
:1017800021F00E940000811113C080E090E0892BBD
:10179000A1F080E090E0892B81F00E94000081118F
:1017A0000AC008950E940000D8CF0E940000E1CF37
:1017B0000E940000EACF0C940000089590E0FC0124
:1017C0003197E231F10508F04EC08827E758FF4F06
:1017D0008F4F0C94D224809180008F7703C080912A
:1017E00080008F7D80938000089580918000877FA6
:1017F000F9CF84B58F7702C084B58F7D84BD0895FD
:101800008091B0008F7703C08091B0008F7D80936E
:10181000B0000895809190008F7707C0809190006C
:101820008F7D03C080919000877F80939000089502
:101830008091A0008F7707C08091A0008F7D03C0AA
:101840008091A000877F8093A0000895809120015F
:101850008F7707C0809120018F7D03C08091200188
:10186000877F8093200108950E940F26CF93DF93F6
:10187000EC0188819981009711F00E94362319822A
:1018800018821D821C821B821A82DF91CF910895DB
:101890000F931F93CF93DF93EC0188819981009779
:1018A00029F02A813B812617370788F48B016F5F67
:1018B0007F4F0E942B25009761F0998388831B83BB
:1018C0000A832C813D81232B11F4FC01108281E0DD
:1018D00001C080E0DF91CF911F910F910895EF92A9
:1018E000FF920F931F93CF93DF93FC0124813581E7
:1018F0006115710511F480E018C041155105A1F082
:101900007B01EC018A01020F131FB801C1DF88239C
:1019100091F3288139818C819D81B701820F931FBA
:101920000E941C261D830C8381E0DF91CF911F91C3
:101930000F91FF90EF900895EF92FF920F931F93F6
:10194000CF93DF93EC017B018A01BA01A1DF811102
:1019500003C0CE018BDF07C01D830C83B7018881D4
:1019600099810E941C26CE01DF91CF911F910F918A
:10197000FF90EF900895CF93DF93EC01611571050F
:1019800059F0FB0101900020E9F73197AF01461BA8
:10199000570BA5DF811102C0CE0168DFCE01DF91B8
:1019A000CF910895CF93DF93EC01FB0144815581E2
:1019B0006081718194DF811102C0CE0157DFCE01B9
:1019C000DF91CF910895CF93DF93EC01FB01861750
:1019D000970751F0608171816115710521F0448193
:1019E0005581AADF01C042DFCE01DF91CF9108957A
:1019F0000F931F93CF93DF938C01EB01FC01808148
:101A000091810097B1F0688179816115710579F054
:101A1000428153812C813D814217530740F00E943F
:101A20001C268C819D81F8019583848313C00E94BC
:101A3000362388819981F801918380838A819B81F3
:101A4000938382838C819D819583848319821882FC
:101A50001B821A821D821C82DF91CF911F910F91F0
:101A60000895FC01808191810C943623EF92FF92BE
:101A70000F931F93CF93DF93CDB7DEB762970FB667
:101A8000F894DEBF0FBECDBF8C01CB01F8011182EF
:101A90001082138212821582148250E09E012F5F01
:101AA0003F4F7901B9010E94F423F7010190002012
:101AB000E9F73197AF014E195F09B701C8013CDF63
:101AC00062960FB6F894DEBF0FBECDBFDF91CF9107
:101AD0001F910F91FF90EF900895FC0111821082E9
:101AE00013821282158214826ECFFC011182108241
:101AF00013821282158214826115710549F0FB016F
:101B000001900020E9F73197AF01461B570B14CF26
:101B10000895BF92CF92DF92EF92FF920F931F939F
:101B2000CF93DF937C016B01EA018901241735070C
:101B300020F48D2FE901042F182F66EB73E0C70105
:101B4000D4DFD60114968D919C911597C817D907AB
:101B500038F58017910708F48C01D601ED91FC91BE
:101B60001197E00FF11FB08010824D915C91BA0186
:101B70006C0F7D1F6115710559F0FB01019000206C
:101B8000E9F73197AF01461B570BC701D5DE02C0FD
:101B9000C7016CDED601ED91FC91E00FF11FB08220
:101BA000C701DF91CF911F910F91FF90EF90DF90D0
:101BB000CF90BF9008951F920F920FB60F921124ED
:101BC0000BB60F922F933F934F935F936F937F9337
:101BD0008F939F93AF93BF93EF93FF938AEE95E01C
:101BE0002DDDFF91EF91BF91AF919F918F917F91EB
:101BF0006F915F914F913F912F910F900BBE0F907E
:101C00000FBE0F901F9018951F920F920FB60F9254
:101C100011240BB60F922F938F939F93EF93FF9303
:101C2000E091FA05F091FB058081E0910006F091CA
:101C3000010682FD12C09081809103068F5F8F7331
:101C400020910406821751F0E0910306F0E0E6517E
:101C5000FA4F958F8093030601C08081FF91EF9129
:101C60009F918F912F910F900BBE0F900FBE0F90F1
:101C70001F901895CF93DF93282F30E0F901E0579C
:101C8000FD4F8491F901EC5AFE4FD491F901EC54C7
:101C9000FE4FC491CC2389F0811190DDEC2FF0E050
:101CA000EE0FFF1FEA58FD4FA591B491EC91ED2383
:101CB00081E090E021F480E002C080E090E0DF91DC
:101CC000CF9108951F93CF93DF93282F30E0F90130
:101CD000E057FD4F8491F901EC5AFE4FD491F90180
:101CE000EC54FE4FC491CC23C1F0162F811166DD58
:101CF000EC2FF0E0EE0FFF1FE656FE4FA591B491DA
:101D00008FB7F894111105C09C91ED2FE095E92350
:101D100002C0EC91ED2BEC938FBFDF91CF911F911F
:101D20000895CF93DF9390E0FC01EC5AFE4F24918D
:101D3000FC01EC54FE4F8491882361F190E0880F00
:101D4000991FFC01E65CFE4FC591D491FC01E6565B
:101D5000FE4FA591B491611109C09FB7F894888195
:101D6000209582238883EC912E230BC0623061F48E
:101D70009FB7F8943881822F809583238883EC91D4
:101D80002E2B2C939FBF06C08FB7F894E8812E2B83
:101D900028838FBFDF91CF9108951F93CF93DF9357
:101DA000182FEB0161E0BDDF209711F460E004C063
:101DB000CF3FD10531F461E0812FDF91CF911F91A9
:101DC00081CFE12FF0E0E057FD4FE4914E2F50E03E
:101DD000FA013197E231F10508F09DC08827E557F7
:101DE000FF4F8F4F0C94D22484B5806884BDC7BD4B
:101DF00097C084B5806284BDC8BD92C080918000C8
:101E0000806880938000D0938900C093880088C048
:101E100080918000806280938000D0938B00C0937B
:101E20008A007EC080918000886080938000D0937B
:101E30008D00C0938C0074C08091B0008068809346
:101E4000B000C093B3006CC08091B00080628093FA
:101E5000B000C093B40064C080919000806880930B
:101E60009000D0939900C09398005AC08091900040
:101E7000806280939000D0939B00C0939A0050C0E2
:101E800080919000886080939000D0939D00C093D3
:101E90009C0046C08091A00080688093A000809143
:101EA000A0008F7B8093A000D093A900C093A800CE
:101EB00037C08091A00080628093A000D093AB00D7
:101EC000C093AA002DC08091A00088608093A000DC
:101ED000D093AD00C093AC0023C0809120018068F6
:101EE00080932001D0932901C093280119C08091CB
:101EF0002001806280932001D0932B01C0932A019E
:101F00000FC080912001886080932001D0932D0123
:101F1000C0932C0105C0C038D1050CF04CCF46CF82
:101F2000DF91CF911F9108953FB7F89480918D056F
:101F300090918E05A0918F05B091900526B5A89B34
:101F400005C02F3F19F00196A11DB11D3FBFBA2F4B
:101F5000A92F982F8827820F911DA11DB11DBC01AB
:101F6000CD0142E0660F771F881F991F4A95D1F770
:101F700008952FB7F8946091890570918A05809132
:101F80008B0590918C052FBF089560938405709305
:101F900085058093860590938705DC01CB01845DE0
:101FA0009E4FAF4FBF4F8093800590938105A093C4
:101FB0008205B093830582E090E090937F05809343
:101FC0007E05D7DF60937A0570937B0580937C054F
:101FD00090937D0508951F920F920FB60F921124D2
:101FE0002F933F938F939F93AF93BF9380918905D6
:101FF00090918A05A0918B05B0918C053091880550
:1020000023E0230F2D3720F40196A11DB11D05C03B
:1020100026E8230F0296A11DB11D20938805809309
:10202000890590938A05A0938B05B0938C058091C8
:102030008D0590918E05A0918F05B0919005019628
:10204000A11DB11D80938D0590938E05A0938F05E2
:10205000B0939005BF91AF919F918F913F912F9138
:102060000F900FBE0F901F9018951F920F920FB6F2
:102070000F9211240BB60F922F933F934F935F93C0
:102080006F937F938F939F93EF93FF934091DC0522
:102090005091DD056091DE057091DF054115510518
:1020A0006105710599F080918A04E0918B04F091AB
:1020B0008C0490818927808314161506160617064E
:1020C000D4F4415051096109710915C08091700023
:1020D0008D7F8093700090918A04E0918B04F09141
:1020E0008C048081282F30E0892F90E08095909596
:1020F0008223932380834093DC055093DD05609316
:10210000DE057093DF05FF91EF919F918F917F9195
:102110006F915F914F913F912F910F900BBE0F9058
:102120000FBE0F901F9018951F920F920FB60F922F
:1021300011240BB60F922F933F938F939F93AF93DE
:10214000BF93EF93FF938091E0059091E105A091FB
:10215000E205B091E305892B8A2B8B2B51F18091FD
:102160008D04E0918E04F0918F0490818927808303
:102170008091E0059091E105A091E205B091E30521
:10218000181619061A061B064CF58091E005909169
:10219000E105A091E205B091E3050197A109B1091C
:1021A0008093E0059093E105A093E205B093E305E9
:1021B00015C080916F008D7F80936F0090918D048A
:1021C000E0918E04F0918F048081282F30E0892FD8
:1021D00090E080959095822393238083FF91EF91E7
:1021E000BF91AF919F918F913F912F910F900BBE17
:1021F0000F900FBE0F901F9018951F920F920FB661
:102200000F9211240BB60F922F933F938F939F93AE
:10221000AF93BF93EF93FF938091E4059091E50511
:10222000A091E605B091E705892B8A2B8B2B51F104
:1022300080919004E0919104F0919204908189271B
:1022400080838091E4059091E505A091E605B09129
:10225000E705181619061A061B064CF58091E405C9
:102260009091E505A091E605B091E7050197A109D8
:10227000B1098093E4059093E505A093E605B0933A
:10228000E70515C080916E008D7F80936E00909160
:102290009004E0919104F09192048081282F30E025
:1022A000892F90E080959095822393238083FF91DE
:1022B000EF91BF91AF919F918F913F912F910F908F
:1022C0000BBE0F900FBE0F901F9018953F924F922C
:1022D0005F926F927F928F929F92AF92BF92CF92B6
:1022E000DF92EF92FF920F931F93CF93DF93382EDD
:1022F000962E842EF90184E6E816F1042CF082EB88
:10230000E81A87E0F80A03C08EE1E80EF11CE092BB
:10231000C1040093C004E093BF043092BD049092C6
:10232000BC048092BB04AE2DB0E020E833E341EE64
:1023300051E00E945C242B013C0122EB37E0FF249A
:1023400084E6C82ED12CC0E9D1E0C901825B974058
:102350008E159F05DCF4C90183709927892B99F4A8
:10236000C901B6010E948124892B31F4C901BE0143
:102370000E948124892B39F480E8480E81E5581E9B
:1023800081E0681E711C2F5F3F4FDFCF8EE4E81A9B
:1023900088EFF80AC70164E670E00E9481246C01AE
:1023A000C70160E971E00E9481245C01C1E0D0E0D6
:1023B000112783E0E822FF24C017D1072CF5C23093
:1023C000D10589F4E114F10471F4C114D10419F4B4
:1023D000A114B10441F480E8480E8BE3581E86E254
:1023E000681E711C0FC0DE01AA57BC4FAC91B0E053
:1023F00020E831E541E050E00E945C24460E571E83
:10240000681E791E2196D8CF292D30E0ACE3B0E0CC
:102410000E9466246B017C01C80CD11CE11CF11CDC
:10242000232D30E0A0E1BEE00E946624C60ED71E38
:10243000E81EF91EDF01BB27119720E831E541E0D6
:1024400050E00E94DA24DC01CB018C0D9D1DAE1DF5
:10245000BF1DBC01CD01640D751D861D971DDF914B
:10246000CF911F910F91FF90EF90DF90CF90BF9091
:10247000AF909F908F907F906F905F904F903F9024
:1024800084CDCF92DF92EF92FF920F931F9371DD75
:10249000C0907A05D0907B05E0907C05F0907D059A
:1024A0008B019C010C191D092E093F09809184059F
:1024B00090918505A0918605B0918705083E13404F
:1024C00021053105D0F00196A11DB11D8093840531
:1024D00090938505A0938605B0938705B701A60163
:1024E00048515C4F6F4F7F4F40937A0550937B0567
:1024F00060937C0570937D05CACF40918005509113
:102500008105609182057091830584179507A60760
:10251000B70780F1E0917805F0917905309751F196
:102520001995611571058105910511F02EDD22C007
:102530008091840590918505A0918605B0918705CD
:10254000845D9E4FAF4FBF4F809380059093810570
:10255000A0938205B093830581E090E020917E05F1
:1025600030917F05232B11F480E090E090937F055C
:1025700080937E0560918405709185058091860524
:10258000909187051F910F91FF90EF90DF90CF9072
:10259000089577DF0E94E1028091C10490E08E549B
:1025A000984F08956EDF0E94E1028091C00490E090
:1025B000089567DF0E94E1028091BF0490E00895D2
:1025C00060DF0E94E1028091BB0490E0089559DF32
:1025D0000E94E1028091BC0490E008953F924F92E6
:1025E0005F926F927F928F929F92AF92BF92CF92A3
:1025F000DF92EF92FF920F931F93CF93DF9300D060
:102600001F92CDB7DEB72091E90527FDA9C1498307
:102610005A836B837C838C0161E08091E80581DBC8
:102620003090E905832D8D7F4801A12CB12C09F054
:10263000B7C060E072E18AE790E0A50194010E94D2
:10264000B62429013A0169017A0121E0C21AD108B0
:10265000E108F1088FEFC816D104E104F10409F094
:1026600008F44CC060E472E48FE090E0A5019401AE
:102670000E94B62469017A0191E0C91AD108E108E3
:10268000F108A2E03A1220C0BFEFCB16D104E1045A
:10269000F10409F008F462C160E970ED83E090E0B4
:1026A000A50194010E94B62469017A01E1E0CE1AE5
:1026B000D108E108F108FFEFCF16D104E104F104DD
:1026C00009F0C0F583E065C02FEFC216D104E10424
:1026D000F104B1F0A8F068E478EE81E090E0A501A3
:1026E00094010E94B62469017A0181E0C81AD108D8
:1026F000E108F108332009F4D9C027C181E001C005
:1027000082E0332091F045C0D301C2012AE0B595A3
:10271000A795979587952A95D1F76C017D01E1E002
:10272000CE1AD108E108F10885E095B5987F892B8C
:1027300085BD66C068E478EE81E090E0A501940173
:102740000E94B62469017A01B1E0CB1AD108E108F0
:10275000F108EFEFCE16D104E104F10409F008F41A
:10276000A3C064E274EF80E090E0A50194010E94B0
:10277000B62469017A0191E0C91AD108E108F1088B
:10278000AFEFCA16D104E104F10411F008F0B0C0B3
:1027900085E09091B100987F892B8093B10030C083
:1027A00060E072E18AE790E0A50194010E94B624FE
:1027B00069017A01F1E0CF1AD108E108F108C114EA
:1027C000D10421E0E206F10488F068E478EE81E0CB
:1027D00090E0A50194010E94B62469017A0181E08C
:1027E000C81AD108E108F10893E001C091E0A1E026
:1027F0003A1206C080918100887F892B80938100E6
:1028000089819A81AB81BC81892B8A2B8B2B81F0AA
:10281000D801AA0FBB1F29813A814B815C810E949C
:102820005C2428EE33E040E050E00E94942403C092
:102830002FEF3FEFA90191E03916A1F0A2E03A167F
:1028400019F131108DC0C7BC2093E4053093E50524
:102850004093E6055093E70580916E008260809377
:102860006E007EC0D0928900C09288002093E0055F
:102870003093E1054093E2055093E30580916F00AA
:10288000826080936F006CC0C092B3002093DC051F
:102890003093DD054093DE055093DF058091700095
:1028A0008260809370005CC084E073CF8FEFC816A5
:1028B000D104E104F104D1F0C8F062E17AE780E0EC
:1028C00090E0A50194010E94B62469017A01F1E02B
:1028D000CF1AD108E108F1082FEFC216D104E104A4
:1028E000F10411F008F010CF84E01FCF83E01DCF7A
:1028F00062E17AE780E090E0A50194010E94B624AD
:1029000069017A0191E0C91AD108E108F108AFEF35
:10291000CA16D104E104F104B1F0A8F0D301C20158
:102920004AE0B595A795979587954A95D1F76C019B
:102930007D01E1E0CE1AD108E108F108332009F465
:10294000F3CE87E026CF86E0DCCEBFEFCB16D104F6
:10295000E104F10409F060F684E0D3CE82E019CFFF
:102960000F900F900F900F90DF91CF911F910F91CB
:10297000FF90EF90DF90CF90BF90AF909F908F909F
:102980007F906F905F904F903F900895009769F00F
:10299000FC0101900020E9F73197AF01481B590B6A
:1029A000BC018AEE95E00C94BC0A80E090E00895AA
:1029B0000F931F93CF93DF938C01C0E0D0E0F80119
:1029C000EC0FFD1F6491662371F0E091EA05F09130
:1029D000EB050190F081E02D8AEE95E01995892BA9
:1029E00011F02196ECCFCE01DF91CF911F910F9185
:1029F0000895CF93DF93DCDFEC0184EB93E0C6DF37
:102A00008C0F9D1FDF91CF910895CF93DF93FC0131
:102A100044815581608171818AEE95E00E94BC0AF3
:102A2000EC0184EB93E0B2DF8C0F9D1FDF91CF911F
:102A300008958F929F92AF92BF920F931F93CF935F
:102A4000DF93CDB7DEB7A1970FB6F894DEBF0FBE08
:102A5000CDBF19A2423008F44AE08E010F5D1F4F2E
:102A6000842E912CA12CB12CA50194010E949424B8
:102A7000E62FB901CA0101501109EA3014F4E05DF2
:102A800001C0E95CD801EC93232B242B252B61F7A3
:102A9000C8017CDFA1960FB6F894DEBF0FBECDBF94
:102AA000DF91CF911F910F91BF90AF909F908F902A
:102AB0000895CF92DF92EF92FF92CF93DF936C0154
:102AC000990FEE08FF08F7FE19C0E091EA05F091B2
:102AD000EB050190F081E02D6DE28AEE95E019950D
:102AE000EC0166277727CB016C197D098E099F09B8
:102AF0004AE09FDF7C01EC0EFD1E05C04AE0C701E5
:102B0000B60197DF7C0184EB93E040DF8E0D9F1DC3
:102B1000DF91CF91FF90EF90DF90CF9008958F924B
:102B20009F92AF92BF92CF92DF92EF92FF92FCD929
:102B30004B015C0188EEC82E83E0D82EE12CF12CED
:102B4000F3D9DC01CB0188199909AA09BB09883E90
:102B50009340A105B10558F021E0C21AD108E1085F
:102B6000F10888EE880E83E0981EA11CB11CC114E8
:102B7000D104E104F10421F7FF90EF90DF90CF90B2
:102B8000BF90AF909F908F9008952091DB0590911A
:102B9000DA05213208F04AC08091B7058111FCCFD7
:102BA00032E03093B70531E03093B6053FEF309314
:102BB000B5051092B4052093B305AAEBB5E043E93F
:102BC00055E0FA013E2F341B321718F43D91319332
:102BD000F9CF1092920520919205990F922B909324
:102BE000920590919105913061F410929105909128
:102BF00092059093BB009091BC0093FDF8CF95ECAB
:102C000001C095EE9093BC009091B7059230E1F32E
:102C10009091B5059F3F79F08091B505803241F0E4
:102C20008091B505803331F084E005C081E003C0B8
:102C300082E001C083E01092B9051092DB0510928A
:102C4000B8050895DF92EF92FF920F931F93CF93F1
:102C5000DF931F921F92CDB7DEB7F82E162F81E0BB
:102C60008093B80588E68093DA051092B905109232
:102C7000DB0560E087E896E02A8349830E942C0206
:102C80008AE0D82E4981842F6D2D0E947524692FEA
:102C900030E1839F600D112487E896E00E942C02AA
:102CA000812F6D2D0E947524692F30E1839F600D67
:102CB000112487E896E00E942C028F2D6D2D0E9432
:102CC0007524692F30E1839F600D112487E896E019
:102CD0000E942C0261E087E896E00E942C022A8183
:102CE000822F6D2D0E947524692F20E1829F600D37
:102CF000112487E896E00E942C02802F6D2D0E94FF
:102D00007524692F30E1839F600D112487E896E0D8
:102D10000E942C028E2D6D2D0E947524692F20E1BA
:102D2000829F600D112487E896E00E942C0260E0EB
:102D300087E896E00E942C020F900F90DF91CF91D0
:102D40001F910F91FF90EF90DF901FCFCF93DF93F4
:102D5000CDB7DEB7CE55D1090FB6F894DEBF0FBEA2
:102D6000CDBF789484B5826084BD84B5816084BD14
:102D700085B5826085BD85B5816085BD80916E0019
:102D8000816080936E00109281008091810082604A
:102D90008093810080918100816080938100809187
:102DA00080008160809380008091B1008460809376
:102DB000B1008091B00081608093B000809191005B
:102DC0008260809391008091910081608093910056
:102DD000809190008160809390008091A10082603A
:102DE0008093A1008091A10081608093A1008091D7
:102DF000A00081608093A000809121018260809377
:102E00002101809121018160809321018091200125
:102E100081608093200180917A00846080937A00A1
:102E200080917A00826080937A0080917A0081603C
:102E300080937A0080917A00806880937A00109263
:102E4000C1001FB7F8948091CF04811127C0E9EE2B
:102E5000F1E08491E9E8F1E09491E82FF0E0EE0FE1
:102E6000FF1FE65CFE4FA591B491EC91E92321F49C
:102E700061E085E30E94620E61E085E30E94910EAD
:102E80008CB580618CBD8CB580648CBD61E084E3C1
:102E90000E94910E61E083E30E94910E8091CF0425
:102EA0008F5F8093CF041FBF8CB5837F88608CBDFC
:102EB0008CB58C7F81608CBD8DB581608DBD80E0CF
:102EC0000E94970880E00E94970880E00E9497087F
:102ED00080E00E94970880E00E94970880E00E94AE
:102EE000970880E00E94970880E00E94970810925F
:102EF0009404109293041092B9051092DB0510927D
:102F0000B70581E08093B6051092910561E084E1F8
:102F10000E94620E61E085E10E94620E8091B9001C
:102F20008E7F8093B9008091B9008D7F8093B90026
:102F300088E48093B80085E48093BC00E091FA05B2
:102F4000F091FB0582E08083E091F605F091F705B2
:102F50001082E091F805F091F90580E180831092EC
:102F60000206E091FE05F091FF0586E08083E09186
:102F7000FC05F091FD05808180618083E091FC0576
:102F8000F091FD05808188608083E091FC05F091DF
:102F9000FD05808180688083E091FC05F091FD054E
:102FA00080818F7D808381E090E00E94C4058C3019
:102FB00019F088E190E002C08CE090E09093240248
:102FC0008093230280E090E00E94C405882321F0D2
:102FD00081E08093040202C01092040282E090E03B
:102FE0000E94C4058F3F29F410921C0210921B020C
:102FF00005C090E090931C0280931B0283E090E058
:103000000E94C4058F3F29F410921E0210921D02E7
:1030100005C090E090931E0280931D0284E090E032
:103020000E94C4058F3F29F41092200210921F02C3
:1030300005C090E09093200280931F0286E090E00C
:103040000E94C4058F3F29F410922202109221029F
:1030500005C090E0909322028093210287E090E0E7
:103060000E94C4058F3F19F410920C0506C091E030
:10307000811101C090E090930C0561E089E00E940D
:10308000910E61E086E00E94910E61E083E00E9473
:10309000910E8091D004833008F083C092E0909329
:1030A000E805E82FF0E0E650FE4FE491E093E905F3
:1030B0008F5F8093D004E13031F1E23009F44AC0EF
:1030C000E11172C014BC15BC84B5826084BD85B5A5
:1030D000816085BD8091E80590E0FC01EC54FE4FD5
:1030E000E491F0E0EE0FFF1FE656FE4F259134917C
:1030F0003093920420939104FC01EC5AFE4FE4912A
:10310000E093900451C01092800010928100809151
:10311000810088608093810080918100816080932C
:1031200081008091E80590E0FC01EC54FE4FE491B1
:10313000F0E0EE0FFF1FE656FE4F259134913093DD
:103140008F0420938E04FC01EC5AFE4FE491E0932F
:103150008D042AC01092B0001092B1008091B0008E
:1031600082608093B0008091B10081608093B10053
:103170008091E80590E0FC01EC54FE4FE491F0E012
:10318000EE0FFF1FE656FE4F2591349130938C04CD
:1031900020938B04FC01EC5AFE4FE491E0938A04E7
:1031A00003C08FEF8093E9058091000290910102A6
:1031B0000E943B06909301028093000261E08AE046
:1031C0000E94910E61E088E00E94910E60E088E02C
:1031D0000E94620E6CB570E080E090E042E029DC75
:1031E00084EB93E0D3DB6CB570E080E090E042E0EC
:1031F00020DC84EB93E0CADB62E086E30E94910E60
:1032000062E088E30E94910E62E087E30E94910EE3
:1032100061E082E00E94910E04E110E020E030E0E5
:103220000093C8061093C9062093CA063093CB06B4
:103230004EE150E060E070E04093CC065093CD0644
:103240006093CE067093CF0680ED97E0A0E0B0E0EB
:103250008093D0069093D106A093D206B093D30664
:103260000093AF061093B0062093B1063093B206D8
:103270004093B3065093B4066093B5067093B606B8
:103280008093B7069093B806A093B906B093BA0698
:10329000009396061093970620939806309399060C
:1032A00040939A0650939B0660939C0670939D06EC
:1032B00080939E0690939F06A093A006B093A106CC
:1032C0008AE192E075DB25E030E042E050E064EE18
:1032D00076E0CE0101961C010E94890D22E030E0CB
:1032E00041E050E064EE76E0CE01875B9F4F0E94A4
:1032F000890DBE01675B7F4FCE018D5B9F4F0E94A2
:103300006D0D67EB73E0CE018D5B9F4F0E94BB0C90
:10331000B1010E94D20C79DBCE018D5B9F4F0E94E0
:10332000310DCE01875B9F4F0E94310DC1010E947C
:10333000310D8FE092E05DDB8091000290910102FF
:103340009093CE048093CD040E943B066FEF70E013
:1033500089E00E94CD0EE3DB60E070E089E00E942E
:10336000CD0E6FEF70E086E00E94CD0ED8DB60E0FE
:1033700070E086E00E94CD0E6FEF70E083E00E9467
:10338000CD0ECDDB89EB93E001DB8091EA069091D5
:10339000EB06009711F48EEE96E0F101E81BF90BB5
:1033A000CF0187DB65EC73E0C1010E94750D6CEC09
:1033B00073E0CE0107960E94750D63ED73E0CE01B8
:1033C0000D960E94750D6AED73E0CE0143960E9442
:1033D000750D61EE73E0CE0149960E94750D68EEA1
:1033E00073E0CE014F960E94750D6FEE73E0CE0133
:1033F00085960E94750D66EF73E0CE018B960E9454
:10340000750D6DEF73E0CE01C1960E94750D64E0FD
:1034100074E0CE01C7960E94750D66EB73E0CE0195
:10342000CD960E94750D64EE76E0CE01CD960E9499
:10343000E30C87E092E0BCDA80E090E03ADB0E94A7
:10344000B90F4B015C01F8EE8F0EF3E09F1EA11C3B
:10345000B11C1FEFA4EFEA2EFF24F39400E0B6E0C6
:103460005B2E8BE3C82E8FE1D82E87E30E943A0EA5
:10347000892B09F401E088E30E943A0E892B09F4B4
:1034800000E0FBE07F2E662463940E94B90FDC010C
:10349000CB0188199909AA09BB0997010F2C000CC7
:1034A000440B550B281739074A075B07F8F40E94AD
:1034B000B90F4B015C01011101C01F5F1A3021F0EF
:1034C0001B3031F4612C04C0E8EBEE2EEBE0FE2E55
:1034D000B101519E600D711D11248EED96E00E9488
:1034E000E30C8EED96E091DA0E949E087A947110BA
:1034F000CCCFC6010197F1F76110B7CF8DEF91E006
:1035000078DA8E010D5B1F4F06501109C8010E9429
:10351000310D02151305C1F780910C0581110E9430
:10352000C60581E08093B80588E68093DA0510929D
:10353000B9051092DB0560E087E896E00E942C0256
:1035400024DB8091B7058111FCCF81E08093B70522
:103550008093B6059FEF9093B5051092B40596E061
:103560009093B3058093920580919205806D80932E
:10357000920580919105813061F4109291058091BE
:1035800092058093BB008091BC0083FDF8CF85EC51
:1035900001C085EE8093BC008091B7058130E1F3D6
:1035A0008091B405873018F48091B40501C087E09C
:1035B000A3E9B5E025E934E0F9019E2F921B9817A5
:1035C00018F49D919193F9CF1092940480939304F1
:1035D00087E896E00E94E101982F92959F708F7086
:1035E000A82E2AE0929FA00C11244A2C512C509214
:1035F000D8044092D70487E896E00E94E101982F12
:1036000092959F708F703AE0939F800D11246C9675
:103610008FAF6C97682E712C7092D6046092D5048F
:1036200087E896E00E94E101982F969596959695E9
:103630009670292F220F220F920F8F70980F6D9680
:103640009FAF6D97892E912C9092D4048092D304D1
:1036500087E896E00E94E101982F92959F708F7005
:103660004AE0949F800D112490E09093D2048093BF
:10367000D10487E896E00E94E101982F92959F700F
:103680008F70D82E6AE0969FD00C11242D2D30E03B
:103690003093DA042093D90487E896E06F96DFAE82
:1036A0006F976E963FAF6E970E94E101982F9295AB
:1036B0009F708F70C82EEAE09E9FC00C11240C2DC5
:1036C00010E01093DC040093DB0487E896E00E948E
:1036D000E101982F92959F708F70B82EFAE09F9F0E
:1036E000B00C1124EB2CF12CF092DE04E092DD04FE
:1036F0006F962FAD6F976E963FAD6E97A201B30197
:10370000C4010E946611EB2C0C2D2D2D4A2D6C96B8
:103710006FAD6C976D968FAD6D9794DA72E0472E12
:10372000512C612C712C0091CD041091CE04F80124
:103730008081882309F434C10E94B90FC090E50448
:10374000D090E604E090E704F090E804DC01CB01BF
:103750008C199D09AE09BF09C090E104D090E20424
:10376000E090E304F090E404C816D906EA06FB06EC
:1037700008F016C10E94B90F6B017C016093E5044B
:103780007093E6048093E7049093E8041092BA04DF
:103790001092B904C8018C01FC01B080019640ED83
:1037A0004B0D2091B9043091BA044A3088F4FAE004
:1037B000F29FA001F39F500D1124EB2DBB0CFF0BCA
:1037C000F097E40FF51FF093BA04E093B904E3CF48
:1037D0006091B5047091B6048091B7049091B804DB
:1037E0002115310529F0032E000C440B550B05C0A3
:1037F0002091030230E040E050E00E94B624209384
:10380000E1043093E2044093E3045093E4048B2DED
:10381000BB0C990BAA0BBB0BFC01E156F109E7307D
:10382000F10530F48827EE58FF4F8F4F0C94D224C7
:103830001092E00415C081E001C083E08093E004B1
:103840000FC085E0FBCF86E0F9CFF8E0F093E0040D
:1038500007C02AE02093E00403C03CE03093E0047A
:10386000F8018181833219F00F5F1F4F07C08091EB
:10387000E0048F5F8093E0040E5F1F4FF8018081AA
:103880008E32E1F48090E1049090E204A090E30491
:10389000B090E404C501B401A30192010E94B624D2
:1038A000820E931EA41EB51E8092E1049092E20443
:1038B000A092E304B092E4040F5F1F4FF8018081EF
:1038C00080538A3028F48093DF040F5F1F4F04C0B9
:1038D000809102028093DF048091DF04F8019081DF
:1038E0009C3211F40F5F1F4F2091E004222309F452
:1038F00057C08090E1049090E204A090E304B0905F
:10390000E40490E004973CE0389FF001399FF00D0B
:103910001124E20FF11DEE0FFF1FEB5BFD4FB50110
:10392000A401808191810E94EE120E94B90FDC01F6
:10393000CB018C199D09AE09BF0988169906AA0604
:10394000BB0670F50E94B90F6093E5047093E6041E
:103950008093E7049093E8048091E905813051F069
:10396000823071F0811111C080916E008D7F809343
:103970006E000BC080916F008D7F80936F0005C03B
:10398000809170008D7F8093700060E08091E805E9
:103990000E94620E8DE292E02CD890E080E002C09E
:1039A000902F812F9093CD048093CE040E94B90F65
:1039B00000910F051091100520911105309112050D
:1039C000DC01CB01801B910BA20BB30B0697A10569
:1039D000B10508F489C080910402811110C060E033
:1039E00070E089E00E94CD0E60E070E086E00E9409
:1039F000CD0E60E070E083E00E94CD0E6BC0809140
:103A00000C05811167C00091EB041091EC04C80112
:103A1000880F991F800F911FFC01EE0FFF1FE955C2
:103A2000FD4F609105027091060220813181620F85
:103A3000731F7093060260930502FC01EE0FFF1FD7
:103A4000E755FD4F2091040530910505E080F18098
:103A5000E20EF31EF0920505E0920405880F991F0F
:103A6000FC01E555FD4F8091020590910305C08052
:103A7000D180C80ED91ED0920305C092020589E0FC
:103A80000E94CD0EB70186E00E94CD0EB60183E004
:103A90000E94CD0E8091E9049091EA0401969093E2
:103AA000EA048093E9048F3F910551F40F5F1F4FA3
:103AB0001093EC040093EB041092EA041092E904D2
:103AC0008091EB049091EC04069724F01092EC04A2
:103AD0001092EB040E94B90F60930F0570931005CC
:103AE00080931105909312050E949E0885EC96E044
:103AF0000E94DB038CEA96E00E94DB0383E996E0F8
:103B00000E94DB038091CC04811103C01092CB048E
:103B10002BC00E94B90F0091C7041091C8042091D6
:103B2000C9043091CA04DC01CB01801B910BA20BAC
:103B3000B30B81369A4EA105B105B0F01092CC04BA
:103B4000E091C504F091C604EE0FFF1FE75EFC4F45
:103B5000808191819093C6048093C504FC01E65F47
:103B6000FC4F80818093CB048091C5069091C6065E
:103B7000181619060CF035C11092CE041092CD041F
:103B800044E650E060E070E088EE93E00E94EE12C0
:103B90000E94B90F6093C7047093C8048093C9044E
:103BA0009093CA048091C5049091C6040196843014
:103BB000910529F09093C6048093C50404C0109227
:103BC000C6041092C5048AE592E00E94D814809140
:103BD000C5049091C6040E94591583E592E00E94A5
:103BE000D814E091C504F091C604EE0FFF1FE95F01
:103BF000FD4F808191810E9459152091C50430911B
:103C0000C604F901E65FFC4F80818093CB0421500C
:103C10003109F901EE0FFF1FE451FD4F4081518141
:103C20004115510509F4CEC0CA010197FC01EE0F00
:103C3000FF1FE253FD4F608171816217730709F026
:103C4000C1C04230510569F528E1EDE2F2E0D10151
:103C500001900D922A95E1F72091190230911A02F4
:103C600023703327232B21F4EDE1F0E0FC83EB8379
:103C70002091150230911602E0911702F09118027E
:103C80003197EE0FFF1FE20DF31D40815181421766
:103C900053073CF487E090E09093C6048093C504FA
:103CA000ECC31092CC049093C6048093C504892B76
:103CB000B9F40E94C9127C010E94D2128C010E94A8
:103CC000D9129C014091130250911402609111028B
:103CD0007091120280910F02909110020E94661161
:103CE0008091C5049091C6040197E9F4E09019020F
:103CF000F0901A02F0E3EF1AF8EFFF0A00911702B2
:103D00001091180280901502909016020E94E01205
:103D10005C010E94E7126C010E94D4039401A5018A
:103D2000B6010E9466118091C5049091C604029765
:103D3000C1F460911B0282E090E00E94C205609194
:103D40001D0283E090E00E94C20560911F0284E0A2
:103D500090E00E94C2056091210286E090E00E94FE
:103D6000C2058091C5049091C604039731F4609117
:103D7000230281E090E00E94C2050E94C9127C01EA
:103D80000E94D212082F0E94D9126F968FAF6F97A0
:103D90000E94E0126E968FAF6E970E94E712182F66
:103DA0000E94D403382FC70168EE73E0AAD5E82E2D
:103DB0006F962FAD6F976E964FAD6E97612F832FD5
:103DC0000E9422160091C5041091C6048091CB0474
:103DD0000E94CC06000F111FF801E95FFD4F91838F
:103DE00080838091C5069091C60697FF8CC044E6FB
:103DF00050E060E070E088EE93E00E94EE12809167
:103E0000CC04811151C00E94B90F6093C704709314
:103E1000C8048093C9049093CA048091C50490910A
:103E2000C604892B09F040C00E94E012BC01C10108
:103E30000E9423070E94E712BC01CE018D5B9F4FB9
:103E40000E9423070E94D403BC01CE01815B9F4FD7
:103E50000E942307BE01615B7F4FCE01875B9F4FAE
:103E60000E946D0DBE016D5B7F4FCE01875B9F4F42
:103E70000E94D20CB1010E94D20CBC018EED96E0E2
:103E80000E94E30CCE01875B9F4F0E94310DCE0153
:103E9000815B9F4F0E94310DCE018D5B9F4F0E9431
:103EA000310DC1010E94310DE091C504F091C604AD
:103EB000EE0FFF1FE75EFC4F008111811093C604D7
:103EC0000093C5040A30110549F421E030E0309335
:103ED00022022093210280E88093C4049091CC04B4
:103EE00081E089278093CC04F801E65FFC4F808154
:103EF0008093CB040E94CC06000F111FF801E95FEC
:103F0000FD4F918380838091AC069091AD06009720
:103F100001F190930E0580930D0518161906CCF447
:103F20001092CE041092CD0444E650E060E070E0C0
:103F300088EE93E00E94EE120E9448088091CC0423
:103F4000811107C010920C0560E087E090E00E94AC
:103F5000C20580910D0590910E05019661F5809145
:103F6000AE06882341F11092C3048091CC048823CB
:103F700029F10E94B90F00910805109109052091BF
:103F80000A0530910B05DC01CB01801B910BA20BC4
:103F9000B30B87399105A105B10580F00E94B90FD7
:103FA000609308057093090580930A0590930B05AB
:103FB0000E94480803C081E08093C3048091930667
:103FC00090919406009799F19093070580930605C8
:103FD0001816190664F51092CE041092CD0444E62A
:103FE00050E060E070E088EE93E00E94EE120E94E4
:103FF000EE078091CC0481111AC081E080930C05FA
:1040000061E087E090E00E94C2056091050288E0CF
:1040100090E00E94C2056091040589E090E00E9452
:10402000C205609102058AE090E00E94C20580917D
:10403000060590910705019661F580919506882304
:1040400041F11092C2048091CC04882329F10E948E
:10405000B90F0091FE041091FF04209100053091EA
:104060000105DC01CB01801B910BA20BB30B87393F
:104070009105A105B10580F00E94B90F6093FE047F
:104080007093FF0480930005909301050E94EE0752
:1040900003C081E08093C2048091CC04811135C0BB
:1040A0008091AC069091AD0697FF16C044E650E0B3
:1040B00060E070E088EE93E00E94EE1281E0809371
:1040C000040261E080E090E00E94C2058CE492E08E
:1040D0000E94F9140E94C60580919306909194065F
:1040E00097FF13C044E650E060E070E088EE93E094
:1040F0000E94EE121092040260E080E090E00E94C4
:10410000C20584E492E00E94F9148091C504909164
:10411000C6048130910509F412C11CF4892B99F170
:10412000ACC18230910509F453C1039709F0A5C1D0
:1041300060912302709124024AE0CE0101960E9410
:10414000360D69EC73E0CE018D5B9F4F0E94750DBB
:10415000BE016F5F7F4FCE018D5B9F4F0E94D20CDF
:1041600069EC73E00E94BB0CBC018EED96E00E94EE
:10417000E30CCE018D5B9F4F0E94310DCE01019665
:104180000E94310D76C10E94B90F0091ED0410918B
:10419000EE042091EF043091F004DC01CB01801B90
:1041A000910BA20BB30B893E9340A105B10508F416
:1041B00077C00E94B90F6093ED047093EE04809372
:1041C000EF049093F0048091230290912402489789
:1041D00099F40E94E012BC01CE0101960E942307CF
:1041E0000E94E712BC01CE018D5B9F4F0E94230706
:1041F0000E94D403BC0120C00E94E012BC01CE0189
:1042000001960E9423070E94E712BC01CE018D5B3C
:104210009F4F0E9423070E9441120E94E102809159
:10422000BD04882339F0682F70E08D3028F06C5081
:10423000710902C06CE070E0CE01815B9F4F0E946B
:104240002307BE01615B7F4FCE01875B9F4F0E94BA
:104250006D0DBE016D5B7F4FCE01875B9F4F0E944E
:10426000D20CBE016F5F7F4F0E94D20CBC01CE0109
:104270008B5A9F4F0E946D0DCE01875B9F4F0E940E
:10428000310DCE01815B9F4F0E94310DCE018D5BC0
:104290009F4F0E94310DCE0101960E94310D07C043
:1042A0006EED76E0CE018B5A9F4F0E946D0DBE01E0
:1042B0006B5A7F4F8EED96E00E94F80CCE018B5A20
:1042C0009F4F0E94310D8091F60481110DC00E9414
:1042D000B90F6093F2047093F3048093F404909305
:1042E000F50481E08093F6040E94B90F0091F20476
:1042F0001091F3042091F4043091F504DC01CB011A
:10430000801B910BA20BB30B893E9340A105B10515
:1043100008F4B1C00E94B90F6093F2047093F304E3
:104320008093F4049093F5049091F10481E089273F
:104330008093F104882309F49CC080EC97C00E940C
:10434000C91268EE73E0DDD2BC01CE0101960E9475
:1043500023070E94D212BC01CE018D5B9F4F0E94A9
:1043600023070E94D912BC01CE01815B9F4F0E949E
:104370002307BE01615B7F4FCE01875B9F4F0E9489
:104380006D0DBE016D5B7F4FCE01875B9F4F0E941D
:10439000D20CBE016F5F7F4F0E94D20CBC018EED2C
:1043A00096E00E94E30CCE01875B9F4F0E94310D87
:1043B000CE01815B9F4F0E94310DCE018D5B9F4FDF
:1043C0000E94310DCE0101960E94310D80E44EC055
:1043D00060911F0270912002CE0101960E94230776
:1043E00060911D0270911E02CE018D5B9F4F0E9455
:1043F000230760911B0270911C02CE01815B9F4FCD
:104400000E942307BE01615B7F4FCE01875B9F4FF8
:104410000E946D0DBE016D5B7F4FCE01875B9F4F8C
:104420000E94D20CBE016F5F7F4F0E94D20CBC0174
:104430008EED96E00E94E30CCE01875B9F4F0E94B9
:10444000310DCE01815B9F4F0E94310DCE018D5BFE
:104450009F4F0E94310DCE0101960E94310D809137
:10446000210290912202019721F480E88093C404F4
:1044700002C01092C4040E94DB050E94A60B53C91F
:104480008EED96E00E94310D84EE96E00C94310D95
:10449000EAEEF5E01382128288EE93E0A0E0B0E04D
:1044A00084839583A683B78328E933E0318320830F
:1044B00025EC30E03587248724EC30E037872687E9
:1044C00020EC30E0318B208B21EC30E0338B228BE1
:1044D00022EC30E0358B248B26EC30E0378B268BBA
:1044E000118E128E138E148EE7E8F6E0138212827C
:1044F00084839583A683B78388EA93E0918380833E
:1045000062E874E084EE96E00E94750D65EC73E05D
:104510008EED96E00E94750D21E040E066E385ECAB
:1045200096E00E94460421E040E068E38CEA96E0D1
:104530000E94460421E040E067E383E996E00C94A2
:104540004604CF93DF938230910510F482E090E02F
:10455000E091EC06F091ED0620E030E0C0E0D0E024
:10456000309711F14081518148175907C0F0481721
:10457000590761F482819381209719F09B838A8384
:104580002BC09093ED068093EC0626C021153105D3
:1045900019F04217530718F49A01BE01DF01EF0129
:1045A0000280F381E02DDCCF2115310509F1281BB4
:1045B000390B2430310590F412968D919C9113970C
:1045C0006115710521F0FB019383828304C09093F0
:1045D000ED068093EC06FD01329644C0FD01E20F2A
:1045E000F31F81939193225031092D933C933AC04C
:1045F0002091EA063091EB06232B41F42091290209
:1046000030912A023093EB062093EA06209127028C
:10461000309128022115310541F42DB73EB7409164
:104620002B0250912C02241B350BE091EA06F091ED
:10463000EB06E217F307A0F42E1B3F0B28173907F0
:1046400078F0AC014E5F5F4F2417350748F04E0FEE
:104650005F1F5093EB064093EA068193919302C04B
:10466000E0E0F0E0CF01DF91CF9108950F931F9329
:10467000CF93DF93009709F48CC0FC01329713822B
:1046800012820091EC061091ED060115110581F4DE
:1046900020813181820F931F2091EA063091EB0631
:1046A0002817390779F5F093EB06E093EA0671C015
:1046B000D80140E050E0AE17BF0750F412962D919C
:1046C0003C911397AD012115310509F1D901F3CFC3
:1046D0009D01DA013383228360817181860F971FE8
:1046E0008217930769F4EC0128813981260F371F5F
:1046F0002E5F3F4F318320838A819B819383828306
:10470000452B29F4F093ED06E093EC0642C0139696
:10471000FC93EE931297ED01499159919E01240F5C
:10472000351FE217F30771F480819181840F951F83
:10473000029611969C938E938281938113969C93FB
:104740008E931297E0E0F0E0D80112968D919C9143
:104750001397009719F0F8018C01F6CF8D919C9179
:1047600098012E5F3F4F820F931F2091EA063091F0
:10477000EB062817390769F4309729F41092ED06F3
:104780001092EC0602C0138212821093EB06009383
:10479000EA06DF91CF911F910F9108951F93FC01BD
:1047A00099278827BC01E89411911032E9F3193058
:1047B00010F01E30C8F31B3249F01D3241F46894EA
:1047C00005C026D0610F711D811D911D11911053DF
:1047D0001A30B8F33EF490958095709561957F4FAF
:1047E0008F4F9F4F1F9108954532510518F4423065
:1047F00008F004C0FB011082CB010895BB274A30AA
:1048000031F4992322F4BDE2909581959F4F16C013
:10481000592F482F372F262F660F771F881F991F74
:10482000660F771F881F991F620F731F841F951FC4
:10483000660F771F881F991F0895BB27FB01552717
:10484000AA27880F991FAA1FA41710F0A41B8395ED
:104850005051B9F7A05DAA3308F0A95DA193009764
:1048600079F7B111B1931192CB0100C0DC01FC01C9
:10487000672F71917723E1F7329704C07C916D9394
:1048800070836291AE17BF07C8F30895F999FECF00
:1048900092BD81BDF89A992780B50895262FF99980
:1048A000FECF1FBA92BD81BD20BD0FB6F894FA9A13
:1048B000F99A0FBE0196089509D0A59F900DB49F57
:1048C000900DA49F800D911D11240895A29FB00109
:1048D000B39FC001A39F700D811D1124911DB29F34
:1048E000700D811D1124911D0895991B79E004C05C
:1048F000991F961708F0961B881F7A95C9F780951F
:10490000089597FB072E16F4009406D077FD08D083
:104910008ED007FC05D03EF4909581959F4F089569
:10492000709561957F4F0895A1E21A2EAA1BBB1BBB
:10493000FD010DC0AA1FBB1FEE1FFF1FA217B3076B
:10494000E407F50720F0A21BB30BE40BF50B661F81
:10495000771F881F991F1A9469F760957095809545
:1049600090959B01AC01BD01CF010895052E97FBE9
:1049700016F400940FD057FD05D0D6DF07FC02D007
:1049800046F408C050954095309521953F4F4F4FC4
:104990005F4F089590958095709561957F4F8F4FEB
:1049A0009F4F0895EE0FFF1F881F8BBF0790F69152
:1049B000E02D1994B7FF80CF7FDF821B930B089502
:1049C0000F93083090F0982F872F762F652F542F54
:1049D000432F322F22270850F4CF220F331F441FBA
:1049E000551F661F771F881F991F0A95B2F70F91F1
:1049F000089597FB10F8169400080F93083098F06C
:104A00000850232F342F452F562F672F782F892FAB
:104A1000902DF4CF05949795879577956795579541
:104A20004795379527950A95AAF70F910895AA1BE0
:104A3000BB1B51E107C0AA1FBB1FA617B70710F089
:104A4000A61BB70B881F991F5A95A9F780959095BB
:104A5000BC01CD0108956F927F928F929F92AF9289
:104A6000BF92CF92DF92EF92FF920F931F93CF935B
:104A7000DF93EC01009781F4CB01DF91CF911F917F
:104A80000F91FF90EF90DF90CF90BF90AF909F90ED
:104A90008F907F906F9055CDFC01E60FF71F9C0122
:104AA00022503109E217F30708F4A8C0D9010D918B
:104AB0001C91119706171707A8F00530110508F487
:104AC0009BC0C80104978617970708F495C0025049
:104AD0001109061B170B019311936D937C93CF0162
:104AE000C5DD8AC05B01A01AB10A4C01800E911E7F
:104AF000A091EC06B091ED0640E050E0E12CF12CE5
:104B0000109709F44AC0A815B905D1F56D907C90AD
:104B10001197630182E0C80ED11CCA14DB0480F136
:104B2000A3014A195B096A0182E0C80ED11C1296E2
:104B3000BC9012971396AC91B5E0CB16D10440F01F
:104B4000B282A38351834083D9016D937C930AC0C1
:104B50000E5F1F4FC301800F911FF9019183808366
:104B6000EB2DFA2FE114F10431F0D7011396FC93E9
:104B7000EE93129741C0F093ED06E093EC063CC033
:104B80008D919C9111974817590708F4AC017D014C
:104B900012960D90BC91A02DB3CF8091EA06909112
:104BA000EB0688159905E1F446175707C8F480917C
:104BB000270290912802009741F48DB79EB740914B
:104BC0002B0250912C02841B950BE817F907B0F4C7
:104BD000F093EB06E093EA06F901718360830CC061
:104BE000CB01AFDC7C01009749F0A801BE011BD0CE
:104BF000CE013CDDC70104C0CE0102C080E090E0E0
:104C0000DF91CF911F910F91FF90EF90DF90CF90A8
:104C1000BF90AF909F908F907F906F90089581E0AC
:104C200090E0F89410C0FB01DC0102C001900D92ED
:104C300041505040D8F70895FB01DC0101900D92DE
:104C40000020E1F7089511E0CCE6D1E000E005C0D6
:104C5000802FFE01A7DE2196011DCD36D10780E011
:084C60000807B1F7F894FFCF3B
:104C68000B04060401FF0000000000000000000023
:104C7800000000000000000000000000000000002C
:104C880000000018003F000000EE0680001F001C16
:104C9800001F001E001F001E001F001F001E001F17
:104CA800001E001F00000006011501260137014AF9
:104CB800015D01720188019F01B801D201EE010B6B
:104CC800022A024B026E029302BA02E40210033F68
:104CD800037003A403DC03170455049704DD0427B9
:104CE800057505C80520067D06E0064907B8072DA5
:104CF80008A9082D09B9094D0AEA0A900B400CFACF
:104D08000CC00D910E6F0F000000000100FFFF00A6
:104D180000000000000100000000000000FFFF018B
:104D280000000000000000FFFF00000A090806005C
:104D380009000D000E000000000000000000000047
:104D4800000000000000000000000000000000005B
:104D58000000000001000100010002000200020042
:104D68000300030003000300040000000000030C1C
:104D780030030C30030C30C00C040007000A000E8E
:104D8800000000000000000000000000000000001B
:104D980000000000000000FEFFFDFFFBFFF7FFEF33
:104DA800FFDFFFBFFF7FFFFFFEFFFD0000000000E9
:104DB80000000017003B003B001F000C00630017B9
:104DC800003B003B00010018000000000000000C40
:104DD80000000000000000010001000000000000C9
:104DE80000000000000C001F1C1F1E1F1E1F1F1E9E
:104DF8001F1E1F00000000003F0BBC0A090BE70A3A
:104E0800FB0A850B000000002C02FD01F501E10101
:104E1800D201D1010D0A002E00467265652072612B
:104E28006D203D20003030303030300031313131AC
:104E380031310032323232323200333333333333AA
:104E480000343434343434003535353535350036AE
:104E5800363636363600373737373737003838384A
:104E6800383838003939393939390050696E6B505A
:104E7800616E746865723A643D342C6F3D352C62FE
:104E88003D3136303A3864232C38652C32702C3852
:104E980066232C38672C32702C3864232C38652C08
:104EA8003136702C3866232C38672C3136702C3804
:104EB80063362C38622C3136702C3864232C3865D4
:104EC8002C3136702C38622C3261232C32702C3104
:104ED80036612C3136672C3136652C3136642C32EC
:0A4EE8006500303130323130000037
:00000001FF
